:020000040800F2
:10000000B847002061020008C1360008D930000856
:10001000BD360008850B0008A14100080000000063
:10002000000000000000000000000000A101000826
:10003000E10E000800000000FD010008853A0008FC
:100040007B0200087B0200087B0200087B0200089C
:100050007B0200087B0200087B0200087B0200088C
:100060007B0200087B0200087B0200087B0200087C
:100070007B0200087B0200087B0200087B0200086C
:100080007B0200087B0200087B0200087B0200085C
:100090007B0200087B0200087B0200087B0200084C
:1000A0007B0200087B0200087B0200087B0200083C
:1000B0007B0200087B0200087B0200087B0200082C
:1000C0007B0200087B0200087B0200087B0200081C
:1000D0007B0200087B0200087B0200087B0200080C
:1000E0007B0200087B0200087B0200087B020008FC
:1000F0007B0200087B0200087B0200087B020008EC
:100100007B0200087B0200087B0200087B020008DB
:100110007B0200087B0200087B020008813B00088C
:100120007B0200087B0200087B0200087B020008BB
:100130007B0200087B0200087B0200087B020008AB
:10014000890B00087B0200087B0200087B02000884
:100150007B0200087B0200087B0200087B0200088B
:100160007B0200087B0200087B0200087B0200087B
:100170007B0200087B0200087B02000800000000F0
:100180007B0200087B020008DFF810D000F0A4FB1F
:100190000048004705660008AFF30080B84700201C
:1001A0002C4B19680868B0E8F04F80F30988BFF35A
:1001B0006F8F4FF0000080F311887047000000003F
:1001C00008480068006880F308884FF0000080F35A
:1001D000148862B661B6BFF34F8FBFF36F8F00DF35
:1001E00000BF00BF08ED00E0DFF80C00016841F43B
:1001F00070010160704700BF88ED00E0EFF30980F7
:10020000BFF36F8F134B1A681EF0100F08BF20ED5D
:10021000108A20E9F04F106009B44FF0500080F3CD
:100220001188BFF34F8FBFF36F8F07F0EDF94FF0D9
:10023000000080F3118809BC19680868B0E8F04F25
:100240001EF0100F08BFB0EC108A80F30988BFF3CE
:100250006F8F70471C000020EFF30580704700008F
:100260000648804706480047FEE7FEE7FEE7FEE750
:10027000FEE7FEE7FEE7FEE7FEE7FEE76D3B000870
:10028000890100082DE9F05F0546002092469B4653
:1002900088460646814640241BE02846414647469C
:1002A000224600F03AFA53465A46C01A914110D3FA
:1002B00011461846224600F021FA2D1A67EB010874
:1002C0004F4622460120002100F018FA17EB0009E2
:1002D0004E41201EA4F10104DFDC484631462A4687
:1002E0004346BDE8F09F40EA01039B0703D009E0C5
:1002F00008C9121F08C0042AFAD203E011F8013B12
:1003000000F8013B521EF9D27047D2B201E000F86A
:10031000012B491EFBD270470022F6E710B51346A9
:100320000A4604461946FFF7F0FF204610BD2DE9A6
:10033000FE4F804681EA0300C00F0C46009021F07A
:10034000004123F00045B8EB0200A94105D2404628
:10035000214690461C460B46024623F000401043BF
:1003600047D0270DC7F30A00C3F30A510290401A81
:10037000019040286BDAC3F3130040F4801B00980F
:10038000924620B10023D2EB030A63EB0B0B0198DA
:100390005946C0F14002504600F0B0F906460D46FD
:1003A00050465946019A00F0C8F910EB0800614127
:1003B000002487EA115284EAE7731A4340D0009A76
:1003C00062B3019A012A4FEA075215DC001B61EB68
:1003D00002014FF0004202EA0752CDE90042001C40
:1003E00041F5801132462B4600F0FFF903B0BDE81D
:1003F000F08F40462146F9E7001B61EB0201001C2B
:1004000041F5801300185B412018A2F5001747EB57
:10041000030140EAD570B6196D4111E06D084FEA4D
:10042000360645EAC0754FEA0752001B61EB020130
:10043000001C41F5801149084FEA30000019514174
:1004400032462B4603B0BDE8F04F00F0BFB900982C
:10045000012240000023D0EB020263EBE07300981E
:1004600021464FEAE074B8EB000061EB0401E9E7D4
:1004700083F000435BE781F0004158E72DE9FE4F30
:1004800081EA030404F0004421F0004100944FF09D
:10049000000B23F0004350EA01045ED052EA03044B
:1004A0005BD0C3F30A54C1F30A552C44A4F2F334CD
:1004B0000194A0FB0254C1F3130141F48011C3F372
:1004C000130343F4801301FB024400FB034E840A30
:1004D000970A44EA815447EA8357A4FB07680295C8
:1004E0008D0A05FB07854FEA932C04FB0C54270566
:1004F000029D4FEA065847EA1637B5EB08056EEB42
:10050000070C870E920E47EA811742EA8312A7FB77
:100510000201B6EB0B0164EB00042B0D43EA0C3334
:100520005E1844EB1C50DA465146E7FB0201C5F366
:1005300013044FEA0B3343EA14534FEA0432019C8D
:1005400043EA0603A4F10C040294009CCDE900B434
:1005500000F04BF903B0BDE8F08F00200146F9E749
:100560002DE9F04D81EA030404F0004B21F0004531
:1005700014464FF0000A23F0004150EA050220D053
:1005800054EA01021DD0C5F30A570246C5F313030E
:10059000C1F31300C1F30A5640F4801543F48013ED
:1005A000A7EB0608101BD64608F2FD3873EB0500D2
:1005B00002D308F1010801E092185B41B8F1000F85
:1005C00003DA00200146BDE8F08D00204FF48011D1
:1005D000064684460EE0171B73EB050705D3121B76
:1005E00063EB050306434CEA010C49084FEA30006F
:1005F00092185B4150EA0107EDD152EA030012D094
:1006000082EA040083EA0501084305D0101BAB41D0
:1006100006D20122002306E000224FF0004302E050
:100620006FF0010253101AEB06004CEB085110EB6F
:100630000A0041EB0B01BDE8F04D00F0C7B800F037
:10064000004230F000400AD0C10D01F56071C0F3E6
:10065000160042EA0151C2084007114370470020CA
:100660000146704730B5041E71F1000404DB4FF001
:100670000044404264EB0101141E73F1000405DBE9
:100680001C464FF00043524263EB04038B4208BF09
:10069000824230BD30B5041E71F1000404DB4FF01E
:1006A0000044404264EB0101141E73F1000405DBB9
:1006B0001C464FF00043524263EB0403994208BFCB
:1006C000904230BD01F0004330B421F0004150EAC7
:1006D000010206D00A0DA2F56072C1F31301002ACF
:1006E00002DC30BC00207047440F44EAC104C10062
:1006F000E01830BC00EBC25000F031B8202A04DB17
:10070000203A00FA02F1002070479140C2F1200324
:1007100020FA03F3194390407047202A04DB203A63
:1007200021FA02F00021704721FA02F3D040C2F111
:1007300020029140084319467047202A06DBCB1758
:10074000203A41FA02F043EAE07306E041FA02F38C
:10075000D040C2F120029140084319467047002959
:10076000A8BF7047401C490008BF20F00100704737
:1007700010B4B0FA80FC00FA0CF050EA010404BF97
:1007800010BC704749B1CCF1200421FA04F411FAED
:100790000CF118BF012121430843A3EB0C01CB1D31
:1007A0004FEA00614FEA102042BF002010BC7047A2
:1007B00000EBC35010440029A4BF10BC7047401C7C
:1007C000490008BF20F0010010BC704710B5141E8E
:1007D00073F1000408DA401C41F1000192185B41FA
:1007E0001A4301D120F0010010BD2DE9F04D9246D1
:1007F0009B4611B1B1FA81F202E0B0FA80F22032E8
:100800009046FFF77BFF04460F4640EA0A0041EAA4
:100810000B0153465A46084313D0114653EA0100D0
:1008200019D0C8F140025046FFF777FF05460E4643
:10083000504659464246FFF761FF084305D0012064
:1008400004E020463946BDE8F08D0020054346EA25
:10085000E0762C4337430A986305E40AA0EB0800CE
:100860000022FD0A44EA47540A3002D5002001461E
:10087000E9E7010510196941DDE9084500196941F9
:10088000BDE8F04DA2E770B521F0004303430CD062
:10089000C1F30A550024D5EB040564EB0403D61715
:1008A000AD1AB34102DB0020014670BD201841EBB8
:1008B000025170BD0EB5C10F80EAE0700844CA074E
:1008C000002140F233438DE80E000A460B46FFF745
:1008D0008CFF03B000BD0000064C074D06E0E06849
:1008E00040F0010394E8070098471034AC42F6D377
:1008F000FFF74EFC947E0008B47E00082DE9F04D11
:1009000000231A461B1A8A4103DB00200146BDE87A
:10091000F08DC1F30A52C1F3130141F480154FF079
:10092000000BD10702D100186D41521E002704466A
:1009300040F2FF11384601EB620A3E46804602460D
:1009400000204FF48011FFF7E8FEC2197141BB1877
:1009500046EB0100B4EB030C75EB000C04D3E41A76
:1009600065EB000517460E46241908F101006D419C
:1009700080463428E3DDF91946EB0600091BA8413F
:1009800003D24FF0FF32134601E0002213461BEB67
:10099000070046EB0A51BDE8F04DFFF717BF0EB553
:1009A00040F2334102910021CDE900110A460B4685
:1009B000FFF71BFF03B000BD70B5C1F30A5201F091
:1009C00000450024C1F3130140F2FF3341F48011CC
:1009D0009A4201DA002070BD40F233439A42A2F2FB
:1009E000334203DC5242FFF798FE00E090402C4374
:1009F000F1D0404270BD30B58C1810F8012B12F0C8
:100A00000F0301D110F8013B120906D110F8012B98
:100A100003E010F8015B01F8015B5B1EF9D101E016
:100A200001F8013B521EFBD1A142E6D3002030BDAC
:100A300010B52DED048BB0EE409AB0EE608AF0EE6A
:100A4000418ADFED3A0AB0EE490A394806F060F90A
:100A5000DFED360AB0EE480A364806F059F9DFED08
:100A6000330AB0EE680A344806F052F9F3EE002A71
:100A7000B3EE012AF3EE001A2F4890ED001A2D482C
:100A8000D0ED000A2A4890ED000A2C4805F02EFA15
:100A90002A4890ED030AB5EEC00AF1EE10FA17D11C
:100AA00090ED000A264880ED000A2448D0ED010AA6
:100AB000B0EE600A00F070F8224908601F48D0EDDF
:100AC000020AB0EE600A00F079F81F4908601AE0E7
:100AD0001A4890ED030AF7EE000AB4EE600AF1EE50
:100AE00010FA10D19FED190A154880ED000A9FED0C
:100AF000180A00F051F8134908609FED160A00F03B
:100B00005DF8114908600F4890ED000AB8EEC00A80
:100B1000022000F057F90C4890ED000AB8EEC00A28
:100B2000012000F04FF9BDEC048B10BD0AD7233C27
:100B30000C0100201001002014010020A843002017
:100B400000010020040100200801002052A40E42F0
:100B5000009B7243603874420DE0074890ED001A24
:100B60000648D0ED000A064890ED000AFFF760FF46
:100B7000012005F064FDF0E7200100201C010020A9
:100B80001801002000BFFEE710B5024800F0BFFCCE
:100B900010BD0000880300209FED061AC0EE010A78
:100BA0009FED051A60EE810AFDEEE00A10EE900A54
:100BB000704700000000B44300FC7F469FED061A1A
:100BC000C0EE010A9FED051A60EE810AFDEEE00A13
:100BD00010EE900A704700000000B44300FC7F460E
:100BE00000201E49086048608860C8609FED1C0AAC
:100BF000084680ED040A9FED1A0A80ED050A9FED74
:100C0000180A80ED060A0020C8619FED150A084603
:100C100080ED080A9FED120A80ED090A00201149B3
:100C2000086048608860C8609FED0D0A084680ED46
:100C3000040A9FED0B0A80ED050A9FED090A80ED7D
:100C4000060A0020C8619FED060A084680ED080AE2
:100C50009FED030A80ED090A704700006042002002
:100C6000000000003842002010B53A4890ED000A1C
:100C7000394880ED000A394890ED000A364880ED89
:100C8000010A374890ED000A334880ED020A3548E2
:100C9000D0ED000A344890ED000A2F4A0021334875
:100CA00002F008FE324890ED000A324880ED000A5A
:100CB000314890ED000A2F4880ED010A2F4890ED51
:100CC000000A2C4880ED020A2D48D0ED000A2D487C
:100CD00090ED000A274A00212B4802F0EBFD2B483B
:100CE00090ED000A2A4880ED000A2A4890ED000A9B
:100CF000274880ED010A284890ED000A244880ED3D
:100D0000020A2648D0ED000A254890ED000A204A44
:100D10000021244802F0CEFD234890ED000A23482C
:100D200080ED000A224890ED000A204880ED010A7B
:100D3000204890ED000A1D4880ED020A1E48D0EDC3
:100D4000000A1E4890ED000A184A00211C4802F0D3
:100D5000B1FD10BD98000020084200209C0000203A
:100D6000A0000020A8000020A4000020884200204D
:100D7000AC00002014420020B0000020B40000208D
:100D8000BC000020B800002018430020C000002054
:100D900020420020C4000020C8000020D000002015
:100DA000CC000020D0420020D40000202C420020A3
:100DB000D8000020DC000020E4000020E00000203B
:100DC0006043002010B52DED028B0446B0EE408A42
:100DD000012C35D13748D0ED010AF8EEE00AB0EE2B
:100DE000600A9FED351AF0EE480A02F077F9F0EE4E
:100DF000408AF0EE480A314802F064FC304880ED49
:100E0000000A2C48D0ED050AB0EE600A2C48D0ED5F
:100E1000000A2C4802F056FC264880ED090A90EDA5
:100E2000090AB0EE402ADFED281A9FED271ADFED00
:100E3000260A9FED250A0121244802F073F936E0C5
:100E4000022C34D12248D0ED010AF8EEE00AB0EECF
:100E5000600A9FED191AF0EE480A02F03FF9F0EE31
:100E6000408AF0EE480A1B4802F02CFC1A4880ED3C
:100E7000000A1748D0ED050AB0EE600A1648D0ED1A
:100E8000000A164802F01EFC114880ED090A90ED98
:100E9000090AB0EE402ADFED0C1A9FED0B1ADFEDC8
:100EA0000A0A9FED090A0221084802F03BF9BDEC4D
:100EB000028B10BD3842002000FC7F461843002002
:100EC000F00000208842002000000000880300207D
:100ED0006042002060430020F8000020D042002043
:100EE0007047000030B589B005460C4600940020DC
:100EF0000290039008200490FF208DF81C008DF8CC
:100F00001D008DF81E008DF81F008DF820008DF853
:100F100021008DF82200FC208DF8230006AB07AAE3
:100F20006946024800F0F1F809B030BD880300209E
:100F300072B600BFFEE7000010B503460C462078ED
:100F4000C0F300101860A078617840EA0120A0F298
:100F5000DF305860E0780001217940EA2110986084
:100F60006079217901F00F0140EA0120D8605868CA
:100F7000002805DA43F6FF7158680844586007E016
:100F800043F6FF71586890FBF1F201FB12005860C4
:100F90001021F2EE090ABAEE090A586806F04CF878
:100FA00083ED040A0C21DFED160A9FED160A9868FE
:100FB00006F042F883ED050A0C21F3EE020ABBEEBF
:100FC000020AD86806F038F883ED060A5868D86136
:100FD00093ED050A83ED080A93ED080A0A48D0ED5F
:100FE000000AB7EE001A71EE600A20EE200AD3ED77
:100FF000050A90ED001A00EE810A83ED050A10BD86
:1010000000003442000034C2EC00002010B503465A
:101010000C462078C0F300101860A078617840EA90
:101020000120A0F622305860E0780001217940EAE2
:10103000211098606079217901F00F0140EA0120C8
:10104000D8605868002805DA43F6FF7158680844EC
:10105000586007E043F6FF71586890FBF1F201FB1E
:10106000120058601021F2EE090ABAEE090A586817
:1010700005F0E2FF83ED040A0C21DFED160A9FED77
:10108000160A986805F0D8FF83ED050A0C21F3EEE7
:10109000020ABBEE020AD86805F0CEFF83ED060A0D
:1010A0005868D86193ED050A83ED080A93ED080AA4
:1010B0000A48D0ED000AB7EE001A71EE600A20EE81
:1010C000200AD3ED050A90ED001A00EE810A83EDA7
:1010D000050A10BD00003442000034C2E8000020C0
:1010E00010B5024692F82030012B01D0022B06D118
:1010F00010684069084314686061002010BD506AA0
:1011000040F4802050620120F8E7F0B504460D4617
:101110001E4694F8207020688368A86800B900E033
:1011200000BF012F01D0022F7DD103F0806030B9C4
:1011300003F0006018B903F0805000287ED0C3F39C
:101140000161012088403060A86860B9B5F800C02E
:10115000E86840EA4C5C206800F5C07000EB0110C4
:10116000C0F800C00FE0D5E901C040EACC00D5F8D6
:101170000CC040EA0C00D4F800C00CF5C07C0CEBAD
:10118000011CCCF80000D5F810C0206800F5C07034
:1011900000EB0110C0F804C0287D01280ED12068A2
:1011A00000F5C07000EB0110406840F4807C2068BE
:1011B00000F5C07000EB0110C0F804C0D079000643
:1011C00092F806C040EA0C4092F805C040EA0C20B4
:1011D00092F804C040EA0C00D4F800C00CF5C07CC2
:1011E0000CEB011CCCF80C00D078000692F802C081
:1011F00040EA0C4092F801C040EA0C2092F800C08E
:1012000040EA0C00D4F800C00CF5C07C0CEB011CCB
:10121000CCF80800206800F5C07000EB01100068F1
:1012200040F0010C01E00FE008E0206800F5C0701C
:1012300000EB0110C0F800C00020F0BD606A40F46F
:10124000001060620120F8E7606A40F4802060626C
:101250000120F2E7F0B504460A46216894F82050D0
:10126000012D01D0022D7ED1424901F5007108689F
:1012700040F001000860086820F47C5008600868AD
:10128000566A40EA06200860107D00F01F06012023
:1012900000FA06F3C8699843C861A1F50071D069E6
:1012A000C8B9D1F80C029843C1F80C02908880B2FA
:1012B000968940EA064601F51070576940F8376094
:1012C000108880B2168940EA064601F51070576909
:1012D00000EBC7004660D069012819D1D1F80C0293
:1012E0001843C1F80C02908880B2168840EA06467E
:1012F00001F51070576940F83760908980B21689FF
:1013000040EA064601F51070576900EBC7004660D9
:10131000906928B9D1F804029843C1F8040204E0A6
:10132000D1F804021843C1F80402106928B9D1F8B1
:1013300014029843C1F8140204E0D1F814021843CF
:10134000C1F81402106A012804D1D1F81C02184314
:10135000C1F81C02D1F8000220F00100C1F800021F
:101360000020F0BDFFE7606A40F480206062012049
:10137000F7E7000000640040704770B5044694F839
:101380002050012D01D0022D7DD151B92068C068B7
:1013900000F0030080B9606A40F400106062012030
:1013A00070BD2068006900F0030028B9606A40F44D
:1013B000001060620120F3E7206800F5D87000EBB0
:1013C0000110006800F004009060906840B9206847
:1013D00000F5D87000EB01100068400D106007E0C8
:1013E000206800F5D87000EB01100068C00850605C
:1013F000206800F5D87000EB0110006800F00200D2
:10140000D060206800F5D87000EB0110406800F053
:101410000F00082802D30820106108E0206800F5BA
:10142000D87000EB0110406800F00F0010612068D8
:1014300000F5D87000EB0110406800F47F40000A0E
:101440009061206800F5D87000EB01104068000C36
:101450005061206800F5D87000EB011080681870AA
:10146000206800F5D87000EB0110806800F47F4020
:10147000000A5870206800F5D87000EB01108068F1
:1014800000F47F0000E03CE0000C9870206800F55C
:10149000D87000EB01108068000ED870206800F54D
:1014A000D87000EB0110C0681871206800F5D87082
:1014B00000EB0110C06800F47F40000A58712068FA
:1014C00000F5D87000EB0110C06800F47F00000C3C
:1014D0009871206800F5D87000EB0110C068000E0C
:1014E000D87131B92068C06840F020002668F060EB
:1014F00005E02068006940F0200026683061002087
:101500004EE7606A40F480206062012048E72DE9E0
:10151000F05F04460025206846692068D0F80490F2
:10152000206887682068D0F80CA02068D0F810B038
:101530002068D0F8188006F00100002855D007F088
:101540000100C0B101202168886007F0020018B1D5
:10155000204600F07EFA0EE007F0040010B145F4DA
:10156000006508E007F0080010B145F4805502E07E
:10157000204600F06DFA07F48070C8B14FF4807017
:101580002168886007F4007018B1204600F063FA03
:101590000EE007F4806010B145F4005508E007F450
:1015A000006010B145F4804502E0204600F052FA98
:1015B00007F48030C8B14FF480302168886007F4A8
:1015C000003018B1204600F048FA0EE007F4802001
:1015D00010B145F4004508E007F4002010B145F4CF
:1015E000803502E0204600F037FA06F0080038B1F6
:1015F0000AF0100020B145F4007510202168C86081
:1016000006F0040040B10AF0080028B10820216863
:10161000C860204600F0B6F906F0020038B1206834
:10162000C06800F0030010B1204600F0ADF906F0EC
:10163000400038B10BF0100020B145F48065102057
:101640002168086106F0200040B10BF0080028B1C5
:10165000082021680861204600F0C8F906F0100053
:1016600038B12068006900F0030010B1204600F096
:10167000BEF906F4003040B109F0100028B1102086
:1016800021684860204600F0B3F906F4803040B18C
:1016900009F0080028B1082021684860204600F0C1
:1016A000DDF906F4004088B309F0040078B306F4CD
:1016B000807020B108F0010008B145F0010506F482
:1016C000007020B108F0020008B145F0020506F4F0
:1016D000806020B108F0040008B145F0040506F46C
:1016E0000060A0B108F0700088B108F070004028D8
:1016F00017D006DC10280BD020280CD0302819D1A8
:101700000CE0502810D0602814D110E01DE019E042
:1017100045F008050FE045F010050CE045F0200508
:1017200009E045F0400506E045F0800503E045F49A
:10173000807500E000BF00BF2068806920F0700065
:10174000216888610420216848602DB1606A2843BF
:1017500060622046FFF710FEBDE8F09F70B50446BA
:101760000CB9012070BD94F8200010B9204600F09B
:10177000AFF82068006840F001002168086000F0C0
:1017800069FA05460DE000F065FA401B0A2808D901
:10179000606A40F400306062052084F82000012077
:1017A000E0E72068406800F001000028EBD02068E6
:1017B000006820F002002168086000F04BFA05463E
:1017C0000DE000F047FA401B0A2808D9606A40F48F
:1017D00000306062052084F820000120C2E7206804
:1017E000406800F002000028EBD1207E012806D1DD
:1017F0002068006840F080002168086005E02068EB
:10180000006820F0800021680860607E012806D111
:101810002068006840F040002168086005E020680A
:10182000006820F0400021680860A07E012806D1F1
:101830002068006840F020002168086005E020680A
:10184000006820F0200021680860E07E012806D1B1
:101850002068006820F010002168086005E020681A
:10186000006840F0100021680860207F012806D140
:101870002068006840F008002168086005E02068E2
:10188000006820F0080021680860607F012806D108
:101890002068006840F004002168086005E02068C6
:1018A000006820F0040021680860D4E902010843C0
:1018B00021690843616908436168491E084321683A
:1018C000C86100206062012084F82000002049E700
:1018D00010B586B00446142101A8FEF71DFD264967
:1018E0002068884246D100BF00200090234800684D
:1018F00040F08060214908600846006800F0806080
:10190000009000BF00BF00BF0020009008460068A4
:1019100040F0007008600846006800F00070009019
:1019200000BF00BF00BF00200090144810380068BE
:1019300040F002001149103908600846006800F0C4
:101940000200009000BF00BF6020019002200290C2
:1019500000200390032004900920059001A9084865
:1019600000F07EF800220521402000F03BFA4020E4
:1019700000F024FA06B010BD006800404038024074
:10198000000402407047000010B58AB0044608AB5E
:1019900001AA00212046FFF7F0FC114884421CD127
:1019A0000198D0B99DF82000112802D012280AD140
:1019B00004E008A90B48FFF729FB0DE008A90A4835
:1019C000FFF7BAFA08E001210548FFF78BFA022178
:1019D0000348FFF787FA00BF00BF0AB010BD000040
:1019E0008803002038420020604200207047704782
:1019F000704770B5044694F82000012822D10220D7
:101A000084F820002068006820F001002168086048
:101A100000F020F905460DE000F01CF9401B0A28F3
:101A200008D9606A40F400306062052084F8200024
:101A3000012070BD2068406800F001000028EBD153
:101A40006062F6E7606A40F4002060620120F0E71F
:101A50007047704770477047704770477047000085
:101A6000F8B502460B460025002400200021D6E0F0
:101A7000012606FA01F51E6806EA0504AC4274D197
:101A80001E7906F00306012E04D01E7906F0030627
:101A9000022E13D190684F000326BE40B0434F0082
:101AA000DE68BE4030439060506801268E40B043EF
:101AB0001E79C6F300168E40304350601E7906F042
:101AC0000306032E09D0D0684F000326BE40B04362
:101AD0004F009E68BE403043D0601E7906F003067A
:101AE000022E13D1CF0802F1200656F827004E0728
:101AF000F70E0F26BE40B0434F07FF0E1E69BE40D3
:101B00003043CF0802F1200646F8270010684F0046
:101B10000326BE40B0431E7906F003064F00BE40C8
:101B2000304310605E6806F44036002E76D000BF69
:101B3000002600963C4E366846F480463A4F3E609A
:101B40003E46366806F48046009600BF00BF374E1A
:101B50008F0856F827008E07370F0F26BE40B04378
:101B6000334EB24202D1002624E057E0314EB24259
:101B700001D101261EE0304EB24201D1022619E009
:101B80002E4EB24201D1032614E02D4EB24201D1B5
:101B900004260FE02B4EB24201D105260AE02A4E60
:101BA000B24201D1062605E0284EB24201D10726F5
:101BB00000E008268F073F0FBE4030431B4E8F08C2
:101BC00046F82700224E3068A0435E6806F480166F
:101BD00006B120431E4E3060361D3068A0435E685B
:101BE00006F4001606B12043194E361D3060184E1B
:101BF000361F3068A0435E6806F4003606B1204305
:101C0000134E361F3060361F3068A0435E6806F4FE
:101C1000803606B120430E4E083E3060491C102924
:101C2000FFF426AFF8BD00004438024008380140F8
:101C3000000002400004024000080240000C024084
:101C4000001002400014024000180240001C024034
:101C5000083C014001480068704700000C0000206B
:101C6000034800680349097808440149086070473F
:101C70000C0000201400002010B50D48006840F44E
:101C800000700B4908600846006840F480600860F6
:101C90000846006840F480700860032000F0E0F817
:101CA0000F2000F007F800F05FF8002010BD0000E2
:101CB000003C02402DE9F04188B004460027B846B8
:101CC00000BF002001902348006840F02000214917
:101CD00008600846006800F02000019000BF00BFC7
:101CE00002A903A800F092F9069F1FB900F0B6F907
:101CF000054602E000F0B2F945001748B5FBF0F0E8
:101D0000A0F1010815481649086040F2E73114486F
:101D1000C160C0F80480002101618160816100F030
:101D2000F9FC064696B90E4800F0BEFD06466EB9AF
:101D3000372000F043F8102C07D20022214637202C
:101D400000F050F80748046000E00126304608B073
:101D5000BDE8F0814038024040420F0000140040CE
:101D6000D00400201000002008B500BF0020009023
:101D70001148006840F480400F4908600846006838
:101D800000F48040009000BF00BF00BF0020009022
:101D9000081F006840F08050091F0860084600686E
:101DA00000F08050009000BF00BF00220F21901E65
:101DB00000F018F808BD000044380240014608460B
:101DC00000280DDB00BF00BF00F01F0301229A4076
:101DD00043099B0003F1E023C3F8002100BF00BFCB
:101DE00000BF70472DE9F05F80460D46164600277C
:101DF00002F0F0F9074639462A46334601F007005B
:101E0000C0F1070ABAF1040F02D94FF0040A01E049
:101E1000C0F1070AD14600F1040ABAF1070F02D255
:101E20004FF0000A01E0A0F1030AD4464FF0010A86
:101E30000AFA09FAAAF1010A0AEA020A0AFA0CFAEB
:101E40004FF0010B0BFA0CFBABF1010B0BEA030B90
:101E50004AEA0B042146404602F0C4F9BDE8F09F6F
:101E600000BF00F00702064B19684FF6FF03194048
:101E7000044B0B4343EA0221014B196000BF70473A
:101E80000CED00E00000FA0570B504460D460CB9F3
:101E9000012070BD5848006800F00700A84209D230
:101EA00055490D700846006800F00700A84201D0AF
:101EB0000120EEE7207800F0020002281DD12078F2
:101EC00000F00400042805D14C48006840F4E050BC
:101ED0004A490860207800F00800082805D14748E2
:101EE000006840F46040454908604448006820F0BC
:101EF000F000A168084341490860207800F0010023
:101F0000A8B36068012807D13C4808380068C0F3CE
:101F10004040B8B90120BCE76068022802D0606880
:101F2000032807D1354808380068C0F3406048B935
:101F30000120AEE7314808380068C0F3400008B916
:101F40000120A6E72D48006820F0030061680843DF
:101F50002A490860FFF77EFE064609E0FFF77AFE91
:101F6000801B41F28831884202D9032091E707E0C3
:101F70002248006800F00C006168B0EB810FEDD1E1
:101F80001D48006800F00700A84209D91A490D70E1
:101F90000846006800F00700A84201D0012078E759
:101FA000207800F00400042807D11448006820F4C9
:101FB000E050E168084311490860207800F008000B
:101FC000082808D10D48006820F46040216940EAE3
:101FD000C1000A49086000F061F808490968C1F3C6
:101FE0000311074A515CC84006490860064800686A
:101FF000FFF760FE00204CE7003C0240083802403A
:10200000BC7B000818000020100000200F22026096
:102010000D4A126802F0030242600B4A126802F095
:10202000F0028260084A126802F4E052C260064A76
:10203000126802F46042D2080261044A126802F097
:1020400007020A607047000008380240003C024066
:1020500001480068704700001800002000B5FFF735
:10206000F7FF04490968C1F38221034A515CC84063
:1020700000BD000008380240CC7B000800B5FFF727
:10208000E7FF04490968C1F34231034A515CC84083
:1020900000BD000008380240CC7B00082DE9F04765
:1020A000002400250026A1462548006800F00C0009
:1020B00020B1042805D008283AD105E0DFF8849043
:1020C00039E0DFF8849036E01D48001F006800F01A
:1020D0003F041B48001F006800F4800078B11A48D4
:1020E0001749091F0968C1F38811A0FB0170014657
:1020F000224600233846FEF7C5F805460EE0114893
:102100000F49091F0968C1F38811A0FB017001463E
:10211000224600233846FEF7B5F805460848001F5A
:102120000068C0F30140401C4600B5FBF6F902E030
:10213000DFF8109000BF00BF4846BDE8F087000000
:10214000083802400024F400001BB700F8B504462C
:102150000CB90120F8BD207800F00100002874D0EF
:10216000F948006800F00C0004280DD0F64800681B
:1021700000F00C00082813D1F348001F006800F499
:102180008000B0F5800F0BD1EF4808380068C0F32D
:102190004040002859D06068002856D10120D9E776
:1021A00000BF6068B0F5803F08D1E7480838006894
:1021B00040F48030E449083908601EE06068B0F5FA
:1021C000A02F0DD1E0480838006840F48020DE4997
:1021D000083908600846006840F4803008600CE068
:1021E000D9480838006820F48030D7490839086099
:1021F0000846006820F48020086000BF606890B145
:10220000FFF728FD054606E0FFF724FD401B642884
:1022100001D903209EE7CC4808380068C0F340404D
:102220000028F1D011E0FFF715FD054606E0FFF7A5
:1022300011FD401B642801D903208BE7C2480838F0
:102240000068C0F340400028F1D1207800F002007F
:1022500002285FD1BC48006800F00C0058B1BA48B1
:10226000006800F00C0008281CD1B748001F006867
:1022700000F48000B0B9B44808380068C0F34000EA
:1022800020B1E068012801D0012063E7AE4808389A
:10229000006820F0F800216940EAC100AA49083925
:1022A000086037E0E06800B30120A8490860FFF744
:1022B000D1FC054606E0FFF7CDFC401B022801D902
:1022C000032047E7A04808380068C0F34000002812
:1022D000F1D09D480838006820F0F800216940EAF4
:1022E000C10099490839086014E000209749086046
:1022F000FFF7B0FC054606E0FFF7ACFC401B0228E8
:1023000001D9032026E7904808380068C0F3400050
:102310000028F1D1207800F0080008282CD160694D
:10232000A8B101208A490860FFF794FC054606E041
:10233000FFF790FC401B022801D903200AE78248DE
:102340006C300068C0F340000028F1D014E0002099
:102350007F490860FFF77EFC054606E0FFF77AFC40
:10236000401B022801D90320F4E677486C3000684E
:10237000C0F340000028F1D1207800F004000428C8
:1023800070D1002770483830006800F0805090B954
:1023900000BF002000906C483830006840F080504A
:1023A0006949383108600846006800F080500090A4
:1023B00000BF00BF01276748006800F48070B0B913
:1023C0006448006840F4807062490860FFF742FC8E
:1023D000054606E0FFF73EFC401B022801D903201A
:1023E000B8E65C48006800F480700028F2D000BFB6
:1023F000A068012808D154486830006840F0010006
:102400005149683108601DE0A06805280DD14E488B
:102410006830006840F004004B49683108600846A5
:10242000006840F0010008600CE047486830006830
:1024300020F001004449683108600846006820F037
:102440000400086000BFA068A8B1FFF703FC0546C0
:1024500009E0FFF7FFFB401B41F28831884202D9B7
:10246000032077E626E0384868300068C0F3400073
:102470000028EED013E0FFF7EDFB054608E0FFF77C
:10248000E9FB401B41F28831884201D9032061E613
:102490002D4868300068C0F340000028EFD1012FBC
:1024A00007D129483830006820F08050264938315B
:1024B000086000BFA069002845D02348006800F0EC
:1024C0000C0008285DD0A069022845D100201F49D2
:1024D0000866FFF7BFFB054606E0FFF7BBFB401BA6
:1024E000022801D9032035E6174808380068C0F3F0
:1024F00040600028F1D1D4E907010843616A40EA4D
:1025000081110122A06AC2EB500041EA00412C2057
:10251000005D41EA00600C49091F086001200B4979
:102520000866FFF797FB054606E0FFF793FB401BA5
:10253000022801D903200DE6034808380068C0F3DB
:1025400040600028F1D049E00838024000004742CE
:10255000800E474200700040002021490866FFF7C6
:1025600079FB054606E0FFF775FB401B022801D901
:102570000320EFE51B480068C0F340600028F2D15B
:102580002CE0A069012800D1E4E51648001D06688A
:10259000A069012820D006F48001E06981421BD1A6
:1025A00006F03F01206A814216D147F6C0703040E4
:1025B000616AB0EB811F0FD106F440310122A06A9D
:1025C000C2EB5000B1EB004F06D106F070612C2039
:1025D000005DB1EB006F01D00120BBE50020B9E543
:1025E00000004742003802407047704710B503466C
:1025F000002200BF93F83C00012801D1022010BD49
:10260000012083F83C0000BF22F0FF00CC6840EAC4
:10261000040222F440708C6840EA040222F48060D4
:102620004C6840EA040222F400600C6840EA0402AC
:1026300022F480500C6940EA040222F400504C69F4
:1026400040EA040222F48040CC6940EA040218689F
:10265000426400BF002083F83C0000BF00BFCEE70B
:1026600030B502460B4600BF92F83C00012801D16C
:10267000022030BD012082F83C0000BF022082F819
:102680003D00106844681068816824F07004186880
:10269000044310684460184D1068A8421BD01068AD
:1026A000B0F1804F17D0154D1068A84213D0144DCB
:1026B0001068A8420FD0134D1068A8420BD0124DDD
:1026C0001068A84207D0114D1068A84203D0104DE1
:1026D0001068A84205D121F08001586801431068B4
:1026E0008160012082F83D0000BF002082F83C009C
:1026F00000BF00BFBDE70000000001400004004033
:1027000000080040000C004000040140004001406F
:102710000018004010B504460CB9012010BD94F813
:102720003D0028B9002084F83C00204600F026F83F
:10273000022084F83D00211D206801F029FA0120C3
:1027400084F8460000BF84F83E0001213F20015577
:10275000402001554120015500BF00BF012084F8F1
:10276000420043200155442001554520015500BF3A
:10277000012084F83D000020D0E7000008B51F4A82
:10278000016891420FD100BF002100911C490968E6
:1027900041F001011A4A11601146096801F0010176
:1027A000009100BF29E0174A0168914211D100BF92
:1027B000002100911249091F096841F00801104ADF
:1027C000121F11601146096801F00801009100BF55
:1027D00013E00D4A016891420FD100BF0021009122
:1027E0000749096841F00201054A1160114609686C
:1027F00001F00201009100BF00BF08BD00000140D0
:1028000044380240000C004000040140014691F8A9
:102810003D00012801D001207047022081F83D00D1
:102820001A4B086898421BD00868B0F1804F17D047
:10283000174B0868984213D0164B086898420FD07F
:10284000154B086898420BD0144B0868984207D083
:10285000134B0868984203D0124B086898420CD179
:102860000868806800F00702062A0CD00868006833
:1028700040F001000B68186005E00868006840F04F
:1028800001000B6818600020C6E70000000001404E
:102890000004004000080040000C0040000401401B
:1028A0000040014000180040014691F83D00012819
:1028B00001D001207047022081F83D000868C068FF
:1028C00040F001000B68D8601A4B086898421BD092
:1028D0000868B0F1804F17D0174B0868984213D0A2
:1028E000164B086898420FD0154B086898420BD0D9
:1028F000144B0868984207D0134B0868984203D0DD
:10290000124B086898420CD10868806800F00702F2
:10291000062A0CD00868006840F001000B681860B7
:1029200005E00868006840F001000B6818600020AE
:10293000C0E7000000000140000400400008004023
:10294000000C00400004014000400140001800401D
:102950002DE9F04104460D46002700BF94F83C00E5
:10296000012802D10220BDE8F081012084F83C005A
:1029700000BF022084F83D002068866826F07706B4
:1029800026F47F46206886602868502833D00CDC07
:10299000202850D004DC00284BD0102851D149E029
:1029A000302849D040284CD139E060282DD07028FB
:1029B00007D0B0F5805F03D0B0F5005F41D10DE0E6
:1029C00041E0D5E902136A68206801F066F92068E1
:1029D000866846F077062068866034E0D5E9021301
:1029E0006A68206801F059F92068806840F48040E6
:1029F0002168886027E0EA686968206801F03EFA8B
:102A00005021206801F054F91DE0EA6869682068E7
:102A100001F047FA6021206801F04AF913E0EA6802
:102A20006968206801F02AFA4021206801F040F925
:102A300009E000BF00BF00BF2968206801F038F935
:102A400001E0012700BF00BF012084F83D0000BF66
:102A5000002084F83C0000BF384684E7704770B51A
:102A600004462068C5682068066906F0020002284E
:102A700019D105F00200022815D1401F2168086114
:102A8000012020772068806900F0030018B12046FB
:102A9000FFF7E4FF05E0204600F034F9204600F09F
:102AA000E8F90020207706F00400042819D105F089
:102AB0000400042815D1C043216808610220207752
:102AC0002068806900F4407018B12046FFF7C6FF07
:102AD00005E0204600F016F9204600F0CAF9002073
:102AE000207706F00800082819D105F0080008280A
:102AF00015D1C04321680861042020772068C0698F
:102B000000F0030018B12046FFF7A8FF05E02046BB
:102B100000F0F8F8204600F0ACF90020207706F02D
:102B20001000102819D105F01000102815D1C0434D
:102B300021680861082020772068C06900F440708F
:102B400018B12046FFF78AFF05E0204600F0DAF8CA
:102B5000204600F08EF90020207706F0010048B1F1
:102B600005F0010030B16FF00100216808612046D6
:102B700000F006FA06F08000802809D105F08000F8
:102B8000802805D1C043216808612046FFF72CFD4D
:102B900006F04000402809D105F04000402805D14A
:102BA000C04321680861204600F0F6F906F02000D5
:102BB000202809D105F02000202805D1C043216834
:102BC00008612046FFF711FD70BD000010B586B00A
:102BD0000446142101A8FDF79FFB42492068884262
:102BE0001ED100BF002000903F48006840F0100058
:102BF0003D4908600846006800F01000009000BFE2
:102C000000BF4FF4D44001900220029000200390B6
:102C100004900120059001A93448FEF721FF5FE0F0
:102C20003349206888421ED100BF002000902E4802
:102C3000006840F080002C4908600846006800F0F9
:102C40008000009000BF00BF4FF4E05001900220D0
:102C500002900020039004900220059001A92548CD
:102C6000FEF7FEFE3CE024492068884238D100BFD0
:102C7000002000901C48006840F480701A490860E9
:102C80000846006800F48070009000BF00BF00BFDD
:102C9000002000900846006840F0040008600846E4
:102CA000006800F00400009000BF00BF40200190C9
:102CB000022002900020039004900320059001A9B7
:102CC0000E48FEF7CDFE4020019002200290002029
:102CD000039004900320059001A90948FEF7C0FE67
:102CE00006B010BD00000140303802400010024024
:102CF000000C0040001C0240000401400020024083
:102D00000008024070472DE9F04104460D46164682
:102D1000002700BF94F83C00012802D10220BDE842
:102D2000F081012084F83C0000BF36B1042E1BD096
:102D3000082E31D00C2E5ED145E02946206800F0E7
:102D4000C1FF2068806940F0080021688861206820
:102D5000806920F004002168886120688069296901
:102D600008432168886148E02946206800F0E2FFB6
:102D70002068806940F4006021688861206880696B
:102D800020F480602168886120688069296940EAB0
:102D900001202168886130E02946206801F008F8A8
:102DA0002068C06940F008002168C8612068C069D7
:102DB00020F004002168C8612068C06929690843BF
:102DC0002168C86119E02946206801F02DF82068C3
:102DD000C06940F400602168C8612068C06920F4BF
:102DE00080602168C8612068C069296940EA0120C3
:102DF0002168C86101E0012700BF00BF00BF0020BB
:102E000084F83C0000BF384689E710B504460CB989
:102E1000012010BD94F83D0028B9002084F83C0042
:102E2000204600F025F8022084F83D00211D20688E
:102E300000F0AEFE012084F8460000BF84F83E009A
:102E400001213F200155402001554120015500BF7F
:102E500000BF012084F84200432001554420015561
:102E60004520015500BF012084F83D000020D0E737
:102E70007047704770B504460D4615B994F83E008A
:102E80000BE0042D02D13F20005D06E0082D02D1A9
:102E90004020005D01E04120005D012801D00120BB
:102EA00070BD1DB9022084F83E000EE0042D03D150
:102EB00002213F20015508E0082D03D102214020C6
:102EC000015502E0022141200155012229462068D6
:102ED00000F0D2FE23492068884203D022492068AE
:102EE000884201D1012000E0002028B12068406C18
:102EF00040F40040216848641A49206888421BD089
:102F00002068B0F1804F17D018492068884213D04C
:102F10001749206888420FD01649206888420BD094
:102F200011492068884207D013492068884203D09D
:102F30001249206888420CD12068806800F007069A
:102F4000062E0CD02068006840F00100216808605F
:102F500005E02068006840F001002168086000205A
:102F60009EE7000000000140000401400004004012
:102F700000080040000C00400040014000180040E4
:102F800010B5044603492068884201D1FEF768FE67
:102F900010BD000000140040704710B504460CB985
:102FA000012010BDA06900B100E000BF94F841000D
:102FB00028B9002084F84000204600F029F8242099
:102FC00084F841002068C06820F400502168C8607F
:102FD000204600F0CFFF2068006920F4904021686F
:102FE00008612068406920F02A0021684861206853
:102FF000C06840F400502168C86000206064202050
:1030000084F8410084F842000020606300BFC8E7F4
:1030100010B586B00446142101A8FDF77DF92A49B0
:10302000206888424DD100BF0020009027480068EA
:1030300040F01000254908600846006800F01000C4
:10304000009000BF00BF00BF002000901F48143850
:10305000006840F002001D49143908600846006805
:1030600000F00200009000BF00BF00BF00200090F1
:103070000846006840F0010008600846006800F05B
:103080000100009000BF00BF80200190022002904C
:1030900000200390032004900720059001A90C480C
:1030A000FEF7DEFC4FF40070019002200290002039
:1030B0000390032004900720059001A90548FEF71E
:1030C000CFFC06B010BD00000010014044380240A3
:1030D000000402400000024000BFFEE7F0EE401A8C
:1030E000B0EE002A81EE020A31EEE02AB4EEC20A06
:1030F000F1EE10FA02D231EEC10A7047B1EE412A68
:10310000F0EE002A82EE220A31EEE02AB4EEC20A84
:10311000F1EE10FA02DD31EE810AEEE7B0EE610A5F
:10312000EBE700002DE9F0472DED068B8AB08246D3
:103130000C46B0EE40AAB0EE608AF0EE418AB0EEE6
:10314000619AF0EE429A01940020039004900820C6
:1031500005901020B2EE091AFAEE090AB0EE4A0AFA
:1031600003F022FA85B20C209FED2A1ADFED2A0A1D
:10317000B0EE480A03F018FA86B20C209FED271A29
:10318000DFED270AB0EE680A03F00EFA87B20C20D2
:10319000B1EE041ADFED220AB0EE490A03F004FA98
:1031A0001FFA80F80C20B3EE021AFBEE020AB0EE12
:1031B000690A03F0F9F91FFA80F928128DF8200046
:1031C000E8B28DF82100C6F307108DF82200300711
:1031D000000E40EA27208DF82300F8B28DF8240075
:1031E000C8F307108DF825004FEA0870000E40EA7A
:1031F00029208DF8260009F0FF008DF8270007AB85
:1032000008AA01A95046FDF780FF0AB0BDEC068B65
:10321000BDE8F08700003442000034C20000FA43E9
:103220000000000010B50E480E49086003204860F9
:1032300000210C488160C1604FF4102101614FF4FE
:10324000001141610021017641768176C1760177D6
:103250004177FEF783FA08B1FDF76AFE10BD000062
:10326000006800408803002000B595B01C22124978
:103270000EA8FDF738F800210EA803F0F1F90F4968
:1032800008601C220C491C3107A8FDF72CF800210E
:1032900007A803F0E5F90A4908601C2206493831FD
:1032A0006846FDF720F80021684603F0D9F9054982
:1032B000086015B000BD0000687B00080000002019
:1032C000040000200800002000B587B0142102A8E7
:1032D000FDF722F800BF002001903B48006840F055
:1032E0000200394908600846006800F002000190B9
:1032F00000BF00BF00BF002001900846006840F0FA
:10330000010008600846006800F00100019000BF5D
:1033100000BF00BF002001900846006840F0080090
:1033200008600846006800F00800019000BF00BF78
:1033300000BF002001900846006840F480700860DB
:103340000846006800F48070019000BF00BF00BF15
:10335000002001900846006840F0800008600846A0
:10336000006800F08000019000BF00BF00BF002097
:1033700001900846006840F00400086008460068B4
:1033800000F00400019000BF00BF00BF00200190CA
:103390000846006840F0100008600846006800F029
:1033A0001000019000BF00BF032002900220039094
:1033B00000200490032005900920069002A90348EC
:1033C000FEF74EFB07B000BD30380240000C024053
:1033D00000B595B0002011901290139014900F90AA
:1033E00010901C2108A8FCF797FF20216846FCF7E5
:1033F00093FF374837490860A720486000213548C7
:10340000816044F61F61C1600021016141618161F9
:10341000FFF780F908B1FDF78BFD4FF48050119054
:1034200011A92C48FFF794FA08B1FDF781FD29484E
:10343000FFF7EBFC08B1FDF77BFD00200F9010902B
:103440000FA92448FFF70CF908B1FDF771FD6020C2
:103450000890002009900A900B900C900D900E900F
:10346000002208A91B48FFF74EFC08B1FDF760FDDC
:10347000042208A91748FFF746FC08B1FDF758FDDC
:10348000082208A91348FFF73EFC08B1FDF750FDDC
:103490000C2208A90F48FFF736FC08B1FDF748FDDC
:1034A0000020009001900290039004904FF400508F
:1034B00005900020079069460648FFF797F808B185
:1034C000FDF736FD0348FFF781FB15B000BD000096
:1034D00000000140B003002000B58DB0002009902D
:1034E0000A900B900C90079008901C216846FCF7FE
:1034F00013FF28482849086000204860002126481A
:1035000081604FF6FF71C160002101618161FFF7A9
:1035100001F908B1FDF70CFD4FF48050099009A99D
:103520001D48FFF715FA08B1FDF702FD1A48FFF72D
:103530006CFC08B1FDF7FCFC00200790089007A97F
:103540001548FFF78DF808B1FDF7F2FC60200090F8
:103550000020019002900490002269460E48FFF777
:10356000D2FB08B1FDF7E4FC042269460A48FFF7E4
:10357000CAFB08B1FDF7DCFC082269460648FFF7E4
:10358000C2FB08B1FDF7D4FC0348FFF71FFB0DB0E9
:1035900000BD0000000C0040F803002000B595B00D
:1035A000002011901290139014900F9010901C21F5
:1035B00008A8FCF7B1FE20216846FCF7ADFE2F48B5
:1035C0002F490860A720486000212D48816044F6FB
:1035D0001F61C1600021016141618161FFF79AF8BB
:1035E00008B1FDF7A5FC4FF48050119011A92448B3
:1035F000FFF7AEF908B1FDF79BFC2148FFF705FC8A
:1036000008B1FDF795FC00200F9010900FA91C4801
:10361000FFF726F808B1FDF78BFC6020089000202A
:1036200009900A900B900C900D900E90002208A922
:103630001348FFF768FB08B1FDF77AFC042208A9DC
:103640000F48FFF760FB08B1FDF772FC0020009007
:1036500001900290039004904FF4005005900020D8
:10366000079069460648FEF7C1FF08B1FDF760FC08
:103670000348FFF7ABFA15B000BD0000000401409D
:103680004004002010B50B480B4908604FF4E130AE
:103690004860002108488160C16001610C214161DE
:1036A00000218161C161FFF778FC08B1FDF740FCA2
:1036B00010BD0000001001408804002000BFFEE79C
:1036C00000BFFEE7B0EE401A10B99FED790A7047CF
:1036D00090ED100A80ED110A90ED0F0A80ED100AAE
:1036E000C0ED060A80ED071A30EEC10A80ED0F0A20
:1036F0000178002975D190ED010AD0ED0F1A20EE66
:10370000210A80ED090A90ED0A0AD0ED021A90ED27
:103710000F2A01EE820A80ED0A0A90ED0D0A80ED73
:103720000E0A90ED0C0A80ED0D0A90ED0F0AD0ED17
:10373000101A30EE610A80ED0C0A90ED030AD0ED0C
:103740000C1A20EE210A80ED0B0A90ED0A0AD0ED4A
:10375000051AB4EEE10AF1EE10FA04DD90ED050A67
:1037600080ED0A0A10E090ED0A0AD0ED051AF1EE9C
:10377000611AB4EEE10AF1EE10FA05D290ED050AF5
:10378000B1EE400A80ED0A0A90ED090AD0ED0A1A5E
:1037900030EE210AD0ED0B1A30EE210A80ED080A36
:1037A00090ED080AD0ED041AB4EEE10AF1EE10FA39
:1037B00004DD90ED040A80ED080A76E090ED080A39
:1037C000D0ED041AF1EE611AB4EEE10AF1EE10FA4E
:1037D0006BD290ED040AB1EE400A80ED080A64E075
:1037E000FFE70178012960D190ED0F0AD0ED101AA2
:1037F00030EE610AD0ED011A20EE210A80ED090AAF
:1038000090ED020AD0ED0F1A20EE210A80ED0A0A8F
:1038100090ED0D0A80ED0E0A90ED0C0A80ED0D0A78
:1038200090ED0F0AD0ED101AB0EE002A02EE610AF8
:10383000D0ED111A30EE210A80ED0C0A90ED030A4A
:10384000D0ED0C1A20EE210A80ED0B0A90ED090A4A
:10385000D0ED0A1A30EE210AD0ED0B1A30EE210A13
:10386000D0ED081A30EE210A80ED080A90ED080A22
:10387000D0ED041AB4EEE10AF1EE10FA04DD90ED99
:10388000040A80ED080A10E090ED080AD0ED041A51
:10389000F1EE611AB4EEE10AF1EE10FA05D290ED04
:1038A000040AB1EE400A80ED080A90ED080A0EE71E
:1038B0000000000000B102B97047017092ED001ADB
:1038C00080ED011A92ED011A80ED021A92ED021AB2
:1038D00080ED031A80ED040AC0ED050A9FED0C1A75
:1038E00080ED0E1A80ED0D1A80ED0C1A9FED081A6E
:1038F00080ED081A80ED0B1A80ED0A1A80ED091A86
:1039000080ED111A80ED101A80ED0F1A00BFD3E779
:103910000000000000B50146084600F02FF8BCEE9C
:10392000C00A10EE100A024A1268506300BD00007F
:10393000B003002010B50F48FEF768FF0E48FEF7F1
:1039400065FF00210B48FFF795FA04210948FFF7AE
:1039500091FA08210748FFF78DFA0C210548FFF777
:1039600089FA00210448FFF785FA04210248FFF78D
:1039700081FA10BDB003002040040020DFED150ADD
:10398000B0EE600A00EE900AF8EEE00ADFED121ADF
:1039900080EEA11ADFED110ADFED111A41EE810A66
:1039A000B0EE600ADFED0F0AB4EEE00AF1EE10FAB5
:1039B00003D2DFED0C0AB0EE600ADFED0B0AB4EEC5
:1039C000E00AF1EE10FA03DDDFED070AB0EE600A5F
:1039D00070470000000000000000344300002F4446
:1039E0000000FA440000FA430000E14410B5044628
:1039F0001E48006803F086FD1D48006803F082FD44
:103A0000FFF798FF02F096FDFDF7EAF8FDF72CF9B5
:103A100002F0E4FD4FF47A7003F02CFC00BF0121AA
:103A20001448FDF75FFA02211248FDF75BFA012006
:103A300002F005FE104800680028F0D00F4800682A
:103A40000028ECD0142003F015FC0848006803F0AF
:103A5000B9FC142003F00EFC0548006803F0B2FC2A
:103A60000748006803F034FC10BD0000040000208B
:103A70000800002088030020384200206042002017
:103A80000000002010B500BF502080F31188BFF364
:103A90004F8FBFF36F8F00BF03F040FF18B14FF09F
:103AA00080500449086000BF002080F3118800BFE7
:103AB00010BD000004ED00E000B593B0302107A870
:103AC000FCF72AFC142102A8FCF726FC00BF00200A
:103AD00001902448006840F0805022490860084660
:103AE000006800F08050019000BF00BF00BF0020C0
:103AF00001901D48006840F480401B49086008465A
:103B0000006800F48040019000BF00BF01200790D2
:103B10000004089002200D9041050E9106210F919E
:103B2000A8211091022111910421129107A8FEF7FA
:103B30000DFB08B1FDF7FCF90F2002900220039065
:103B4000002004904FF4A05005904FF48050069050
:103B5000052102A8FEF798F908B1FDF7E9F913B0BD
:103B600000BD00004038024000700040034800687B
:103B700040F47000014908607047000088ED00E0E3
:103B800010B50248FEF76BFF10BD0000D004002006
:103B900010B502682D4B98420ED0B0F1804F0BD07B
:103BA0002B4B984208D02B4B984205D02A4B984279
:103BB00002D02A4B984203D122F070024B681A437C
:103BC000224B984220D0B0F1804F1DD0204B98421C
:103BD0001AD0204B984217D01F4B984214D01F4B3D
:103BE000984211D01E4B98420ED01E4B98420BD0DB
:103BF0001D4B984208D01D4B984205D01C4B984253
:103C000002D01C4B984203D122F44072CB681A4375
:103C100022F080034C6943EA040202608B68C362AD
:103C20000B688362094B984202D00C4B984201D139
:103C30000B69036301234361036903F001031BB1B3
:103C4000036923F00103036110BD0000000001407F
:103C50000004004000080040000C00400004014047
:103C6000004001400044014000480140001800406D
:103C7000001C00400020004030B501F01F05012469
:103C800004FA05F3046A9C430462046A01F01F0508
:103C900002FA05F52C43046230BD30B50C4681684C
:103CA00021F47F4142EA032525432943816030BD49
:103CB0000A46816821F0700142F0070319438160D0
:103CC0007047000030B5026A056A25F001050562FB
:103CD0004368846924F0700424F003040D682C43C5
:103CE00022F002028D682A43104DA84200D103E061
:103CF0000F4DA84206D100BF22F00802CD682A432A
:103D000022F00402094DA84202D0094DA84207D171
:103D100023F4807323F400734D692B438D692B4387
:103D2000436084614D684563026230BD000001401C
:103D30000004014030B5026A056A25F010050562ED
:103D40004368846924F4E04424F440740D6844EA30
:103D5000052422F020028D6842EA0512124DA84285
:103D600000D103E0114DA84207D100BF22F080022C
:103D7000CD6842EA051222F040020B4DA84202D063
:103D80000A4DA84209D123F4806323F400634D69EE
:103D900043EA85038D6943EA8503436084614D6886
:103DA0008563026230BD0000000001400004014054
:103DB00030B5026A056A25F4807505624368C469F6
:103DC00024F0700424F003040D682C4322F40072E4
:103DD0008D6842EA0522124DA84200D103E0114D40
:103DE000A84207D100BF22F40062CD6842EA052252
:103DF00022F480620A4DA84202D00A4DA84209D19D
:103E000023F4805323F400534D6943EA05138D696D
:103E100043EA05134360C4614D68C563026230BD67
:103E2000000001400004014030B5036A056A25F432
:103E3000805505624468C26922F4E04222F440726F
:103E40000D6842EA052223F400538D6843EA0533E6
:103E5000084DA84202D0084DA84204D124F4804461
:103E60004D6944EA85144460C2614D68056403628B
:103E700030BD0000000001400004014030B50B4699
:103E80001446026A056A25F001050562816921F080
:103E9000F00141EA041122F00A021A438161026230
:103EA00030BD30B50B461446026A056A25F0100590
:103EB0000562816921F4704141EA043122F0A002D7
:103EC00042EA03128161026230BD00003BE01E48FD
:103ED0000068012818D19FED1D0A1D4880ED000AD9
:103EE0009FED1C0A1C4880ED000A9FED1C0A1C482F
:103EF00080ED000A0A20FFF70DFD40F6B83002F011
:103F00009EFB002010490860164890ED000A1048FA
:103F100080ED000A144890ED000A0F4880ED000A79
:103F2000124890ED000A0E4880ED000A104890ED0E
:103F3000000ABDEEC00A10EE100A00B2FFF7EAFC5C
:103F4000012002F07CFBC2E7940000200000184230
:103F5000180100200000CC411C010020000020427C
:103F60002001002084000020880000208C00002018
:103F7000900000202DE9F84F04462068006920F4E5
:103F80004050E1680843216808612169A06808433E
:103F900061690843E169084300902068C06849F2FC
:103FA0000C618843009908432168C8602068406913
:103FB00020F44070A169084321684861764920686F
:103FC000884203D075492068884203D1FEF756F82D
:103FD000814602E0FEF742F88146E069B0F5004F05
:103FE0006CD102206168A0FB015003461920A9FB97
:103FF000007001462A463846FCF744F96421B0FBBC
:10400000F1F04FEA001A02206168A0FB01510B4653
:104010001920A9FB00712A463846FCF733F983467C
:1040200002206168A0FB015003461920A9FB007122
:104030002A463846FCF726F96421B0FBF1F000EB84
:10404000C00101EB0010ABEB8000322101EBC0009E
:104050006421B0FBF1F000F0F8000AEB400A022006
:104060006168A0FB015003461920A9FB00700146BE
:104070002A463846FCF706F9834602206168A0FB11
:10408000015003461920A9FB00712A463846FCF767
:10409000F9F86421B0FBF1F000EBC00101EB001076
:1040A000ABEB8000322101EBC0006421B0FBF1F0EA
:1040B00000F007005044216888606AE004206168CD
:1040C000A0FB015003461920A9FB007001462A46B7
:1040D0003846FCF7D7F8824604206168A0FB0150FF
:1040E00003461920A9FB007001462A463846FCF712
:1040F000C9F86421B0FBF1F000EBC00101EB001046
:10410000AAEB8000322101EB00106421B0FBF1F03A
:1041100000F0F00A04206168A0FB0170034619203A
:10412000A9FB00513A462846FCF7ACF86421B0FBE5
:10413000F1F00AEB001A04206168A0FB01510B4664
:104140001920A9FB00712A463846FCF79BF88346E4
:1041500004206168A0FB015003461920A9FB0070F0
:1041600001462A463846FCF78DF86421B0FBF1F091
:1041700000EBC00101EB0010ABEB8000322101EB42
:1041800000106421B0FBF1F000F00F0050442168F2
:104190008860BDE8F88F0000001001400014014065
:1041A00000BFFEE703B401984100009850EAC12027
:1041B00018BF04204A0D18BF40F0010040F2FF7202
:1041C000B2EB515F08BF40F00200012808BF052094
:1041D00002B0704702480068C0F302207047000038
:1041E0000CED00E010B5002804DB0A07130E054AA9
:1041F000135406E00A07140E034A00F00F031B1FB6
:10420000D45410BD00E400E018ED00E00000000010
:1042100010B5B94A2DED020B2DED0C8B82B00F9924
:1042200021F000409FEDB6CB90422CDBA0F1405333
:104230000E9AA3F17F631A430FD0B349884202DC80
:1042400016D10E98A0B19DED0E0B02B0BDEC0C8BFB
:1042500002B0BDE8104001F0EFBD0029C1BF9FEDE5
:10426000AC0B02B0BDEC0C8B02B0C8BF10BD16E0A9
:10427000012001F035FE02B0BDEC0C8B02B0BDE8B0
:10428000104001F0EDBDA44A9FEDA59B9FEDA6ABAC
:1042900090425EDAA6499FEDA8CB814208DBB0EEE2
:1042A0004C0AF0EE6C0A02B0BDEC0C8B02B010BDF3
:1042B0009DED0E0B53EC102B51EC100BFCF7DEF8C0
:1042C00041EC180B9E480621B0EE480AF0EE680A51
:1042D000784401F085FC53EC182B51EC100BFCF7E3
:1042E000CDF841EC1B0B9748B0EE480AF0EE680A97
:1042F0000421784401F074FC53EC182B51EC100BA2
:10430000FCF7BCF853EC192BFCF711F841EC100B3F
:1043100051EC1B0B53EC102BFCF722F941EC100B6A
:1043200053EC102B9DED0E0B51EC100BFCF7A6F887
:1043300053EC1A2BFCF79FF89DED0E1B53EC112B41
:10434000FCF799F853EC1C2BFCF795F841EC100B9B
:10435000A9E79FED7D8B9FED7EBB9DED0E0B0029A8
:1043600053EC192B51EC100B52DAFBF7E0FF53EC36
:10437000182BFCF783F841EC180B77480621B0EEB8
:10438000480AF0EE680A784401F02AFC53EC182B36
:1043900051EC100BFCF772F841EC1D0B6F48B0EEBE
:1043A000480AF0EE680A0421784401F019FC53EC45
:1043B000182B51EC100BFCF761F853EC192BFBF7A1
:1043C000B6FF41EC190B51EC180B02F05BFD41EC10
:1043D000180B53EC192B51EC1D0BFCF7C1F853ECE7
:1043E000182BFCF74BF853EC1A2BFCF741F841EC77
:1043F000100B51EC180B53EC102BFBF798FF53EC00
:104400001B2BFCF73BF853EC1C2BFCF734F86DE04E
:10441000FCF731F853EC182BFCF730F841EC180B93
:1044200002F030FD41EC1A0B00208DED00AB009046
:104430009DED000B51EC1A0B53EC102BFBF777FFA3
:104440009DED000B41EC1C0B53EC102B51EC100BB1
:10445000FCF714F853EC182BFCF70DF853EC1C2B5D
:10446000FCF77EF841EC1C0B3D48B0EE480AF0EE3C
:10447000680A0621784401F0B3FB53EC182B51EC89
:10448000100BFBF7FBFF41EC1D0B3648B0EE480A62
:10449000F0EE680A0421784401F0A2FB53EC182BDB
:1044A00051EC100BFBF7EAFF53EC192BFBF73FFF26
:1044B00041EC100B51EC1D0B53EC102BFCF750F89A
:1044C00053EC1A2BFBF7DAFF53EC1C2BFBF72FFFF7
:1044D00041EC100B53EC102B9DED000B51EC100B2D
:1044E000FBF725FF53EC1B2BFBF7C8FF41EC100B30
:1044F000D9E60000000000000000F03F00000000CE
:10450000182D4454FB2109400000F07F00000000FA
:1045100000000000000000000000E03F000000007C
:10452000000000000000F03F075C143326A6913C19
:104530000000603C00000000182D4454FB21F93FAE
:104540000439000012390000000000000000E03FC4
:1045500000000000000000404E3800005C38000001
:10456000603700006E37000070B59B482DED020BE0
:104570002DED068B079D25F00044A04218DC9748DE
:10458000844202DC0AD1069840B19DED060BBDECD9
:10459000068B02B0BDE8704001F04EBC002DCCBFD0
:1045A0009FED8F0B9FED900BBDEC068B02B070BDA5
:1045B0008F48A04215DD8F48A042D8BF4FF0FF348E
:1045C00058DD9DED060B51EC100BFFF7EBFD0428B9
:1045D00008BF01F065FC9DED060BBDEC068B02B03B
:1045E00070BD9DED060B51EC100B01F0D1FFCDE934
:1045F000060181489FED828BA0423CDD8248A042AB
:104600001FDD00249FED82AB9DED060B53EC1A2BB2
:1046100051EC100BFBF78BFE9DED060B41EC190BDB
:1046200053EC1A2B51EC100BFBF728FF53EC182B13
:10463000FBF71EFF53EC192BFBF792FFCDE90601A8
:1046400049E09DED060B012453EC182B51EC100BA7
:10465000FBF76DFE9DED060B41EC190B53EC182B8F
:1046600051EC100BFBF704FF53EC192BFBF778FF11
:10467000CDE906012FE06848A0421FDD02249FED2E
:10468000689B9DED060B53EC192B51EC100BFBF7BF
:10469000F5FE53EC182BFBF74AFE9DED060B41ECA3
:1046A000180B53EC192B51EC100BFBF7E1FE53ECFC
:1046B000182BFBF755FFCDE906010CE09DED060B2D
:1046C000032453EC102B9FED580B51EC100BFBF710
:1046D00047FFCDE906019DED060B53EC102B51EC85
:1046E000100BFBF7CBFE41EC180B53EC182BFBF730
:1046F000C5FE41EC190B4E480621B0EE490AF0EE1A
:10470000690A784401F06CFA53EC182B51EC100B49
:10471000FBF7B4FE41EC180B4648B0EE490AF0EE48
:10472000690A0521784401F05BFA53EC192B51EC2E
:10473000100BFBF7A3FE41EC100B51EC180B53ECE4
:10474000102B002C0EDAFBF7F2FD9DED061B53EC4F
:10475000112BFBF793FE9DED061B53EC112BFBF782
:104760008AFE35E0FBF7E3FD9DED061B53EC112BB4
:10477000FBF784FE41EC100B2F48784400EBC4009B
:1047800090ED001B51EC100B53EC112BFBF770FE5E
:104790009DED061B53EC112BFBF76AFE41EC100B51
:1047A0002648784400EBC40090ED001B51EC100B40
:1047B00053EC112BFBF75FFE41EC100B002DA2BF59
:1047C000BDEC068B02B070BD51EC100B81F00041C6
:1047D00041EC100B01E70000000010440000F07FE6
:1047E000182D4454FB21F93F182D4454FB21F9BFE7
:1047F0000000DC3F0000203E0000F33F000000000E
:10480000000000000000F03F0000E63F0000000054
:104810000000000000000040008003400000000095
:10482000000000000000F83F000000000000F0BFA2
:104830008A35000040350000CA3400008234000090
:1048400010B52F499FED2C1B2DED020B84B0059860
:1048500020F000408842D8BF9DED040B2DDD294992
:10486000884209D1049840B94FF0010001F038FBAB
:1048700001F0F6FA06B010BD05DB9DED040B01F06A
:10488000DBFA06B010BD68469DED040B00F0D4FEC7
:1048900010F0030004BF9DED021B9DED000B0CD03A
:1048A00001280ED09DED021B9DED000B022817D0B4
:1048B000012001F011FA06B010BD01F0D9F806B0E0
:1048C00010BD9DED021B9DED000B012001F004FACF
:1048D00051EC100B81F0004106B041EC100B10BD03
:1048E00001F0C6F851EC100B81F0004106B041EC2C
:1048F000100B10BD000000000000000000000000D0
:10490000FB21E93F0000F07F2DED020B019820F024
:10491000004001909DED000B02B0704700000000C8
:104920002DE9F04D2DED040B2DED0E8B96B0DDE94C
:104930002550279CDDF890A025F0004624F0004883
:10494000BAF1000F14BF0121002101EB4502FC491F
:1049500053184A1093422AD3002814BF012300237E
:1049600003EB44030B44F7498B4220D358EA000180
:104970009FEDF59B76D0DFF8D8B35D4503D1BAF152
:10498000000F05D188E0BAF1000F08BF002100D068
:10499000012101EB450111F5001F08D8002814BFC3
:1049A0000121002101EB440111F5001F0BD99DED00
:1049B000261B9DED240B16B0BDEC0E8B04B0BDE89C
:1049C000F04D01F043BA0027002DBCBFE1498845F6
:1049D00021DAE1498845A8BF02271CDAC3451ADC61
:1049E000DE4901EB2851142908DDC1F1340220FA17
:1049F00002F101FA02F282420DD108E058B9C1F188
:104A0000140228FA02F101FA02F2424503D101F040
:104A10000101C1F1020756EA0A0124D1002C22DA71
:104A2000002D18BF022F01D0012F0AD0022001F063
:104A300057FA16B0BDEC0E8B04B0BDE8F04D01F096
:104A4000E3B9022001F04CFA01F0DEF951EC100B51
:104A500081F0004141EC100B16B0BDEC0E8B04B0A0
:104A6000BDE8F08D18E09FEDBEAB9FEDBF8B002839
:104A700071D1B848804522D105F1804010F58010F1
:104A800008BFBAF1000F07D0B3450ADC002CA8BF5D
:104A90009DED260BE0DA0DE0B0EE490AF0EE690A72
:104AA000DAE7002C06DA9DED260B51EC100B81F0B5
:104AB00000416FE0AE48784490ED000BCCE7D8455C
:104AC0004DD1002C48DA2EB186423AD1BAF1000F0E
:104AD00042D126E0BAF1000F13D0022001F000FA13
:104AE00001F0CEF98DED020B9DED240B8DED000B49
:104AF00010EE900A039961F31E0003909DED020BE6
:104B0000AAE78DED02AB9DED240B1AEE901A10EE84
:104B1000900A8DED000B61F31E0003909DED020BDA
:104B20009AE78DED028B9DED240B18EE901A10EE96
:104B3000900A8DED000B61F31E0003909DED020BBA
:104B40008AE709DA9DED240B51EC190B53EC102B7D
:104B5000FBF706FD1EE020E09DED240B7CE786427E
:104B60001BDAB4F1804F0DD0A4F10050B0F1FF502A
:104B700013D1002D11DB9DED240B51EC100B02F035
:104B800081F907E09DED240B53EC102B51EC100B39
:104B900000F0C2BC41EC100B5EE79DED240B51EC24
:104BA000100B01F0F5FCBAF1000FCDE90E0142D176
:104BB0009FED710B46B3A6F1E040B0F17F600CD0E1
:104BC0005E4538D1002D00DAA7B3022F0CBF0120BB
:104BD0004FF0FF30FBF76EFEDCE7002D01DD002C0F
:104BE0000DDA002D01DD002C1FDB002D16DA002C64
:104BF00014DB012F08BF9FED620B3FF42DAFB0EE29
:104C00004A0AF0EE6A0A27E7022F18BF002D0CD0DF
:104C1000012F0AD1002DFFF61FAF06E0002DB8BF0F
:104C2000002C08DA012F3FF417AFB0EE480AF0EE7F
:104C3000680A11E71BE0012000EBE57050EA07016C
:104C400015D0791EB0EE498AF0EE698A084308BF94
:104C50009FED4D8B4E480025804570DD4D494E48F7
:104C6000884514DDB0420DDB002C19DB2FE001205C
:104C700001F036F916B0BDEC0E8B04B0BDE8F04D76
:104C800001F0EEB8B34502DC002C09DC1FE08642DF
:104C900002DA002C1BDA03E05E452BDD002C16DD6A
:104CA000022001F01DF901F0EBF88DED020B53EC41
:104CB0001A2B51EC180BFBF7E1FBCDE9000103992E
:104CC000019861F31E0003909DED020BC4E60220E3
:104CD00001F006F901F0E4F810EE901A18EE900ACF
:104CE0008DED020B8DED008B61F31E0003909DEDA9
:104CF000020BB1E69DED0E0B53EC192B51EC100B92
:104D0000FBF7B6FB9FED260BCDE9080153EC102B0A
:104D10009DED080B51EC100BFBF7B0FB9FED221B38
:104D200053EC112BFBF7A7FB9DED081B53EC112B4C
:104D3000FBF7A4FB9FED1E1B53EC112B3CE08CE01A
:104D4000FFFF1F00FFFF0F00000000000000F03F0A
:104D50000000F03F0000F07F0000404301FCFFFF37
:104D6000000000000000F07F0000000000000000D4
:104D7000BE320000000000000000000000000080C3
:104D8000000000000000F0FF000000000000F0BF85
:104D90000000E0410000F043FFFFEF3F0000000093
:104DA000000000000000D03F555555555555D53FE2
:104DB000000000000000E03FFBF75DFB9DED080BED
:104DC00041EC1A0B53EC102B51EC100BFBF756FB7C
:104DD00053EC1A2BFBF752FB41EC1A0B9FEDFE0B29
:104DE00053EC102B9DED080B51EC100BFBF746FB21
:104DF00041EC1B0B9FEDFA0B51EC1A0B53EC102BF3
:104E0000FBF73CFB41EC1A0B9FEDF70B53EC102B1F
:104E10009DED080B51EC100BFBF730FB53EC1A2BFC
:104E2000FBF726FB41EC1A0B51EC1B0B53EC1A2B36
:104E3000FBF77DFA0690CDE906519DED060B53EC8C
:104E40001B2B51EC100BFBF713FB53EC1A2BFBF74E
:104E500012FB41EC100B00F0A1B90020B6F5801F49
:104E60000EDA9FEDE30B53EC102B9DED0E0B51EC86
:104E7000100BFBF703FBCDE90E016FF034000E467B
:104E800000EB2650A0F2FF37C6F31300DA4940F0DA
:104E90007F6646F040568842D8BF002408DDD749D7
:104EA0008142C8BF012403DC0024A6F580167F1CC4
:104EB000D348784400EBC4000F9690ED00CB9DEDF5
:104EC0000E0B53EC1C2B51EC100BFBF7D1FA9DEDA4
:104ED0000E0B41EC1B0B53EC1C2B51EC100BFBF796
:104EE00026FA41EC100B51EC190B53EC102BFBF78D
:104EF00037FB41EC1D0B51EC1B0B53EC1D2BFBF74F
:104F0000BDFA41EC1A0BBF488DED10AB78441095FB
:104F100090ED000B4FF0005040EA660000EB84403B
:104F20008DED080B00F5002009909DED080B53EC6A
:104F30001C2B51EC100BFBF79BFA9DED0E1B53EC59
:104F4000112BFBF798FA41EC100B53EC102B9DED55
:104F5000100B51EC100BFBF791FA9DED080B41EC97
:104F60001C0B53EC102B9DED100B51EC100BFBF7B1
:104F700085FA53EC1B2BFBF77EFA53EC1C2BFBF74B
:104F800077FA53EC1D2BFBF779FA41EC1C0B53EC31
:104F90001A2B51EC1A0BFBF771FA41EC1B0B9A48D8
:104FA0000621B0EE4B0AF0EE6B0A784400F018FED2
:104FB000B0EE401AF0EE601AB0EE41DAF0EE61DACF
:104FC00053EC1B2B51EC1B0BFBF758FA53EC1D2B2E
:104FD000FBF754FA9DED100B41EC1B0B53EC1A2B15
:104FE00051EC100BFBF7A3F953EC1C2BFBF746FA23
:104FF00053EC1B2BFBF79BF99DED100B41EC1B0BAE
:1050000053EC102B51EC100BFBF738FA41EC1D0B55
:105010009FED7FEB53EC1E2BFBF789F953EC1B2B19
:10502000FBF785F90890CDE908519DED080B53EC8D
:105030001E2B51EC100BFBF71BFA53EC1D2BFBF74F
:1050400017FA53EC1B2BFBF716FA9DED080B41ECFE
:105050001D0B53EC102B9DED100B51EC100BFBF7BF
:105060000DFA41EC1B0B53EC1A2B51EC1D0BFBF70B
:1050700005FA9DED080B41EC1A0B53EC102B51EC8B
:105080001C0BFBF7FBF953EC1A2BFBF750F941EC27
:105090001A0B51EC1B0B53EC1A2BFBF748F90C9035
:1050A000CDE90C519DED0C0B53EC1B2B51EC100B6F
:1050B000FBF7DEF953EC1A2BFBF7DDF941EC1B0B88
:1050C0009FED550B53EC102B9DED0C0B51EC100B81
:1050D000FBF7D4F941EC1A0B9FED510B51EC1B0B74
:1050E00053EC102BFBF7CAF941EC1B0B9FED4E0B59
:1050F00053EC102B9DED0C0B51EC100BFBF7BEF994
:1051000053EC1B2BFBF713F941EC100B4848784488
:1051100000EBC40090ED001B51EC100B53EC112B75
:10512000FBF705F941EC1B0B3846FBF7C3FBCDE958
:10513000080153EC1B2B51EC1A0BFBF7F8F841EC70
:10514000100B3C48784400EBC40090ED00CB51ECD0
:10515000100B53EC1C2BFBF7EAF89DED081B53ECEE
:10516000112BFBF7E4F80690CDE906519DED080BF5
:1051700053EC102B9DED060B51EC100BFBF778F95F
:1051800053EC1C2BFBF774F953EC1A2BFBF770F95B
:1051900053EC1B2BFBF76FF941EC100B9DED261B1D
:1051A00053EC102B8DED001B00959DED260B51EC63
:1051B000100BFBF763F99DED000B41EC1A0B53EC60
:1051C000102B9DED260B51EC100BFBF751F99DEDCB
:1051D000061B53EC112B2FE0000000604715F73F32
:1051E000FE822B654715F73F44DF5DF80BAE543E5A
:1051F00000000000000040438E9803007AB60B00C8
:105200000A2E0000682E0000422D00000000000061
:105210000000000000000840000000E009C7EE3F69
:10522000FD033ADC09C7EE3FF5015B14E02F3EBEFB
:10523000CE2B0000882B0000FBF720F953EC1A2B33
:10524000FBF775F89DED060B41EC1A0B53EC102B98
:105250009DED000B51EC100BFBF710F9CDE90C01A3
:105260009DED0C0B51EC1A0B53EC102BFBF75FF878
:10527000CDE902010C46AA498C422FDB611A084392
:1052800018D19DED0C0B53EC102B9DED020B51EC46
:10529000100BFBF7EDF841EC1B0B9FEDA30B51EC52
:1052A0001A0B53EC102BFBF742F853EC1B2BFBF7BC
:1052B000F1F92DD2022000F013FE00F0E1FD10EE16
:1052C000901A18EE900A8DED020B8DED008B61F3B4
:1052D0001E0003909DED020BFFF7BEBB944A24F025
:1052E0000041914214D39349214408437FF4EFAC29
:1052F0009DED0C0B53EC102B9DED020B51EC100BA4
:10530000FBF7B6F853EC1A2BFBF7C4F97FF6DFACCA
:1053100024F000408849894A002601EB205182424E
:105320002BDA481C4FF4801121FA00F02044844A03
:10533000C0F30A517A44A1F2FF3192ED000B814A89
:105340008DED080BCA4020EA0202C0F3130040F4BE
:105350008010C1F1140120FA01F60992002CB8BFA7
:1053600076429DED080B53EC102B9DED0C0B51EC90
:10537000100BFBF77DF8CDE90C019DED0C0B51EC0A
:105380001A0B53EC102BFAF7D2FF9FED6F0B08901E
:10539000CDE9085153EC102B9DED080B51EC100B8F
:1053A000FBF76CF841EC1B0B9FED690B53EC102BDA
:1053B0009DED080B51EC100BFBF760F89DED0C0B0D
:1053C00041EC1C0B53EC102B9DED080B51EC100B1A
:1053D000FBF74EF853EC1A2BFBF74DF89FED5E1BD5
:1053E00053EC112BFBF74AF853EC1C2BFAF79FFFF9
:1053F00041EC1A0B51EC1B0B53EC1A2BFAF797FFED
:10540000CDE902019DED020B53EC1B2B51EC100B6F
:10541000FBF72EF853EC1A2BFBF72DF89DED020B42
:1054200041EC1A0B53EC102B51EC100BFBF726F848
:10543000CDE908014A489DED080B0521784400F0AC
:10544000CFFB9DED081B51EC100B53EC112BFBF720
:1054500015F89DED021B53EC112BFBF70CF8CDE971
:1054600006019DED020B53EC1A2B51EC100BFBF7D0
:1054700005F853EC1A2BFAF75AFF9FED3B0B41EC62
:105480001A0B53EC102B9DED060B51EC100BFAF799
:10549000EFFF9DED060B41EC1B0B53EC102B9DED2C
:1054A000020B51EC100BFAF7E9FF53EC1B2BFBF747
:1054B00057F853EC1A2BFAF7DBFF9DED021B53EC68
:1054C000112BFAF7D5FF53EC192BFAF7D4FFCDE9DE
:1054D000020101EB065001150029C8BF039015DC3D
:1054E0009DED020B324651EC100BFBF7CCF9FEF7A9
:1054F00059FE042808BF00F0D3FC32469DED020B94
:1055000051EC100BFBF7BFF9CDE902019DED020B49
:1055100051EC180B53EC102BFAF7B0FFFFF73ABB26
:105520000000904000000000FE822B654715973C6C
:1055300000CC904000346F3F01FCFFFF0000E03FD3
:10554000402A0000FFFF0F0000000000432EE63F4E
:10555000396CA80C615C20BEEF39FAFE422EE63FA2
:10556000E0280000000000000000000000000040F3
:1055700010B52F499FED2C1B2DED020B84B0059823
:1055800020F000408842DCBF00209DED040B32DD9E
:105590002849884209D1049840B94FF0010000F031
:1055A0009FFC00F05DFC06B010BD05DB9DED040B1B
:1055B00000F042FC06B010BD68469DED040B00F003
:1055C0003BF810F0030011D0012818D09DED021B0C
:1055D0009DED000B02281AD000F04AFA51EC100B96
:1055E00081F0004106B041EC100B10BD9DED021B97
:1055F0009DED000B012000F06FFB06B010BD9DED8E
:10560000021B9DED000B00F033FA06B010BD012027
:1056100000F062FB51EC100B81F0004106B041EC50
:10562000100B10BD00000000000000000000000092
:10563000FB21E93F0000F07F2DE9F14F04462DEDFD
:10564000020B2DED088B8AB09FEDE70B80ED020B6E
:10565000139EE74826F0004585420ADC9DED120BBB
:10566000002084ED000B0AB0BDEC088B03B0BDE850
:10567000F08FE0489FEDE0AB9FEDE1BBA84247DD36
:10568000E14F9FEDE39B9FEDE48B9DED120B53ECFF
:105690001A2B51EC100B002E1CDDFAF7E9FE41EC41
:1056A000100BBD4208D053EC1B2B51EC100BFAF73A
:1056B000DFFEC4E900010BE053EC192B51EC100B99
:1056C000FAF7D6FE53EC182BFAF7D2FEC4E9000124
:1056D0000120C8E7FAF72BFE41EC100BBD4208D0C1
:1056E00053EC1B2B51EC100BFAF721FEC4E900011F
:1056F0000BE053EC192B51EC100BFAF718FE53EC9E
:10570000182BFAF714FEC4E900014FF0FF30AAE7A6
:10571000C348A84279DB9DED120B51EC100B00F051
:1057200037FF41EC180B9FEDC00B53EC102BFAF731
:10573000A5FE9FEDBF1B53EC112BFAF7F8FDFBF70D
:105740003BF90746FBF7B6F841EC190B53EC1A2B63
:10575000FAF794FE53EC182BFAF78DFE41EC180B78
:1057600053EC1B2B51EC190BFAF788FEDFF8C8A29B
:1057700041EC100B4FEA15580125FA4453EC102B5D
:1057800051EC180BFAF774FE032DC4E900013DD06B
:10579000C1F30A5005EB4511A8EB00001139814215
:1057A00034DA0AEB051BB0EE48AA9BED000BF0EED5
:1057B00068AA53EC102B51EC190BFAF75FFE41EC81
:1057C0001B0B51EC1A0B53EC1B2BFAF751FE41EC5F
:1057D000180B51EC1A0B53EC182BFAF749FE53EC4B
:1057E0001B2BFAF745FE9BED020B41EC1A0B53EC19
:1057F000102B51EC190BFAF741FE53EC1A2BFAF768
:1058000037FE41EC100B6D1CB8E70EE0002EA8BF70
:105810003846BFF628AF94ED000B51EC100B81F029
:105820000041C4E9000178421DE7C6F3130040F4CB
:10583000801EC6F30A50A0F2F530471100F01F0594
:10584000C5F12000DDF848B00890002006900790D0
:105850000520EC467949002D07EB0002794408BF8A
:1058600051F8221009D051F8223001EB8201AB40EF
:105870004A68089922FA01F11943A1FB0E26A1FBFF
:105880000B131A449A4234BF0123002303EB06088A
:105890000CEB8003D3E901A60E448E4234BF0121F4
:1058A000002192448A4411B1924502D903E0924505
:1058B00001D2012100E00021C3E901A641444CF8D6
:1058C0002010011EA0F10100C4DC029800F100507C
:1058D000850F0298DDE903678000DDF81480FAF790
:1058E000E9FF41EC1A0B3046FBF759F89FED541BCA
:1058F00053EC112BFAF7C2FD41EC1B0B3846FBF7BA
:105900004EF89FED511B53EC112BFAF7B7FD41EC0C
:10591000180B4046FBF743F89FED4D1B53EC112B42
:10592000FAF7ACFD41EC190B51EC180B53EC192BA9
:10593000FAF7FDFC53EC1B2BFAF7F9FC53EC1A2B8E
:10594000FAF7F5FCCDE90801002008909DED080B61
:1059500053EC1A2B51EC100BFAF78AFD53EC1B2B6E
:10596000FAF786FD53EC182BFAF782FD53EC192B4E
:10597000FAF781FD9FED381B53EC112BFAF77EFDF2
:105980009FED370B41EC180B53EC102B9DED080BE2
:1059900051EC100BFAF772FD53EC182BFAF7C7FC19
:1059A0009FED310B41EC180B53EC102B9DED080BC8
:1059B00051EC100BFAF762FD53EC182BFAF7B7FC19
:1059C00041EC100B139810F0004F06D06D4251ECD3
:1059D000100B81F0004141EC100B284684ED000BC8
:1059E00041E6000000000000000000000000000090
:1059F000FB21E93F7CD9024000004054FB21F93FE4
:105A00003163621A61B4D03DFB21F93F0000000010
:105A10000000601A61B4D03D7370032E8A19A33B55
:105A2000FB2139410000000083C8C96D305FE43FAD
:105A3000000000000000E03F0226000050250000AA
:105A4000000000000000103E000000000000103CBC
:105A5000000000000000103A182D4454FB21F93DCD
:105A60003326A611460B113C00000054FB21F93DE2
:105A700010B52DED040B2DED088B82B0B0EE419AE0
:105A8000F0EE619A0B9820F000449FED4BABB4F11F
:105A9000795F11DA9DED0A0B51EC100BFAF78CFFD0
:105AA000002801BFB0EE4A0AF0EE6A0A02B0BDEC6F
:105AB000088B04BF04B010BD9DED0A0B53EC102BF6
:105AC00051EC100BFAF7DAFC41EC180B3C480621BC
:105AD000B0EE480AF0EE680A784400F081F853EC22
