:020000040800F2
:100000007851002029030008B7540008BF460008B3
:10001000B5540008CF0D00080D780008000000005E
:10002000000000000000000000000000690200085D
:100030006515000800000000C50200089571000861
:100040004303000843030008430300084303000878
:100050004303000843030008671500084303000832
:10006000430300086D1500087315000843030008DA
:1000700043030008CD0F00084303000843030008B2
:100080004303000843030008430300084303000838
:10009000D10D000843030008430300087915000848
:1000A0004303000843030008430300084303000818
:1000B0004303000843030008430300084303000808
:1000C000430300084303000843030008417000088D
:1000D00043030008F57700084303000843030008C2
:1000E00043030008430300084303000843030008D8
:1000F000430300084303000843030008D90F000826
:1001000043030008430300084303000843030008B7
:100110004303000843030008430300086572000816
:100120004303000843030008E50F0008B514000866
:100130004303000843030008430300084303000887
:100140004303000843030008430300084303000877
:100150004303000843030008430300080178000834
:100160004303000843030008430300084303000857
:100170004303000843030008430300080000000095
:10018000430300084303000800F002F800F05CF8A5
:100190000AA090E8000C82448344AAF10107DA45E2
:1001A00001D100F051F8AFF2090EBAE80F0013F0D8
:1001B000010F18BFFB1A43F00103184764AE00009B
:1001C00084AE00000A444FF0000C10F8013B13F01D
:1001D000070408BF10F8014B1D1108BF10F8015BA0
:1001E000641E05D010F8016B641E01F8016BF9D193
:1001F00013F0080F1EBF10F8014BAD1C0C1B09D1EA
:100200006D1E58BF01F801CBFAD505E014F8016B5B
:1002100001F8016B6D1EF9D59142D6D370470000ED
:100220000023002400250026103A28BF78C1FBD8FF
:10023000520728BF30C148BF0B6070471FB50AF096
:1002400036FA1FBD10B510BD00F0BEF91146FFF71C
:10025000F5FF09F00FF800F0DCF903B4FFF7F2FF47
:1002600003BC00F0DFF900002C4B19680868B0E807
:10027000F04F80F30988BFF36F8F4FF0000080F3D9
:10028000118870470000000008480068006880F38B
:1002900008884FF0000080F3148862B661B6BFF39F
:1002A0004F8FBFF36F8F00DF00BF00BF08ED00E08E
:1002B000DFF80C00016841F470010160704700BF75
:1002C00088ED00E0EFF30980BFF36F8F134B1A68DE
:1002D0001EF0100F08BF20ED108A20E9F04F1060CB
:1002E00009B44FF0500080F31188BFF34F8FBFF374
:1002F0006F8F09F03DFE4FF0000080F3118809BCBC
:1003000019680868B0E8F04F1EF0100F08BFB0EC95
:10031000108A80F30988BFF36F8F70472400002094
:10032000EFF30580704700000948804709480047FF
:10033000FEE7FEE7FEE7FEE7FEE7FEE7FEE7FEE795
:10034000FEE7FEE704480549054A064B70470000F2
:100350005572000889010008784B00207851002070
:10036000784D0020784D002053EA020C00F069809F
:100370002DE9F04B4FF00006002B1FBFB3FA83F5B9
:1003800003FA05F424FA05F65E4012BF1643B2FAEA
:1003900082F502FA05F4C5F120051EBF22FA05FC1C
:1003A00044EA0C04203556EA044C4FEA144418BFC2
:1003B000641C4FF000084FF00009904271EB030CF1
:1003C00039D3002919BFB1FA81F701FA07F6B0FA5B
:1003D00080F700FA07F6C7F120071EBF20FA07FCD6
:1003E00046EA0C062037B6FBF4FCA7EB0507103FE6
:1003F00007F01F0BCBF120060CFA0BFB2CFA06F6CC
:1004000044BFB3460026202FA4BF5E464FF0000B2A
:100410005BEA060C08BF4FF0010B19EB0B09ABFBB5
:10042000027C48EB0608C01B06FB02CC0BFB03CC8E
:1004300071EB0C01C1E70B46024641464846BDE858
:10044000F08B13B54FF000004FF00001AFF30080C8
:10045000BDE81C40704710B5431C02E010F8011BBA
:1004600071B18107FAD14FF0013202C88C1A8C4366
:1004700014EAC211F9D0C01A0A0603D0C01E10BD7A
:10048000C01A10BD0A0401D0801E10BD0902FCD0A4
:10049000401E10BD10B5203AC0F00B80B1E81850D6
:1004A000203AA0E81850B1E81850A0E81850BFF45E
:1004B000F5AF5FEA027C24BFB1E81850A0E81850FD
:1004C00044BF18C918C0BDE810405FEA827C24BF51
:1004D00051F8043B40F8043B08BF7047D20728BFDF
:1004E00031F8023B48BF11F8012B28BF20F8023B2E
:1004F00048BF00F8012B704702F0FF0343EA0322D4
:1005000042EA024200F002B84FF000020429C0F0B3
:10051000128010F0030C00F01B80CCF1040CBCF135
:10052000020F18BF00F8012BA8BF20F8022BA1EB87
:100530000C0100F00DB85FEAC17C24BF00F8012B6C
:1005400000F8012B48BF00F8012B70474FF0000264
:1005500000B5134694469646203922BFA0E80C50B9
:10056000A0E80C50B1F12001BFF4F7AF090728BF94
:10057000A0E80C5048BF0CC05DF804EB890028BF10
:1005800040F8042B08BF704748BF20F8022B11F039
:10059000804F18BF00F8012B7047704770477047B5
:1005A00010B500F009F8006810BD10B5044600F061
:1005B00003F8046010BD000000487047144B002091
:1005C00000487047144B00207546FFF7F9FFAE4610
:1005D00005006946534620F00700854618B020B54F
:1005E000FFF7B0FEBDE820404FF000064FF00007D7
:1005F0004FF000084FF0000B21F00701AC46ACE8CB
:10060000C009ACE8C009ACE8C009ACE8C0098D4637
:10061000704710B50446AFF300802046BDE8104097
:10062000FFF71BBE01491820ABBEFEE72600020003
:10063000704707F00FB907F0A3B907F06BBDF0EEF4
:10064000400AF5EEC00AF1EE10FA02DDB0EE600AE3
:100650007047B1EE600AFBE7002803D09FED020A65
:1006600080ED000A7047000000000000002803D061
:10067000B3EE060A80ED000A7047000070B52DED5C
:100680000C8B84B006460C4615469FED990AF0EE99
:10069000408A9FED970AB0EE409A9FED950AF0EEE2
:1006A00040BA9FED930AF0EE409A9FED910AB0EEAA
:1006B00040AA0EB104B11DB904B0BDEC0C8B70BDE5
:1006C0008C48FFF7C9FF8C48FFF7D0FF8A48D0ED70
:1006D000000A9FED8A1A60EE810AB0EE600A00F00F
:1006E00025F9F0EE408A28EEA80AF0EE408A82480A
:1006F000D0ED000AB0EE001A60EE810A9FED7F1A7D
:1007000060EE810AB0EE600A00F010F9B0EE409A97
:1007100029EE090AB0EE409ADFED790AB7EE000A39
:1007200000EEA80ADFED770A00EEC90ADFED760ACF
:1007300020EE200A754880ED000A6E4890ED000A10
:10074000DFED730A80EE201AB7EE000A31EE000AE0
:1007500020EE000A6D48D0ED000A80EE801A6D4848
:1007600080ED001A94ED000AB5EEC00AF1EE10FA21
:100770000DD194ED010AB5EEC00AF1EE10FA06D1E2
:1007800094ED020AB5EEC00AF1EE10FA46D09FEDE4
:10079000580AB0EE408A0020019002900390D4EDF8
:1007A000000A60EEA00A94ED011AD4ED011A41EEA0
:1007B000210A94ED021AD4ED021A41EE210AB0EE9C
:1007C000600A00F0A9F8B0EE408A94ED000A20EE2D
:1007D000080A8DED010A94ED010A20EE080A8DED5C
:1007E000020A94ED020A20EE080A8DED030ADDEDFF
:1007F000010AF1EE600AB0EE600AFFF71AFFF0EEB0
:10080000409A9DED031AF0EE410A9DED021AB0EEFA
:10081000410AFFF710FFB0EE40AA07E09FED340A4F
:10082000F0EE409A9FED320AB0EE40AA95ED000A34
:10083000B5EEC00AF1EE10FA0DD195ED010AB5EE54
:10084000C00AF1EE10FA06D195ED020AB5EEC00A23
:10085000F1EE10FA3CD0B0EE690A00F067F8B0EEA5
:10086000408AB0EE690AFFF7E8FEB0EE40DAB0EE7B
:100870004A0A00F05BF8F0EE40AAB0EE4A0AFFF731
:10088000DCFEB0EE40BA28EE2A0AD5ED010A20EED1
:10089000200AD5ED000A0DEE200A68EE0B0A95ED50
:1008A000021A00EE810AB0EE40CA95ED010A20EE70
:1008B0000B0AD5ED020A0AEEE00AF0EE40CAF0EEAD
:1008C0006C0AB0EE4C0AFFF7B6FEF0EE40BA03E059
:1008D0009FED070AF0EE40BAB0EE4A1AF0EE690A50
:1008E000B0EE6B0A304607F05FFB00BFE4E60000A5
:1008F00000000000B8010020BC01002035FA8E3C49
:10090000C1BFAD3B9DF8C5362F7C1C41C001002006
:10091000506CC24AC401002010B507F063F9B7EE6D
:10092000001AC1EE000AB0EE600A10BD07F036BC36
:100930002DE9F0412DED028B9AB00546B0EE408ACC
:100940000E4617469846002017901890199014905C
:10095000159016904DB146B13FB1B8F1000F04D0DB
:10096000B5EEC08AF1EE10FA05D100201AB0BDEC48
:10097000028BBDE8F08196ED000A8DED170A96ED29
:10098000010A8DED180A96ED020A8DED190A97ED10
:10099000000A8DED140A97ED010A8DED150A97ED09
:1009A000020A8DED160A17AA14A9284607F04EF977
:1009B000402104A8FFF7CAFD00200090019002909A
:1009C0000390002417A904A809F0D0F800BF30E074
:1009D00004A800EB041090ED000AD5ED000A20EE0B
:1009E000200A04A800EB0410D0ED010A95ED011ACD
:1009F00000EE810A04A800EB0410D0ED020A95ED88
:100A0000021A00EE810A04A800EB0410D0ED030ADC
:100A100095ED031A00EE810A20EE080AF0EE000AB6
:100A200080EE201A684600EB840080ED001A601CFE
:100A3000C4B2042CCCDB002410E005EB840090ED64
:100A4000000A684600EB8400D0ED000A30EE200A70
:100A500005EB840080ED000A601CC4B2042CECDBC2
:100A6000284608F0ABFF012080E70000012210219A
:100A7000014801F0ABBC0000000002400022102140
:100A8000014801F0A3BC00000000024070470000D4
:100A900001221146014801F099BC00000004024007
:100AA00000220121014801F091BC00000004024035
:100AB00030B5437804781B021BB2234300EE103A92
:100AC0001B4CB8EEC00AD4ED000A20EE200A81EDDE
:100AD000000AC37885781B021BB22B4300EE103A44
:100AE000F8EEC00A94ED000A60EE800AC1ED010A3A
:100AF000437904791B021BB2234300EE903AF8EECF
:100B0000E00A20EE800A81ED020A017AC379090425
:100B1000807941EA0321014300EE101ADFED050A56
:100B2000B8EE400A20EE200A82ED000A30BD000037
:100B30007401002000401C42704708F073BC08F0AC
:100B400001B9000010B542780378120212B21A43BC
:100B500000EE102A124BB8EEC00AD3ED010A20EEC7
:100B6000200A81ED000AC2788478120212B2224370
:100B700000EE102AF8EEC00A93ED010A60EE800A3A
:100B8000C1ED010A42790079120212B2024300EE6D
:100B9000902AF8EEE00A20EE800A81ED020A10BDEC
:100BA0007401002010B5FFF771FFFFF7C5FF07F0D4
:100BB000C5FB08B1802402E007F032FB044607F0D1
:100BC00083FD10B144F0400010BD07F00FFD20433D
:100BD00010BD00002DE9FC4104460D4616460020DC
:100BE00000900190FFF74AFF922000F0BFF8062224
:100BF0006946122000F09CF8FFF738FF9DF80100CD
:100C00009DF80010000200B2084300EE100A474FA2
:100C1000B8EEC00AD7ED000A20EE200A85ED000AE2
:100C20009DF803009DF80210000200B2084300EE98
:100C3000100AF8EEC00A97ED000A60EE800AC5EDD2
:100C4000010A9DF805009DF80410000200B2084357
:100C500000EE900AF8EEE00A20EE800A85ED020A26
:100C6000FFF71EFF08226946002000F061F8FFF739
:100C70000FFF9DF800000F2830D19DF803009DF86C
:100C80000210000200B2084300EE100AD7ED010A7C
:100C9000B8EEC00A20EE200A84ED000A9DF8050097
:100CA0009DF80410000200B2084300EE100AF8EEAE
:100CB000C00A97ED010A60EE800AC4ED010A9DF8B2
:100CC00007009DF80610000200B2084300EE900AEB
:100CD000F8EEE00A20EE800A84ED020AFFF7CEFE6D
:100CE000A22000F043F802226946222000F020F8FA
:100CF000FFF7BCFE9DF800009DF80110C00040EA1F
:100D00005110B0F5806F02DBA0F5006000B200EE7C
:100D1000100AB4EE001AF8EEC00AB3EE070A00EEAD
:100D2000810A86ED000ABDE8FC8100007401002004
:100D300070B50D46144640F0800000F017F806E04C
:100D4000552000F013F805F8010B641EE4B2002CE6
:100D5000F6D170BD10B50C4640F0800000F006F8EA
:100D6000552000F003F8207010BD000001B582B0DE
:100D70004FF47A700090012301AA02A9024802F000
:100D8000CDFD9DF804000EBDAC0500200278407832
:100D9000D20042EA5010B0F5806F02DBA0F500608F
:100DA00000B200EE100AB4EE001AF8EEC00AB3EE7C
:100DB000070A00EE810A81ED000A704710B50C4663
:100DC000FFF7D4FF2046BDE81040FFF7CFBFFEE796
:100DD000014800F089BD00001C04002038B50E4C0D
:100DE0004FF4007525600025A560E56008252561A4
:100DF0000A4C050A25706070080AA070E170100A9C
:100E000020716271180AA071E3716B462246024993
:100E1000034800F0E5FB38BDF04A0020A1010020A6
:100E20001C0400202DED028B84B04FF00008CDF89B
:100E30000080CDF80480CDF80880CDF80C805148B2
:100E400007F004FE504C02E0012008F0EBFA207895
:100E50000028F9D0DFED4D8A01274D4C4D4E494D0C
:100E6000DFF8349185E09FED4D0A84ED020A4C498C
:100E7000D5F85403884203DB022089F8000037705C
:100E800099F80000022803D19FED460A84ED000A7C
:100E9000032803D19FED440A84ED000A04280BD1F6
:100EA0009FED420A84ED020A4149D5F85403884275
:100EB00002DD052089F8000099F80000052808D116
:100EC000C4ED018A3B480078012802D1062089F848
:100ED000000099F80000062803D1C4ED018AC4ED92
:100EE000008A07280CD19FED340A84ED020A3349A9
:100EF000D5F85403884203DD3770082089F80000D4
:100F0000204894ED021AD4ED010A94ED000A07F08E
:100F10002FFE307801281CD1294807709FED298ABF
:100F200084ED008A84ED018A95EDD00AF0EE480A3E
:100F3000254804F0C1FA85EDD60A234895EDD10A7B
:100F4000F0EE480A483004F0B7FA85EDD70A86F883
:100F500000800C4807F03AFCB5F96030B5F948203C
:100F6000B5F93010B5F91800FFF738FF012008F087
:100F700059FA044807F0A6FC99F8000001287FF40C
:100F80007FAF70E7D4440020B20100209A99993FC6
:100F90008C000020B1010020B00100200000B4420C
:100FA0000000B4429A99193E9A9919BE0000344340
:100FB00000003443B4010020000087430000874351
:100FC000B30100200000000058460020014800F056
:100FD00073BF0000EC040020014800F06DBF00006A
:100FE0004C05002010B500F007F8BDE8104001489E
:100FF00000F062BF040600202DE9F05FFA48FB4ACA
:10100000FA4DC06CFA4EF94F0068DFF8E4C3DFF820
:10101000DC83DFF8DC93DFF8D4A3DFF8D4B3DFF8A8
:10102000CCE3F34C483D60361837D1140CF1180C62
:10103000A8F1300809F178090AF1300A0BF1300BF8
:10104000AEF1180E90423ED9E84A543A1368A042D5
:1010500001D1202235E0A84201D1202231E0B04266
:1010600001D120222DE0B84201D1202229E06045A3
:1010700001D10A4625E0404501D10A4621E0484514
:1010800001D10A461DE0504501D10A4619E05845F4
:1010900002D14FF4001214E0704502D14FF4001257
:1010A0000FE0D34A9032904202D14FF4001208E090
:1010B000CE4A4832904202D14FF4001201E04FF084
:1010C00000621340C3E0CA4AA83290423ED9C74AE0
:1010D000583A1368A04201D1202235E0A84201D13C
:1010E000202231E0B04201D120222DE0B84201D1CE
:1010F000202229E0604501D10A4625E0404501D182
:101100000A4621E0484501D10A461DE0504501D17B
:101110000A4619E0584502D14FF4001214E0704518
:1011200002D14FF400120FE0B14A9032904202D146
:101130004FF4001208E0AD4A4832904202D14FF419
:10114000001201E04FF00062134080E0A84A4832EC
:1011500090423ED9A64A103A5368A04201D12022BB
:1011600035E0A84201D1202231E0B04201D1202255
:101170002DE0B84201D1202229E0604501D10A4684
:1011800025E0404501D10A4621E0484501D10A4603
:101190001DE0504501D10A4619E0584502D14FF4EF
:1011A000001214E0704502D14FF400120FE0904A93
:1011B0009032904202D14FF4001208E08B4A48323C
:1011C000904202D14FF4001201E04FF00062134050
:1011D0003DE0874A103A1368A04201D1202235E051
:1011E000A84201D1202231E0B04201D120222DE0DD
:1011F000B84201D1202229E0604501D10A4625E00C
:10120000404501D10A4621E0484501D10A461DE08A
:10121000504501D10A4619E0584502D14FF4001259
:1012200014E0704502D14FF400120FE0704A903282
:10123000904202D14FF4001208E06C4A48329042CA
:1012400002D14FF4001201E04FF000621340002B76
:1012500072D0664A904235D9A04201D120212DE0BA
:10126000A84201D1202129E0B04201D1202125E06E
:10127000B84201D1202121E060451FD040451DD05A
:1012800048451BD0504519D0584502D14FF40011A4
:1012900014E0704502D14FF400110FE05449903131
:1012A000884202D14FF4001108E050494831884289
:1012B00002D14FF4001101E04FF000614B484C386F
:1012C0000160ADE04A4AA832904236D9A04201D12D
:1012D00020212DE0A84201D1202129E0B04201D1F6
:1012E000202125E0B84201D1202121E060451FD016
:1012F00040451DD048451BD0504519D0584502D116
:101300004FF4001114E0704502D14FF400110FE0CA
:1013100037499031884202D14FF4001108E0334937
:101320004831884202D14FF4001101E04FF00061D2
:101330002E485038016073E0AEE02D4A48329042AA
:1013400035D9A04201D120212DE0A84201D1202190
:1013500029E0B04201D1202125E0B84201D120216D
:1013600021E060451FD040451DD048451BD0504569
:1013700019D0584502D14FF4001114E0704502D144
:101380004FF400110FE01A499031884202D14FF416
:10139000001108E015494831884202D14FF400118C
:1013A00001E04FF0006112481038C16038E0A042FF
:1013B00001D1202131E0A84201D120212DE0B0420D
:1013C00001D1202129E0B84201D1202125E060454A
:1013D00023D0404521D048451FD050451DD0584509
:1013E00008D14FF4001118E0AC0500205864024009
:1013F00010600240704502D14FF400110DE0274902
:10140000884202D14FF4001107E02549884202D1F9
:101410004FF4001101E04FF000612048A0388160D6
:10142000204C207880070CD5207820F00200207016
:10143000207840F004002070012211461A4800F084
:10144000C5FF6078194D80070CD5607820F0020048
:101450006070607840F0040060700122102128461E
:1014600000F0B4FFA07880070CD5A07820F002002F
:10147000A070A07840F00400A0700122102128463E
:1014800000F0A4FF07F0B0FD2078400704D508481D
:10149000016841F001010160BDE8F09FA0600240D9
:1014A000A0640240980000200004024000000240B6
:1014B000103C0140014800F0FFBC00006406002021
:1014C0000168CAB2103A1823B2FBF3F2064B9B5CD8
:1014D000C3656FF30901032A02D9091D816500E084
:1014E0008165806D7047000050A7000810B5014667
:1014F00000208A6A8B694FF0C074002B0ED0B3F5C0
:10150000005F1AD062B3012A2AD0022A28D0032A07
:1015100003D1C96AC90100D5012010BD1AB1012A41
:1015200006D0022AF9D1C96AC901F6D5012010BD39
:10153000C96AA142FBD1012010BD52B1012A0AD0D3
:10154000022A06D0032AF7D1C96AA142F4D10120A8
:1015500010BD012010BDC96AC901FBD5012010BD15
:10156000012010BD7047012000F03CBE082000F0B3
:1015700039BE102000F036BE202000F033BE72B617
:10158000FEE700000B4C02E0012007F04BFF207843
:101590000028F9D00025084C01262846A57007F040
:1015A0006DFC3046A67007F069FC012007F03AFF99
:1015B000F3E70000B20100203C01002090F8202059
:1015C000012A07D0022A05D0416A41F480214162F4
:1015D00001207047006842690A4342610020704759
:1015E000F0B590F820500468A468012D07D0022DB2
:1015F00005D0416A41F4802141620120F0BD04F030
:10160000806504F00066354301D1E50053D5C4F38D
:1016100001640125A5401D608B684FF4C0759BB126
:10162000CE6805EB041733434E6843EAC6030668E9
:10163000F3514FF4C273076803EB04130E69FE50B5
:10164000097D012909D00DE00E88CB6805EB041750
:1016500043EA46530668F351EBE70168CE5846F477
:101660008076CE501179D379567941EA0361937926
:101670001B0443EA062319434FF4C676036806EBBE
:10168000041699511178D37841EA0361937852781E
:101690001B0443EA022211434FF4C473026803EBB4
:1016A0000413D150006805EB0411425842F00102C6
:1016B00042500020F0BD416A41F400114162012016
:1016C000F0BD000010B590F82020012A07D0022AB2
:1016D00005D0416A41F480214162012010BD3C489F
:1016E00000F50070026842F001020260026822F414
:1016F0007C52026002684B6A42EA032202600A7D61
:1017000002F01F0301229A40C3699343C361A0F50D
:101710000070CB69B3B9D0F80C329343C0F80C32E7
:101720008C894B6864F31F434C6900EBC404C4F814
:1017300040320C890B6864F31F434C6900EBC4040E
:10174000C4F84432CB69012B16D1D0F80C321343C4
:10175000C0F80C320C884B6864F31F434C6900EBF3
:10176000C404C4F840320C89CB6864F31F434C694D
:1017700000EBC404C4F844328B697BB1D0F8043266
:101780001343C0F804320B6973B1D0F81432134319
:10179000C0F81432096A01290CD010E0D0F80432E4
:1017A0009343C0F80432EEE7D0F814329343C0F804
:1017B0001432EFE7D0F81C121143C0F81C12D0F815
:1017C000001221F00101C0F80012002010BD00003D
:1017D00000640040704770B590F82040012C07D09D
:1017E000022C05D0416A41F480214162012070BD84
:1017F00021B104682469A4072AD003E00468E468DE
:10180000A4071FD04FF4D874056804EB01142D59B8
:1018100005F0040595600DB305682D59ED08556078
:1018200005682C5904F00204D4604FF4DA7405689A
:1018300004EB01142E5906F00F06082E13D30825C9
:10184000156114E0416A41F400114162012070BD4C
:10185000416A41F400114162012070BD05682D59B3
:101860006D0D1560DCE72D5905F00F051561056854
:101870002D59C5F30725956105682C59240C546131
:101880004FF4DC72046802EB0112A4581C70046867
:10189000A458240A5C700468A458240C9C70046842
:1018A000A258120EDA704FF4DE72046802EB0112D5
:1018B000A4581C710468A458240A5C710468A458D4
:1018C000240C9C710468A258120EDA7131B10068C0
:1018D000016941F020010161002070BD0068C1680C
:1018E00041F02001C160F7E72DE9F05F05460024D3
:1018F00028684669D0F804908768D0F80CA0D0F822
:1019000010B0D0F81880F10748D0F90714D00121A1
:101910008160B80703D5284600F06EFA0CE078071E
:1019200002D54FF4006407E0380702D54FF4805425
:1019300002E0284600F05FFAF80516D529684FF452
:1019400080708860B80503D5284600F057FA0CE08F
:10195000780502D544F4005407E0380502D544F474
:10196000804402E0284600F048FAF80316D52968BA
:101970004FF480308860B80303D5284600F040FA61
:101980000CE0780302D544F4004407E0380302D5A4
:1019900044F4803402E0284600F031FA300707D5DD
:1019A0005FEACA6004D544F4007429681020C86056
:1019B00070074FF0080707D55FEA0A7004D528685A
:1019C000C760284600F074F9B00706D52868C068DB
:1019D000800702D0284600F06DF9700607D55FEA4F
:1019E000CB6004D544F48064296810200861B006F7
:1019F00007D55FEA0B7004D528680761284600F018
:101A0000CBF9F00606D528680069800702D0284681
:101A100000F0C3F9B00308D55FEAC96005D52968AD
:101A200010204860284600F0B9F9F00307D55FEAB6
:101A3000097004D528684760284600F0E2F93004B0
:101A400046D55FEA497040D5F00504D55FEAC87015
:101A500001D044F00104B00504D55FEA887001D5D7
:101A600044F00204700504D55FEA487001D544F0E3
:101A70000404300529D518F0700F26D008F0700046
:101A8000402815D006DC102809D020280AD030289C
:101A900016D10AE050280ED0602811D10EE044F093
:101AA00008040DE044F010040AE044F0200407E0CC
:101AB00044F0400404E044F0800401E044F4807405
:101AC0002868816921F070018161296804204860DB
:101AD000002C05D0686A204368622846FFF77AFE2A
:101AE000BDE8F09F70B50446002C03D094F82000A8
:101AF00010B104E0012070BD204600F09DF8206880
:101B0000016841F00101016000F068FC054605260E
:101B10000CE000F063FC401B0A2807D9606A40F41F
:101B20000030606284F82060012070BD2068406849
:101B3000C007EED02068016821F00201016000F0CA
:101B40004DFC05460CE000F049FC401B0A2807D973
:101B5000606A40F40030606284F82060012070BD4B
:101B6000206840688007EED4207E01283FD020689E
:101B7000016821F080010160607E01283DD020686D
:101B8000016821F040010160A07E01283BD020685F
:101B9000016821F020010160E07E012839D0206831
:101BA000016841F010010160207F012837D02068D2
:101BB000016821F008010160607F012835D02068AC
:101BC000016821F004010160D4E902010843D4E96D
:101BD0000412114308436168491E08432168C86123
:101BE00000206062012084F82000002070BD206881
:101BF000016841F080010160BEE72068016841F0A2
:101C000040010160C0E72068016841F020010160E7
:101C1000C2E72068016821F010010160C4E7206874
:101C2000016841F008010160C6E72068016841F0E1
:101C300004010160C8E7000010B586B00446142115
:101C400001A8FEF783FC17492068884227D10021AC
:101C50001548026842F000720260006800F00070EF
:101C6000009011481038026842F0080202600068D3
:101C700000F00800009003200190022202920391DC
:101C800004900920059001A9084800F0B7FA002245
:101C90000521142001F09CF9142001F08BF906B005
:101CA00010BD00000064004040380240000C0240BB
:101CB0007047000010B58AB0044601AB03AA0021AA
:101CC0002046FFF788FD304884425AD10398A0F59A
:101CD0000070013805D0012803D0022801D0032864
:101CE0004FD103982949401EC0B20870284A02EB20
:101CF0000010018801819DF805109DF8043041EA2B
:101D0000032101809DF807309DF8061043EA012168
:101D100041809DF809109DF8083041EA0321818037
:101D20009DF80A1081710188B0F90830C91A40F68F
:101D3000F673D94202DA4189491C41810188B0F920
:101D40000830C91A40F6F673994202DD4189491EEE
:101D500041810188B0F90830C91AB0F90A3001EBA5
:101D60004331C1600B48017801290AD10023037077
:101D7000002002EB00114B81CB60401CC0B2042854
:101D8000F7D30AB010BD00001C040020A001002001
:101D9000B04A0020B301002070477047704770B50B
:101DA000044694F82000012805D0606A40F4002021
:101DB0006062012070BD022084F820002068016864
:101DC00021F00101016000F009FB05460DE000F083
:101DD00005FB401B0A2808D9606A40F400306062A5
:101DE000052084F82000012070BD20684068C007ED
:101DF000EDD1606270BD70477047704770477047A3
:101E0000704770472DE9F0410446A76D00F0E6FAEF
:101E1000054694F835000026022806D0802060652B
:101E200084F834600120BDE8F0812068016821F069
:101E3000160101602068416921F080014161206C38
:101E400008B9A06C20B12068016821F00801016088
:101E50002068016821F0010101600BE000F0BEFA8A
:101E6000401B052806D920203434206203206070EE
:101E70002670D8E720680068C007EFD134343F20CF
:101E800094F828108840B860012060702670002007
:101E9000C9E790F83510022903D08021416501205F
:101EA0007047052180F835100068016821F00101B4
:101EB00001600020704700002DE9F84304464FF010
:101EC0000009CDF800906F484FF416510068B0FB40
:101ED000F1F7A56D2E6894F85C00082202FA00F173
:101EE000314210D02068016849070CD5016821F003
:101EF0000401016094F85C0002FA00F1A960606DD1
:101F000040F00100606594F85C104FF0010808FA99
:101F100001F0304208D021684969090604D5A8605B
:101F2000606D40F00200606594F85C100420884009
:101F3000304208D021680968890704D5A860606D1F
:101F400040F00400606594F85C1010208840304236
:101F500020D02168096809071CD5A860206801689D
:101F600049030CD50068000304D4216C91B12046CC
:101F700088470FE0A16C69B1204688470AE00168F4
:101F8000C90503D4016821F008010160216C09B181
:101F90002046884794F85C102020884030424CD07E
:101FA00021680968C90648D5A86094F83500052855
:101FB0000BD020680168490330D50068000328D49D
:101FC000616C51B32046884737E02068016821F0F2
:101FD000160101602068416921F080014161206C97
:101FE00008B9A06C20B12068016821F008010160E7
:101FF00094F85C103F208840A86084F8358084F80D
:102000003490216D00293BD001B02046BDE8F0435B
:102010000847E16B09B1204688470EE00168C90511
:1020200007D4016821F01001016084F8358084F83C
:102030003490E16B09B120468847606D00281FD0BD
:10204000606DC00714D0052084F835002068016851
:1020500021F0010101600098401C0090B84203D8B3
:1020600020680068C007F6D184F8358084F8349081
:10207000E16C002904D001B02046BDE8F0430847D8
:10208000BDE8F883200000202DE9F041044600F06F
:10209000A5F905465CB1022084F83500002684F8D5
:1020A00034602068016821F0010101600DE0012029
:1020B000BDE8F08100F092F9401B052805D92020E9
:1020C0006065032084F83500F2E720680068C007E7
:1020D000F0D121680A6820480240D4E9010318437E
:1020E000D4E903352B43184363691843A3691843A4
:1020F000E3691843236A18431043626A042A03D130
:10210000D4E90B231A43104308602068406920F08B
:102110000700656A29460543012704290DD1A06AF5
:102120000543E06A48B12046FFF7E0F928B14020B6
:10213000606584F835700120BAE720684561204663
:10214000FFF7BEF994F85C203F21914081606665FD
:1021500084F835700020ABE73F8010F010B51F4CBD
:1021600010281BD0202828D0082831D0012814D1CD
:10217000607108F04BF801280FD004F1100160697C
:1021800007F04CFE2069002807D015494FF0805019
:102190000860BFF34F8FBFF36F8F10BD607840F0C2
:1021A00001006070A07840F00100A0702079002844
:1021B000F3D0BDE8104006F017BF207840F00100D2
:1021C000207020790028E8D0BDE8104006F00CBF50
:1021D000E07840F00100E07010BD000098000020A1
:1021E00004ED00E010B504490A68024202D008601C
:1021F000FFF7B4FF10BD0000143C01402DE9F84F7B
:102200000022DFF89C914FF0010803274FF00F0CDC
:1022100009F1040AA9F1040B08FA02F50B682B4036
:10222000AB426ED10C7904F00304012C01D0022CD6
:1022300015D18668540007FA04FE26EA0E06D1F886
:102240000CE00EFA04FE4EEA060EC0F808E0446800
:10225000AC430D79C5F300159540254345600C79D5
:10226000E443A40708D0C568540007FA04F6B54350
:102270008E68A6402E43C6600C7904F00304022C3D
:1022800011D1D40800EB8406356A5407E40E0CFA29
:1022900004FE25EA0E05D1F810E00EFA04FE4EEA1F
:1022A000050EC6F820E00568540007FA04F6B543A9
:1022B0000E7906F00306A6402E4306604C6814F41F
:1022C000403F67D0374C256845F480452560246839
:1022D00004F480440094344C22F003052E19D6F8FF
:1022E000085894074FEA147E0CFA0EF4A5432F4CBD
:1022F000A04201D1002424E02D4CA04202D10124AF
:102300001FE047E02B4CA04201D1022419E02A4CE7
:10231000A04201D1032414E0284CA04201D104249E
:102320000FE0274CA04201D105240AE0254CA04231
:1023300001D1062405E0244CA04201D1072400E08D
:10234000082404FA0EF42C43C6F80848D9F80040D3
:102350009C434D68ED0200D51C43C9F80040DAF8F3
:1023600000409C434D68AD0200D51C43CAF80040B4
:10237000DBF800409C434D68AD0300D51C43CBF80F
:102380000040074D083D2C689C434E68F60300D57D
:102390001C432C60521C102AFFF43EAFBDE8F88F9E
:1023A000083C014044380240003001400000024037
:1023B0000004024000080240000C024000100240ED
:1023C0000014024000180240001C0240002A01D004
:1023D000816170470904816170470000014880688D
:1023E000704700001400002070B50446002C04D093
:1023F00094F83D00002510B106E0012070BD84F87E
:102400003C50204600F0A0FC242084F83D002068C9
:10241000016821F0010101602068016841F4004178
:1024200001602068016821F40041016000F0CCFEE9
:102430004F4B6168994203D84E49884203D304E068
:102440004D49884201D2012070BD4C49B0FBF1F1E9
:102450002268566826F03F060E43566062689A422C
:1024600001D8491C07E04FF4967251434FF47A7239
:10247000B1FBF2F1491C2268166A26F03F0631438F
:1024800011626168994210D84900401EB0FBF1F218
:10249000521CC2F30B02042A01D2042022E0B0FB3A
:1024A000F1F0401CC0F30B001CE0A268F2B301EB9A
:1024B000C10303EB0116431EB3FBF6F35B1C43F4AD
:1024C00080431B0549D092B301EBC10202EB01111D
:1024D000401EB0FBF1F0401CC0F30B0040F4804004
:1024E00040F400402168CA694CF6FF739A431043D8
:1024F000C861D4E9071001432068026822F0C002D5
:1025000011430160D4E9030101432068826848F265
:10251000FF339A4311438160D4E9051001432068D9
:10252000C26822F0FF021143C16001E00EE016E034
:102530002068016841F0010101602564202084F8D1
:102540003D00256384F83E50002070BD01EB41063C
:10255000431EB3FBF6F35B1CB3E70120C2E701EBBC
:102560004101401EB0FBF1F0401CC0F30B00B7E787
:10257000A086010080841E0000093D0040420F003B
:102580002DE9F84F04468A4617469946DDF828801B
:10259000FFF724FF054694F83D00202802D00220D2
:1025A000BDE8F88F192301229A492046009502F0D0
:1025B000AFFA08B10220F3E794F83C00012807D0F5
:1025C000012084F83C0020680168C90702D005E0BA
:1025D0000220E5E7016841F001010160206801681F
:1025E00021F400610160222084F83D00102084F86D
:1025F0003E00002626646762A4F82A90608D20853C
:102600008548E0622B4642465146204602F070F86B
:1026100008B10120C4E7208D70B1012815D002282F
:1026200021D02068016841F480610160206841691F
:1026300080690090794FE1E02068416981690091EB
:10264000016841F400710160F4E72068016821F439
:10265000806101602068416981690091016841F4ED
:1026600000710160E6E72068016821F48061016083
:102670002068016841F40061016020684169806957
:102680000090D7E703287DD801280BD002281FD05F
:102690004346002239462046009502F039FAE8B355
:1026A00001207DE72A464146204602F0EBFA08B1B8
:1026B000012075E720680069616A0870606A401C43
:1026C0006062208D401E2085608D401E608595E0F3
:1026D0004346002239462046009502F019FA08B117
:1026E00001205DE72068016841F400710160206805
:1026F0000069616A0870606A401C6062218D491E31
:102700002185618D491E6185216809690170606AB2
:10271000401C6062208D401E208500E003E0608D3B
:10272000401E60856AE02068016821F480610160D4
:1027300020680069616A0870606A401C6062208DD0
:10274000401E2085608D401E60854346002239462C
:102750002046009502F0DCF908B1012020E720684E
:10276000016841F40071016020680069616A0870C5
:10277000606A401C6062218D491E2185618D491E61
:10278000618500E00CE0216809690170606A401C05
:102790006062208D401E2085608D401E60852DE08A
:1027A0002A464146204602F06DFA08B10120F7E6BC
:1027B00020680069616A0870606A401C6062208D50
:1027C000401E81B22185608D401E6085206842696F
:1027D000D243520712D4032903D1016821F4806146
:1027E000016020680069616A0870606A401C60626C
:1027F000208D401E2085608D401E6085208D002824
:102800007FF440AF20203C346070A670267000201A
:10281000C6E60000020010000000FFFF04000100F7
:102820002DE9F84F04468A4615469946DDF828807A
:10283000FFF7D4FD064694F83D00202802D0022080
:10284000BDE8F88F1923012245492046009602F081
:102850005FF908B10220F3E794F83C00012807D0A3
:10286000012084F83C0020680168C90702D005E017
:102870000220E5E7016841F001010160206801687C
:1028800021F400610160212084F83D00102084F8CB
:102890003E00002727646562A4F82A90608D208599
:1028A0003048E062334642465146204601F0AAFFD6
:1028B00008B10120C4E720684169806900903EE0CA
:1028C00032464146204602F018FA48B1206C0428EE
:1028D00004D12068016841F4007101600120AFE774
:1028E000606A216800780861656A6D1C6562608DA8
:1028F000401E6085208D401E80B22085226851696F
:10290000C94349070BD450B128781061606A401C54
:102910006062608D401E6085208D401E208532469D
:102920004146204602F0C8F848B1206C042804D182
:102930002068016841F400710160012080E7208D6A
:102940000028BDD11F3454F81F0C016841F40071F8
:1029500001602020A077E7776777002070E700000C
:10296000020010000000FFFF2DE9FF4F83B0044676
:10297000DDE911988A469346109FFFF72FFD054623
:1029800094F83D00202803D0022007B0BDE8F08F66
:102990001923012298492046009502F0B9F808B1A0
:1029A0000220F2E794F83C00012807D0012084F8C7
:1029B0003C0020680168C90702D005E00220E4E776
:1029C000016841F0010101602068016821F40061A3
:1029D0000160222084F83D00402084F83E0000265B
:1029E00026646762A4F82A90608D20858348E0629F
:1029F000CDE900855A4651462046069B01F05AFF14
:102A000008B10120C1E7208D48B1012810D002286B
:102A10001CD02068416980690290794FE1E020680C
:102A2000416981690291016841F400710160F4E734
:102A30002068016821F48061016020684169816932
:102A40000291016841F400710160E6E720680168C5
:102A500021F4806101602068016841F40061016037
:102A60002068416980690290D7E703287ED8012851
:102A70000BD002281FD0434600223946204600953D
:102A800002F046F8F0B301207FE72A46414620468F
:102A900002F0F8F808B1012077E720680069616A60
:102AA0000870606A401C6062208D401E2085608D29
:102AB000401E608595E04346002239462046009539
:102AC00002F026F808B101205FE72068016841F4B0
:102AD0000071016020680069616A0870606A401CCA
:102AE0006062218D491E2185618D491E61852168A5
:102AF00009690170606A401C6062208D401E20855B
:102B0000608D00E002E0401E60856AE02068016898
:102B100021F48061016020680069616A0870606A60
:102B2000401C6062208D401E2085608D401E6085A7
:102B30004346002239462046009501F0E9FF08B1DE
:102B4000012022E72068016841F4007101602068DB
:102B50000069616A0870606A401C6062218D491ECC
:102B60002185618D491E6185216800E00BE00969BE
:102B70000170606A401C6062208D401E2085608D5F
:102B8000401E60852DE02A464146204602F07AF834
:102B900008B10120F9E620680069616A0870606A7E
:102BA000401C6062208D401E81B22185608D401ED8
:102BB000608520684269D243520712D4032903D1A9
:102BC000016821F48061016020680069616A087011
:102BD000606A401C6062208D401E2085608D401E12
:102BE0006085208D00287FF440AF20203C34607049
:102BF000A67026700020C8E6020010000000FFFF4B
:102C0000040001002DE9FF4F83B00446DDE911986F
:102C10008A469346109DFFF7E1FB064694F83D0077
:102C2000202803D0022007B0BDE8F08F192301222D
:102C300043492046009601F06BFF08B10220F2E7FD
:102C400094F83C00012807D0012084F83C0020685B
:102C50000168C90702D005E00220E4E7016841F0FD
:102C6000010101602068016821F4006101602120F8
:102C700084F83D00402084F83E0000272764656208
:102C8000A4F82A90608D20852E48E062CDE9008668
:102C90005A4651462046069B01F0ACFE80B3012007
:102CA000C1E732464146204602F027F848B1206C81
:102CB000042804D12068016841F4007101600120FA
:102CC000B1E7606A216800780861656A6D1C656219
:102CD000208D401E80B22085618D491E618523684C
:102CE0005969C94349070BD450B128781861606A03
:102CF000401C6062208D401E2085608D401E6085D6
:102D0000208D0028CDD132464146204601F0D4FE28
:102D100048B1206C042804D12068016841F4007196
:102D2000016001207FE71F3454F81F0C016841F453
:102D3000007101602020A077E7776777002072E7B5
:102D4000020010000000FFFF2DE9F04387B00546A8
:102D5000142102A8FDF7FAFB4A4C494A2968494860
:102D60000327103400264FF012084FF00409914257
:102D700051D1016841F020010160006800F020009D
:102D800001900297CDF80C8004960597CDF8189025
:102D900002A93D48FFF732FA206840F48000206025
:102DA000206800F480000190394C384820604FF0D2
:102DB0006069C4F80490A660E66007152761666143
:102DC000A661E6614FF44038C4F820806662204670
:102DD000FFF75AF908B1FEF7D2FBAC63A5632B48A5
:102DE0002B4C783060342060C4F804904020A06000
:102DF000E66027616661A661E661C4F820806662CC
:102E00002046FFF741F908B1FEF7B9FB6C63A563F3
:102E100007B0BDE8F0831F4A9142F9D1016841F043
:102E200004010160016801F004010191016841F0B1
:102E300001010160006800F001000190501502904E
:102E4000CDF80C80012504950597CDF8189002A9BE
:102E50001148FFF7D3F928020290CDF80C800495B1
:102E60000597CDF8189002A90C48FFF7C7F920681C
:102E700040F400002060206800F400000190C7E7E3
:102E800000580040303802400014024040600240C8
:102E9000EC040020005C00400008024000000240FA
:102EA0000248816802781144816070471400002054
:102EB00010B50B48016841F400710160016841F4EC
:102EC00080610160016841F480710160032000F0BD
:102ED0009FF80F2000F006F800F050F8002010BD19
:102EE000003C024030B587B0054600241E4801680A
:102EF00041F020010160006800F02000009001A96D
:102F000002A800F03DF90598A8B100F05DF9400075
:102F10001649B0FBF1F1491E1648154A026040F20D
:102F2000E732C260416004618460846100F0F5FDB5
:102F300004461CB115E000F047F9E9E70D4800F040
:102F400025FE04466CB9372000F034F8102D07D266
:102F500000222946372000F03BF80748056000E0D2
:102F6000012407B0204630BD4038024040420F00E7
:102F7000001400409C0700201800002082B00C487C
:102F8000016841F480410160006800F480400190D4
:102F90000748001F016841F080510160006800F09F
:102FA0008050019000220F21901E02B000F010B856
:102FB00044380240002809DB00F01F020121914043
:102FC0004009800000F1E020C0F8001170470000C7
:102FD000F0B40D460D4B1B68C3F30223C3F1070485
:102FE000042C00D90424191D072901D2002300E074
:102FF000DB1E012606FA04F1491E294099409E4035
:10300000761E16403143F0BC04F014BC0CED00E019
:1030100000F00701054A10684FF6FF03184040EA28
:103020000120034908431060704700000CED00E0E8
:103030000000FA052DE9F04704460D46002C13D098
:10304000DFF82891D9F80000EFB200F00700A8429D
:103050000CD289F80070D9F8000000F00700A842EF
:1030600004D00120BDE8F0870120FBE72068404E36
:10307000810712D5400703D5306840F4E050306036
:103080002078000703D5306840F460403060306835
:10309000A16820F0F000084330602078C00731D0EC
:1030A000334960680839012808D002280BD003286A
:1030B00009D0096889070BD40120D3E7096889037F
:1030C00006D40120CEE70968890101D40120C9E7AF
:1030D000316821F0030101433160FFF77FF9804639
:1030E00041F2883A07E0FFF779F9A0EB0800504574
:1030F00001D90320B6E73068616800F00C00B0EB3E
:10310000810FF0D1D9F8000000F00700A84209D9DA
:1031100089F80070D9F8000000F00700A84201D03B
:1031200001209FE72078400705D53068E16820F44A
:10313000E050084330602078000706D530682169E8
:1031400020F4604040EAC100306000F05DF8316872
:10315000084AC1F30311515CC84007490860074899
:103160000068FFF7BFFE00207CE70000003C024043
:103170000838024058A7000820000020180000204E
:103180000F2202600B4A136803F0030343601368C5
:1031900003F0F0038360136803F4E053C360126824
:1031A00002F46042D20802610348006800F00700A0
:1031B0000860704708380240003C0240014800683F
:1031C000704700002000002000B5FFF7F7FF04491A
:1031D0000968044AC1F38221515CC84000BD000067
:1031E0000838024068A7000800B5FFF7E7FF044968
:1031F0000968044AC1F34231515CC84000BD000077
:103200000838024068A7000810B51748006810F099
:103210000C01164816D0164B042912D0082911D1DA
:10322000114C241F216801F03F02216849020AD590
:103230002068C0F38810A0FB03010023FDF794F879
:1032400009E0184610BD21680023C1F38811A1FBD5
:103250000001FDF789F82168C1F30141491C4900CB
:10326000B0FBF1F010BD0000083802400024F4006B
:10327000001BB7002DE9F84F0446002C13D020782E
:10328000DFF8A083C007A8F1040556D008F10400B8
:103290000168C1F3810101290CD00068C0F38100ED
:1032A000022803D00DE00120BDE8F88FD8F8000017
:1032B000400206D5286880033FD5606870BB0120B6
:1032C000F2E76068B0F5803F10D0B0F5A02F12D0C3
:1032D000286820F480302860286820F48020286046
:1032E0006068E0B1FFF77AF8064614E0286840F419
:1032F00080302860F4E7286840F48020286028683F
:1033000040F480302860EBE7FFF768F8801B642802
:1033100001D90320C8E728688003F5D50DE0FFF741
:103320005DF8064606E0FFF759F8801B642801D9CE
:103330000320B9E728688003F5D42078BA4F8007C6
:103340004FF0000948D5B748001D016811F00C0F77
:1033500008D00068C0F38100022813D1D8F800001B
:1033600040020FD42868800704D5E068012801D006
:10337000012099E72868216920F0F80040EAC1009F
:10338000286029E0E068B8B101203860FFF726F82E
:10339000064606E0FFF722F8801B022801D9032029
:1033A00082E728688007F5D52868216920F0F800B1
:1033B00040EAC10028600FE0C7F80090FFF70EF860
:1033C000064606E0FFF70AF8801B022801D9032011
:1033D0006AE728688007F5D42078000729D5DFF848
:1033E00044A2924861690AF1700A89B10121016021
:1033F000FEF7F4FF064606E0FEF7F0FF801B02280A
:1034000001D9032050E7DAF800008007F4D510E076
:10341000C0F80090FEF7E2FF064606E0FEF7DEFF8A
:10342000801B022801D903203EE7DAF8000080075C
:10343000F4D42078400778D54FF0000A79483C3022
:103440000068C0000BD477483C30016841F08051DF
:103450000160006800F0805000904FF0010ADFF832
:10346000D0B1DBF80000C00514D4DBF8000040F454
:103470008070CBF80000FEF7B1FF064606E0FEF7CD
:10348000ADFF801B022801D903200DE7DBF8000007
:10349000C005F4D5634EA0686C3601280FD005280E
:1034A00012D0306820F001003060306820F0040055
:1034B0003060A068F8B1FEF791FF834617E03068EE
:1034C00040F001003060F4E7306840F00400306004
:1034D000306840F001003060EBE7FEF77FFFA0EBC3
:1034E0000B0141F28830814201D90320DCE63068CB
:1034F0008007F2D510E0FEF771FF834609E0FEF782
:103500006DFFA0EB0B0141F28830814201D903200D
:10351000CAE630688007F2D4BAF1010F05D14148FC
:103520003C30016821F080510160A069C0B33D4981
:10353000091D09684FF0FF36C1F38101022946D009
:10354000022805D0C7F86090FEF748FF04463AE02D
:10355000C7F86090FEF742FF814607E0FEF73EFFA6
:10356000A0EB0900022801D903209DE6286880010C
:10357000F4D4D4E907010843616AA26A890106EB21
:10358000520241EA0241084394F82C1040EA0160DB
:10359000C8F8000001203866FEF720FF044607E067
:1035A0003DE0FEF71BFF001B022801D903207BE64C
:1035B00028688001F5D532E0FEF710FF001B0228D5
:1035C00001D9032070E628688001F5D427E001289E
:1035D00023D0D8F80000E26900F4800191421AD1AA
:1035E000226A00F03F01914215D147F6C071626A2C
:1035F0000140B1EB821F0ED1A26A00F4403106EB0C
:103600005202B1EB024F06D194F82C1000F070601A
:10361000B0EB016F03D0012046E6012044E6002014
:1036200042E600000438024000004742800E474254
:10363000007000407047000038B5044620684268BA
:103640008168C9434B060AD5CB0708D1D3435B0633
:1036500005D4216C01B02046BDE8304008478B07F7
:1036600008D4D3431B0605D4616C01B02046BDE8E5
:10367000304008478B0603D54B0601D5CB0551D406
:10368000D3439B064ED44B060AD494F85130032BF7
:1036900049D0636D43F004036365C3688368009396
:1036A0008B0609D4636D43F001036365836800935F
:1036B000036823F040030360C80506D4606D40F042
:1036C00008006065206880680090606D002829D03F
:1036D0002068416821F0E0014160012084F8510038
:1036E000900701D4D00722D02068416821F003015F
:1036F0004160114DE06C40B10565E06CFEF7C9FB1F
:1037000018B1606D40F040006065A06C002809D0E1
:103710000565A06CFEF7BDFB002803D0606D40F08E
:103720004000606538BDC1688068009038BD2046A3
:10373000FFF780FF38BD00004D70000870B50446EB
:10374000002C09D0606A002540B125616561A56241
:1037500094F8510040B10CE0012070BD6068B0F5F4
:10376000827FF4D0E561F2E784F85050204600F003
:1037700045F8022084F851002068016821F04001DA
:103780000160A088218900F4827001F4044108439B
:10379000A18901F400610843217C01F00201084382
:1037A000217D01F001010843218B01F400710843E0
:1037B000217F01F03801084394F8201001F08001C6
:1037C0000843218D01F40051084321680860A06975
:1037D000042101EA104094F8241001F0100108437C
:1037E000216848602068C16921F40061C161656594
:1037F000012084F85100002070BD00002DE9F04345
:1038000087B00546142102A8FCF7A0FE3D492868B0
:10381000884274D100263C48016841F4805101601F
:10382000006800F48050019037481438016841F076
:1038300002010160016801F002010191016841F09B
:1038400001010160006800F0010001901820029061
:103850004FF00208CDF80C804FF00109CDF8109020
:10386000032405940527069702A92848FEF7C6FCFD
:1038700080200290CDF80C80CDF81090059406972A
:1038800002A92348FEF7BAFC234C224820604FF0DF
:10389000C068C4F80480A660E66007152761666109
:1038A000A661E6614FF44030206266622046FEF772
:1038B000EBFB08B1FDF763FEEC64A5631548164CFD
:1038C000183060342060C4F804804020A060E660B6
:1038D00027616661A661E661C002206266622046D9
:1038E000FEF7D2FB08B1FDF74AFEAC64A5630022E7
:1038F00005212320FFF76CFB2320FFF75BFB07B0BC
:10390000BDE8F0830030014044380240000402402A
:103910000000024040640240040600202DE9FF4FF1
:1039200081B004460E9E93461F460125FEF756FDC4
:10393000804694F85100616801280AD0B1F5827F71
:1039400003D1A16809B9042803D0022005B0BDE85D
:10395000F08F0298A0B3BBF1000F32D0380030D006
:1039600094F8500001282ED04FF0010A84F850A09E
:1039700094F85100042802D0052084F851004FF03B
:103980000009C4F85490C4F838B0E787A7870298B4
:103990002063E786A786C4F84090C4F84490206866
:1039A0000168490603D4016841F040010160E06804
:1039B000B0F5006F09D06068F0B3012F4DD082E000
:1039C000FFE70120C2E70220C0E7606808B1012FCD
:1039D0003CD1206B21680088C860206B801C20636C
:1039E000E08E401EE08631E02068816889070DD5B1
:1039F000E18E59B1012D09D1216B0988C160206B7D
:103A0000801C2063E08E401EE086002520688168CF
:103A1000C9070BD0E18F49B1C068A16B0880A06BCA
:103A2000801CA063E08F401EE0870125FEF7D6FCD6
:103A3000A0EB0800B04200E00FE007D3701C05D0F7
:103A400084F851A084F8509003207FE7E08E00288E
:103A5000CAD1E08F0028C7D13BE0206B21680078F5
:103A60000873206B401C2063E08E401EE0862AE035
:103A70002068816889070DD5E18E59B1012D09D1E2
:103A8000216B09780173206B401C2063E08E401E7F
:103A9000E086002520688168C9070BD0E18F49B115
:103AA000C068A16B0870A06B401CA063E08F401E33
:103AB000E0870125FEF792FCA0EB0800B04201D39D
:103AC000701C12D18EB1E08E0028D1D1E08F002879
:103AD000CED142463146204603F0C0FA58B12020EC
:103AE000606584F85090012030E784F851A084F894
:103AF000509003202AE7A06818B92068C168806840
:103B0000009084F851A084F85090606D08B10120B5
:103B10001CE700201AE77047704710B50446002CD8
:103B200003D094F83D0010B107E0012010BD002043
:103B300084F83C00204600F015F8022084F83D008F
:103B4000211D206803F094FB01203D3460726070F9
:103B5000A070E07020716071A071E071207220701F
:103B6000002010BD08B500680649884208D1064803
:103B7000016841F400310160006800F400300090F9
:103B800008BD0000004401404438024090F83D1058
:103B9000012901D001207047022180F83D10016801
:103BA000CA6842F00102CA6000681449884214D011
:103BB000B0F1804F11D0124988420ED0114988428D
:103BC0000BD01149884208D01049884205D01049CD
:103BD000884202D00F49884209D1816801F007016B
:103BE000062908D0016841F00101016003E0016885
:103BF00041F0010101600020704700000000014019
:103C00000004004000080040000C00400004014097
:103C1000004001400018004070472DE9F041044683
:103C20002068C56806694FF00007B10714D5A907D9
:103C300012D5F91E01610120207720688069800774
:103C400003D02046FFF7E8FF05E0204600F0ACF87F
:103C5000204600F03CF92777700717D5680715D57F
:103C600021686FF0040008610220207720688069D5
:103C700010F4407F03D02046FFF7CEFF05E020463A
:103C800000F092F8204600F022F92777300716D589
:103C9000280714D521686FF00800086104202077F8
:103CA0002068C069800703D02046FFF7B5FF05E014
:103CB000204600F079F8204600F009F92777F00651
:103CC00017D5E80615D521686FF0100008610820A7
:103CD00020772068C06910F4407F03D02046FFF7AA
:103CE0009BFF05E0204600F05FF8204600F0EFF86B
:103CF0002777F00708D0E80706D021686FF00100A9
:103D00000861204600F052F9300608D5280606D58D
:103D100021686FF0800008612046FFF7FCFE700606
:103D200008D5680606D521686FF040000861204676
:103D300000F046F9B0060AD5A80608D521686FF04C
:103D4000200008612046BDE8F041FFF7E5BEBDE870
:103D5000F081000010B586B00446142101A8FCF7DC
:103D6000F5FB0E492068884215D10D48016841F0E5
:103D700020010160006800F02000009040200190C8
:103D8000022002900120039003200490059001A9D5
:103D90000448FEF733FA06B010BD000000440140AD
:103DA0003038024000140240704770B504460D469A
:103DB000002694F83C0001280FD0012084F83C0034
:103DC0006AB1042A1FD0082A32D00C2A44D0012616
:103DD000002084F83C00304670BD022070BD2946AA
:103DE000206803F0C1FA2068816941F0080181610F
:103DF0002068816921F004018161206881692A6954
:103E000011438161E4E72946206803F0E1FA206864
:103E1000816941F4006181612068816921F48061D8
:103E20008161206881692A6941EA02218161CFE7C5
:103E30002946206803F006FB2068C16941F00801AB
:103E4000C1612068C16921F00401C1612068C169B4
:103E50002A691143C161BBE72946206803F02AFBA8
:103E60002068C16941F40061C1612068C16921F421
:103E70008061C1612068C1692A6941EA0221C1618A
:103E8000A6E710B50446002C03D094F83D0010B10D
:103E900007E0012010BD002084F83C00204600F01F
:103EA00015F8022084F83D00211D206803F0E0F998
:103EB00001203D3460726070A070E070207160710C
:103EC000A071E07120722070002010BD7047704713
:103ED00010B50446002909D004290AD008290BD0BE
:103EE00094F8410001280AD0012010BD94F83E004A
:103EF000F8E794F83F00F5E794F84000F2E7022075
:103F0000A9B3042937D0082938D084F84100012208
:103F1000206803F01BFA1E4920681E4A884201D01F
:103F2000904203D1436C43F40043436420688842C9
:103F300013D0B0F1804F10D0174988420DD01749E7
:103F400088420AD01649884207D0904205D01549C8
:103F5000884202D01449884213D1816801F00701D8
:103F6000062912D0016841F0010101600DE0FFE770
:103F700084F83E00CBE784F83F00C8E784F84000AF
:103F8000C5E7016841F001010160002010BD00009B
:103F9000000001400004014000040040000800400F
:103FA000000C004000400140001800400068034938
:103FB000884201D1FEF774BF704700000014004032
:103FC0007047704770470000F8B5044622681068D3
:103FD000D168536900F00F06002E08D1850606D57A
:103FE0008D0604D52046BDE8F84003F0C9BA002587
:103FF000002E66D003F0010601F49077374360D0BD
:10400000C20705D0CA0503D5626C42F001026264A2
:10401000420705D5DA0703D0626C42F002026264FF
:10402000820705D5DA0703D0626C42F004026264AD
:10403000020707D501F02002324303D0626C42F040
:1040400008026264626C002A31D0800604D58806BA
:1040500002D5204603F094FA20684069C0F380102E
:10406000616C090700D438B3204603F055FA206884
:10407000406940061CD52068143050E8001F21F02C
:10408000400140E80012002AF5D1E06B60B15949C7
:104090000165E06BFDF7FDFE002808D0E06B016DC7
:1040A00001B0BDE8F04008472046FFF78BFFF8BDA0
:1040B0002046FFF787FFF8BD2046FFF783FF6564C2
:1040C000F8BD236B012B7DD1C3067BD5CB067FD5F5
:1040D00010685068009050694FF0200340064FF080
:1040E000020644D5E16B0868406880B20028E7D03A
:1040F000A28D8242E4D9E085C869B0F5807F2DD0D9
:1041000020680C3050E8001F21F4807140E8001254
:10411000002AF5D12068143050E8001F21F0010179
:1041200040E80012002AF5D12068143050E8001F42
:1041300021F0400140E80012002AF5D184F8423015
:10414000256320680C3050E8001F21F0100140E882
:104150000012002AF5D1E06BFDF754FE6663A08DD6
:10416000E18D401A81B22046FFF72BFFF8BDA08DEC
:10417000E18D401A81B2E08D0028F7D00029F5D0FA
:1041800020680C3050E8002F22F4907240E800279D
:10419000002FF5D12068143050E8002F22F00102E2
:1041A00040E80027002FF5D184F8423025632068CD
:1041B0000C3050E8002F22F0100240E80023002BC2
:1041C000F5D100E004E066632046FFF7FAFEF8BD93
:1041D000020606D50A0604D52046BDE8F84003F0DD
:1041E000D9BA4006F3D54806F1D52046BDE8F840D7
:1041F00003F0B9B90975000870B50446002C04D065
:1042000094F84100002510B106E0012070BD84F84B
:104210004050204600F024F8242084F84100206813
:10422000C16821F40051C160204603F00DFA2068F6
:10423000016921F4904101612068416921F02A015E
:1042400041612068C16841F40051C160656420206B
:1042500084F8410084F842006563002070BD0000CE
:10426000F0B587B00446142102A8FCF76FF9354871
:10427000334B21680024334A14380225032699421F
:1042800036D1116841F010011160116801F0100180
:104290000191016841F002010160016801F0020131
:1042A0000191016841F001010160006800F0010026
:1042B00001908020029003950494059607270697A5
:1042C00002A92148FDF79AFF280202900395049461
:1042D0000596069702A91D48FDF790FF00220521CB
:1042E0002520FEF775FE2520FEF764FE07B0F0BD21
:1042F000174B9942FAD1116841F020011160116801
:1043000001F020010191016841F040010160006865
:1043100000F0400001904FF4844002900395049413
:1043200005960820069002A90A48FDF767FF0022BB
:1043300005214720FEF74CFE4720FEF73BFED5E760
:1043400000100140443802400004024000000240D6
:10435000001401400018024090F84230202B01D098
:104360000220704721B11AB10023036303F0F6B9AC
:10437000012070472DE9F0410068CC49884271D195
:10438000CB480078CA4C0F22E41F0026217804296C
:1043900006D2AA2801D0267077E0491C217074E06B
:1043A0000B1F062B6ED2C249C91F062B49786CD24F
:1043B000DFE803F003061215185FD8B126706670A7
:1043C00002281BD00D2822D00F2829D010282FD04A
:1043D000142838D02670667098B32670667088B33B
:1043E0002670667020712178491C21706178014423
:1043F00061704AE005232370617046E00221E1709C
:104400002178491C21706178891C61703DE00D2183
:10441000E1702178491C217061780D31617034E0C0
:10442000E2702178491C217061780F3161702CE0B5
:104430001021E1702178491C217061781031617080
:1044400023E009E00FE01421E1702178491C21707C
:1044500061781431617018E02178491C217061780D
:10446000617012E020E12178491C2170617861704F
:104470000BE0237903EB002323710A23237001440B
:10448000617002E00A2900D16671E178022977D1D2
:1044900061790029FBD12178092971D9854DBE297F
:1044A0001FD2A1F10A0393FBF2F702FB1732D7B236
:1044B000A7717F4AD21F0F2F937803EB830210D28C
:1044C000DFE807F008101C25313A46525F68717D1D
:1044D00089959E0025F82200627802446270491C8A
:1044E00021709AE035F8223003EB002325F82230C2
:1044F000627802446270491C21708EE005EB8202F2
:104500005080627802446270491C217085E005EB9E
:104510008202538803EB0023538062780244627066
:10452000491C217079E005EB8202506062780244F8
:104530006270491C217070E005EB8202536803EB46
:1045400000235360627802446270491C217064E069
:1045500005EB8202536803EB004353606278024428
:104560006270491C217058E005EB8202536803EB2E
:1045700000635360627802446270491C21704CE011
:104580008BE005EB82021072627802446270491C73
:10459000217042E005EB8202D060627802446270D2
:1045A000491C217039E005EB8202D36803EB00233C
:1045B000D360627802446270491C21702DE005EBE3
:1045C0008202D36803EB0043D360627802446270D6
:1045D000491C217021E005EB8202D36803EB0063E4
:1045E000D360627802446270491C217015E005EBCB
:1045F00082021082627802446270491C21700CE0D1
:1046000005EB8202178A07EB0027178262780244C3
:104610006270491C21705B1CA3702178BE290BD0ED
:10462000234AD21FBF2952690DD0C02914D0C129F5
:104630001BD0C22922D030E06061BF212170617897
:104640000844607029E002EB00216161C021217003
:1046500061780844607020E002EB00416161C12193
:10466000217061780844607017E002EB00616161BD
:10467000C22121706178084460700EE06178884240
:1046800004D104F0F5FA6089401C60812888E0813B
:104690006670267001206071A670BDE8F0410122AD
:1046A00003490548FFF758BEBDE8F08100140140FA
:1046B00053010020AC490020540700207047FEE75A
:1046C00001684A69D24352050FD46FF480624A618F
:1046D000002140F8301F202242738173026942F0AA
:1046E000040202610173012070470020704700003E
:1046F0002DE9F84F04468B4692461D46E06A216834
:104700000A6842F480620A60082808D0012806D0AE
:1047100010F5803F03D0206B112806D00AE02068F6
:10472000016841F48071016004E02068016841F48F
:10473000807101604FF00118534600224146204627
:10474000009500F0E5F94FF4007738B12068006873
:10475000C00500D527640320BDE8F88F2069DFF885
:10476000A090B0F5804F10D021680BF44076F02077
:1047700040EAD61008612B46524609F10601204650
:1047800000F01CFA40B10120E6E721680BF0FF00C1
:1047900040F00100086128E021680BF0FF0008618B
:1047A0002B4652464946204600F008FA08B101203F
:1047B000D2E72068416981690091016841F4807104
:1047C00001605346002241462046009500F0A0F9C2
:1047D00030B120680068C00500D527640320BBE71E
:1047E0002168F12040EAD61008612B46524649461E
:1047F000204600F0E3F908B10120ADE70020ABE767
:1048000002000100F8B504460D4617461E46E06A50
:10481000082808D0012806D010F5803F03D0206B6F
:10482000122806D00AE02068016841F48071016016
:1048300004E02068016841F4807101603B46002279
:104840004FF001112046009600F062F940B1206857
:104850000068C00502D54FF4007020640320F8BD45
:104860002069B0F5804F0FD005F44070F02141EA87
:10487000D0102168086133463A460D49204600F0C1
:104880009DF930B10120F8BD216805F0FE000861F6
:1048900002E02168E8B20861054933463A46891FBB
:1048A000204600F08BF908B10120F8BD0020F8BDCA
:1048B000080001002DE9F84F04460B9E0F46904674
:1048C0001D462068016841F480610160206801682C
:1048D00041F48071016000964FF0011A00225146A8
:1048E00020460A9B00F014F94FF4007940B120688B
:1048F0000068C00501D5C4F840900320BDE8F88FDA
:10490000216807F0FE000861DFF8E4B0334659463D
:1049100020460A9A00F052F908B10120EEE720681B
:10492000416980690090324620460A9900F0E5F915
:1049300048B1206C042804D12068016841F400715A
:1049400001600120DAE7284608F0FF0501280DD0B4
:1049500021684FEA18200861324620460A9900F083
:10496000CCF968B1206C042803D007E02068056109
:1049700008E02068016841F4007101600120BDE792
:1049800020680561324620460A9900F0B6F948B120
:10499000206C042804D12068016841F40071016092
:1049A0000120ABE72068016841F480710160009646
:1049B0000022514620460A9B00F0AAF838B1206830
:1049C0000068C00501D5C4F84090032096E721682F
:1049D000F8B240F0010008613346594620460A9A71
:1049E00000F0ECF808B1012088E7002086E700001D
:1049F000020001002DE9F8430446DDE908970D4661
:104A0000164698462068016841F4807101604B4663
:104A100000224FF001112046009700F079F848B1CC
:104A200020680068C00502D54FF4007020640320A0
:104A3000BDE8F883216805F0FE0008613B464A4660
:104A40001C49204600F0BAF808B10120F0E72068C0
:104A50004169806900903A464946204600F04DF988
:104A600048B1206C042804D12068016841F4007129
:104A700001600120DCE7F5B2B8F1010F0CD021682C
:104A8000300A08613A464946204600F036F968B1D6
:104A9000206C042803D007E02068056108E0206846
:104AA000016841F4007101600120C1E720680561DF
:104AB0000020BDE70200010070B504460D46164611
:104AC0001FE02046FFF7FCFD08B1012070BD681C07
:104AD00017D0FDF783FC801BA84200D88DB9206851
:104AE0004069C04340070CD5002044F8300F202116
:104AF0006173A073216941F02001216120730120BD
:104B000070BD20684069C0434007DAD4002070BD02
:104B10002DE9F0470446DDF820900D4690461E46EC
:104B2000C5F307472FE0701C2DD0FDF757FCA0EB15
:104B30000900B04200D836BB012F17D02068806929
:104B400025EA00000004000C1BD0002040451AD1CB
:104B5000002044F8300F20216173A073216941F0D7
:104B60002001216120730120BDE8F08720684069A1
:104B700025EA00000004000C01D00020E6E7012037
:104B8000E4E70120E2E7012F0BD02068806925EAE5
:104B900000000004000C0FD000204045C3D00020CE
:104BA000E2E72068406925EA00000004000C01D01B
:104BB0000020F2E70120F0E70120EEE72DE9F047C1
:104BC00004460D46164698464FF000094FF0200A5D
:104BD000C5F3074743E020684069C043400517D448
:104BE0002068016841F40071016021686FF4806001
:104BF0004861C4F8309084F83DA084F83E90206C61
:104C000040F00400206484F83C900120BDE8F08767
:104C1000701C24D0FDF7E2FBA0EB0800B04200D8E6
:104C2000EEB9012F14D02068806925EA0000000445
:104C3000000C14D0C4F8309084F83DA084F83E9065
:104C4000206C40F02000206484F83C900120DDE7D7
:104C50002068406925EA00000004000CEAD1012F19
:104C600008D02068806925EA00000004000CB2D159
:104C70000020CBE72068406925EA00000004000C12
:104C8000F6D0A8E72DE9F04104460D461646002768
:104C90004FF020082AE04069C043C0060FD42168C5
:104CA0006FF010004861276384F83D8084F83E70FF
:104CB000206C206484F83C700120BDE8F081FDF791
:104CC0008DFB801BA84200D885B920684069C0438D
:104CD00040060BD544F8307F84F80D80A773206917
:104CE00040F02000206127730120E6E72068416939
:104CF000C9434906CFD40020DFE770B504460D460E
:104D000016461FE02046FFF7DBFC08B1012070BD0E
:104D1000681C17D0FDF762FB801BA84200D88DB934
:104D200020684069C04300060CD5002044F8300FCD
:104D300020216173A073216941F02001216120735A
:104D4000012070BD20684069C0430006DAD400200D
:104D500070BD00001CB5072004F064FB02E0642075
:104D600004F060FBFBF71EFF0028F8D102E064208E
:104D700004F058FB04F040FA0028F8D19C4A019254
:104D8000A2F11004101D211D8246FBF723FF2346CC
:104D9000A3F14C0204F16C07A2F10C01A1F10C008B
:104DA000009704F0B3F8DFED930A9FED930A934A5E
:104DB000002104F1880000F069FCA4F14C02A2F18A
:104DC0000C0101F11800FBF759FC002004F064FB12
:104DD00005F0D8F98A4D68618A491020C8610846F3
:104DE000FEF7ACFC08B1FCF7CAFB85490822243168
:104DF000A1F1080002F09EF84FF0010885F8048048
:104E00009FED810A7A4E143686ED050A9FED7F0AE2
:104E100086ED060A9FED7E0A86ED070A04F05AFA2F
:104E20004FF0FF394946012004F06CFE0128F9D10A
:104E30002878400720D5287820F004002870704892
:104E400051462530FBF77EFE94ED050AD6ED050AA6
:104E500030EE600A84ED050A94ED060AD6ED060AE6
:104E600030EE600A84ED060A94ED070AD6ED070AD3
:104E700030EE600A84ED070A687840070AD5687842
:104E800020F0040068705A4A211D1032A2F12A0055
:104E9000FBF70EFEA87840070CD5A87820F0040098
:104EA000A870574801991A30FBF770FF94ED040A77
:104EB00004F024F94E4B0097103BA3F14C02A2F1F1
:104EC0000C01A1F10C0004F021F849498C39A1F141
:104ED0000C0291ED000A82ED000A01F10C00D0ED08
:104EE000000AC1ED000ADFED4B1A60EEA10A9FED4A
:104EF0004A1A00F1180340EE010A93ED000A9FEDF3
:104F0000472A40EE020AC0ED000A91ED010A82ED47
:104F1000010AD0ED010AC1ED010A60EEA10A40EEDE
:104F2000010A93ED010A40EE020AC0ED010A91ED7B
:104F3000020A82ED020AD0ED020AC1ED020A60EE19
:104F4000A10A40EE010A93ED020A40EE020AC0ED0A
:104F5000020A02460C3318319FED310A3030FBF75C
:104F6000E7FCDFF88CB0ABF1400B0BF104035946C2
:104F70001A1DA1F1100003F005FFDBED000A9FED03
:104F8000290A0BF10C0020EE801ADFED270AC1EE92
:104F9000201AC0ED001A9BED011A21EE001AC1EE95
:104FA000201AC0ED011A9BED021A21EE001AC1EE83
:104FB000201AC0ED021A94ED051A0C3021EE001AE9
:104FC000C1EE201AC0ED001A94ED061A21EE001A67
:104FD000C1EE201AC0ED011A94ED071A21EE000A65
:104FE00080EE201A80ED021A104880F8008019E740
:104FF000DC4800200080894500A08C4570A700088F
:1050000098000020AC05002073DD96BB5CD7DCBAAD
:105010004400113B5AF8F63F5D896EBFD5A9183B95
:105020006F12833A00003443DB0F4940B201002085
:105030000F4C02E0012004F0F5F920780028F9D0A7
:1050400001220C490C48FFF787F90A4E0B4FF61F57
:105050000B4D4FF4C87801243878052803D1F08926
:10506000404500D22C70012004F0DCF9F4E7000088
:10507000B20100205301002054070020B00100209D
:10508000B401002010B50F480D49016003214160B3
:1050900000218160C1604FF4102202614FF40012C0
:1050A0004261017641768176C17601774177FCF7DE
:1050B00019FD002803D0BDE81040FCF760BA10BD10
:1050C000006400401C04002008B51948016841F440
:1050D00080010160016801F480010091016841F4E0
:1050E00000110160006800F400100090002205210A
:1050F0000D20FDF76DFF0D20FDF75CFF002205215F
:105100002F20FDF765FF2F20FDF754FF002205211A
:105110003A20FDF75DFF3A20FDF74CFF0022052104
:105120003B20FDF755FFBDE808403B20FDF742BF9F
:105130003038024010B5A4B01C221C491DA8FBF752
:10514000A9F900211DA804F07AF9194C20601C224D
:1051500016491C3116A8FBF79DF9002116A804F08A
:105160006EF960601C22114938310FA8FBF792F9E3
:1051700000210FA804F063F9A0601C220B495431F0
:1051800008A8FBF787F9002108A804F058F9E060A7
:105190001C220649703101A8FBF77CF9002101A807
:1051A00004F04DF9206124B010BD0000C4A6000831
:1051B000000000202DE9F04387B0142102A8FBF77E
:1051C000C5F94F48016841F040010160016801F0F4
:1051D00040010191016841F002010160016801F0A4
:1051E00002010191016841F001010160016801F0D3
:1051F00001010191016841F008010160016801F0BD
:1052000008010191016841F004010160016801F0A9
:1052100004010191016841F020010160016801F081
:1052200020010191016841F080010160006800F0F7
:1052300080000190DFF8CC90012240214846FDF724
:10524000C5F8314F012210213846FDF7BFF8DFF8CD
:10525000BC80012211464046FDF7B8F8402002907C
:105260000124039404940225059502A94846FCF7FD
:10527000C5FF092002904FF404160396049402A976
:105280004846FCF7BBFF1020029003940494059558
:1052900002A93846FCF7B2FF30200290039604942E
:1052A00002A91B48FCF7AAFF0294039404940595F5
:1052B00002A94046FCF7A2FF062100220846FDF79E
:1052C00087FE0620FDF776FE002205210920FDF766
:1052D0007FFE0920FDF76EFE002205210A20FDF762
:1052E00077FE0A20FDF766FE002205211720FDF754
:1052F0006FFE1720FDF75EFE07B0BDE8F0830000EB
:105300003038024000180240000002400004024011
:105310000008024010B50D480B4901600C4941607E
:1053200000218160C1604FF480420261416181616E
:10533000C1610162FDF758F8002803D0BDE81040B4
:10534000FCF71DB910BD00000058004044040020C7
:10535000801A060010B50D480B4901600C494160E8
:1053600000218160C1604FF480420261416181612E
:10537000C1610162FDF738F8002803D0BDE8104094
:10538000FCF7FDB810BD0000005C00409804002050
:10539000801A060010B510480E4901604FF4827162
:1053A000416000218160C1600222026101224261EC
:1053B000520282613822C2610162416281620A2125
:1053C000C162FEF7BBF9002803D0BDE81040FCF72E
:1053D000D6B810BD00300140AC05002010B588B033
:1053E0001C2101A8FBF7B2F81548144901600024FC
:1053F0004460846041F28731C16004618021816131
:10540000FEF78BFB08B1FCF7BAF80D48FEF739FD43
:1054100008B1FCF7B4F8602001900294039405945D
:10542000002201A90648FEF7C0FC08B1FCF7A7F866
:105430000348FEF78FFC08B010BD00000044014097
:10544000C406002010B50C480A4901604FF4E13150
:10545000416000218160C16001610C224261816173
:10546000C161FEF7C9FE002803D0BDE81040FCF77B
:1054700086B810BD001001400C07002010B50C4884
:105480000A4901604FF46131416000218160C160CF
:1054900001610C2242618161C161FEF7ADFE00280D
:1054A00003D0BDE81040FCF76AB810BD00140140FD
:1054B00054070020FEE7FEE710B50446002C14D088
:1054C000D4ED101AC4ED111A94ED0F1A84ED101AD0
:1054D000C4ED060A84ED070A30EEC00A84ED0F0A17
:1054E000207828B1012876D0C1E09FED620A10BD76
:1054F000D4ED010A60EE800AC4ED090A5E488442D8
:1055000002D0483084421BD110EE100A05F05EF83C
:1055100041EC100B02F05CFB9FED581B51EC100BA3
:1055200053EC112B05F01CF812D294ED0A0AD4EDBD
:10553000020A94ED0F1A00EE810A84ED0A0A07E0D0
:10554000D4ED0A0A94ED021A41EE000AC4ED0A0AEB
:1055500094ED0F0AD4ED100A30EE600ADFED490A2F
:1055600020EE200AD4ED0D0A9FED471A00EE810AC5
:1055700084ED0C0A84ED0D0AD4ED030A20EE801AA6
:1055800084ED0B1AD4ED0A0A94ED050AF4EEC00A74
:10559000F1EE10FA02DD84ED0A0A08E0B1EE400AED
:1055A000F4EEC00AF1EE10FA01D284ED0A0A94ED8D
:1055B000090AD4ED0A0A30EE200A30EE010A84ED21
:1055C000080AD4ED040AB4EEE00AF1EE10FA03DDA5
:1055D000C4ED080A4BE009E0F1EE600AB4EEE00A1F
:1055E000F1EE10FA43D2C4ED080A40E070EE410A31
:1055F00094ED012A60EE820AC4ED090A94ED022AB4
:1056000022EE002A84ED0A2AD4ED0D2AC4ED0E2ADA
:10561000D4ED0C2AC4ED0D2AF0EE002A01EE620A48
:1056200030EE210A84ED0C0A94ED031A21EE000AF3
:1056300084ED0B0A70EE820A30EE800AD4ED080A7F
:1056400030EE200A84ED080AD4ED040AB4EEE00A34
:10565000F1EE10FA02DDC4ED080A08E0F1EE600A8E
:10566000B4EEE00AF1EE10FA01D2C4ED080A94EDAE
:10567000080A10BD00000000304700207B14AE4730
:10568000E17A843F0AD7A33B52B87E3F002828D056
:10569000002A26D0017092ED001A80ED011A92EDD9
:1056A000011A80ED021A92ED021A80ED031A80EDC4
:1056B000040AC0ED050A9FED0B0A80ED0E0A80ED8D
:1056C0000D0A80ED0C0A80ED080A80ED0B0A80EDD2
:1056D0000A0A80ED090A80ED110A80ED100A80EDBA
:1056E0000F0A7047000000002DE9F74F82B0F7491C
:1056F0000868026822F001020260F54A1068036837
:1057000023F00103036003E0016821F0010101605F
:10571000EE4800680168C907F6D103E0016821F08E
:1057200001010160EA4800680168C907F6D1E9484B
:10573000E94AEA4BC06C0190E74CE84DE64EE74F72
:105740000068DFF894B3DFF890C3E449483A603367
:1057500018341835303E78374FF400680CF1300CAF
:1057600058454CD9884201D1202041E0904201D1D6
:1057700020203DE0984201D1202039E0A04201D113
:10578000202035E0A84201D1404631E0B04201D1AD
:1057900040462DE0B84201D1404629E0604501D1A4
:1057A000404625E0DFF8349309F13009484502D13D
:1057B0004FF400101CE0DFF82093A9F118094845C8
:1057C00002D14FF4001013E0DFF8109309F19009B3
:1057D000484502D14FF400100AE0DFF8FC9209F1CD
:1057E0004809484502D14FF4001001E04FF0006035
:1057F000DFF8E492A9F14C09C9F80000F1E0DFF804
:10580000DC9209F1A80948454CD9884201D12020F1
:1058100041E0904201D120203DE0984201D120207A
:1058200039E0A04201D1202035E0A84201D1404614
:1058300031E0B04201D140462DE0B84201D14046AE
:1058400029E0604501D1404625E0DFF8909209F15A
:105850003009484502D14FF400101CE0DFF878927F
:10586000A9F11809484502D14FF4001013E0DFF800
:105870006C9209F19009484502D14FF400100AE0FA
:10588000DFF8549209F14809484502D14FF400105D
:1058900001E04FF00060DFF84092A9F15009C9F82B
:1058A00000009EE0DFF8349209F1480948454CD9E0
:1058B000884201D1202041E0904201D120203DE0EA
:1058C000984201D1202039E0A04201D1202035E0CA
:1058D000A84201D1404631E0B04201D140462DE01E
:1058E000B84201D1404629E0604501D1404625E05B
:1058F000DFF8E89109F13009484502D14FF4001072
:105900001CE0DFF8D491A9F11809484502D14FF401
:10591000001013E0DFF8C49109F19009484502D165
:105920004FF400100AE0DFF8B09109F1480948454A
:1059300002D14FF4001001E04FF00060DFF89C91BD
:10594000A9F11009C9F80C004BE0884201D12020D0
:1059500041E0904201D120203DE0984201D1202039
:1059600039E0A04201D1202035E0A84201D14046D3
:1059700031E0B04201D140462DE0B84201D140466D
:1059800029E0604501D1404625E0DFF8509109F15A
:105990003009484502D14FF400101CE0DFF838917F
:1059A000A9F11809484502D14FF4001013E0DFF8BF
:1059B0002C9109F19009484502D14FF400100AE0FA
:1059C000DFF8149109F14809484502D14FF400105D
:1059D00001E04FF00060DFF80491A9F11009C9F867
:1059E000080001984FF48069006858454CD98842F6
:1059F00001D1102041E0904201D110203DE09842B9
:105A000001D1102039E0A04201D1102035E0A84298
:105A100001D1484631E0B04201D148462DE0B842BC
:105A200001D1484629E0604501D1484625E0DFF82C
:105A3000ACE00EF1300E704502D14FF480101CE046
:105A4000DFF894E0AEF1180E704502D14FF48010EB
:105A500013E0DFF888E00EF1900E704502D14FF4AC
:105A600080100AE0DFF870E00EF1480E704502D1B8
:105A70004FF4801001E04FF08060DFF85CE0AEF1A1
:105A80004C0ECEF80000EFE0DFF850E00EF1A80E6B
:105A9000704552D9884201D1102047E0904201D18F
:105AA000102043E0984201D110203FE0A04201D1F4
:105AB00010203BE0A84201D1484637E0B04201D176
:105AC000484633E0B8420BD148462FE00406002098
:105AD00064060020AC0500205864024010600240BB
