:020000040800F2
:100000004050002061020008BB5B0008E54C00087E
:10001000B95B000833140008CD8000080000000020
:10002000000000000000000000000000A101000826
:100030004D1D000800000000FD010008F5790008D2
:100040007B0200087B0200087B0200087B0200089C
:100050007B0200087B020008991D00087B02000853
:100060007B0200089F1D0008A51D00087B020008F8
:100070007B020008111500087B0200087B020008C3
:100080007B0200087B0200087B0200087B0200085C
:10009000351400087B0200087B020008AB1D000835
:1000A0007B0200087B0200087B0200087B0200083C
:1000B0007B0200087B0200087B0200087B0200082C
:1000C0007B0200087B0200087B02000861770008C1
:1000D0007B020008C18000087B0200087B02000848
:1000E0007B0200087B0200087B0200087B020008FC
:1000F0007B0200087B0200087B0200081D15000837
:100100007B0200087B0200087B0200087B020008DB
:100110007B0200087B0200087B020008C57A000809
:100120007B0200087B02000829150008F919000865
:100130007B0200087B0200087B0200087B020008AB
:10014000411400087B0200087B0200087B020008C3
:100150007B0200087B0200087B0200087B0200088B
:100160007B0200087B0200087B0200087B0200087B
:100170007B0200087B0200087B02000800000000F0
:100180007B0200087B020008DFF810D000F028FC9A
:100190000048004775B90008AFF3008040500020C8
:1001A0002C4B19680868B0E8F04F80F30988BFF35A
:1001B0006F8F4FF0000080F311887047000000003F
:1001C00008480068006880F308884FF0000080F35A
:1001D000148862B661B6BFF34F8FBFF36F8F00DF35
:1001E00000BF00BF08ED00E0DFF80C00016841F43B
:1001F00070010160704700BF88ED00E0EFF30980F7
:10020000BFF36F8F134B1A681EF0100F08BF20ED5D
:10021000108A20E9F04F106009B44FF0500080F3CD
:100220001188BFF34F8FBFF36F8F0CF055FC4FF069
:10023000000080F3118809BC19680868B0E8F04F25
:100240001EF0100F08BFB0EC108A80F30988BFF3CE
:100250006F8F704728000020EFF305807047000083
:100260000648804706480047FEE7FEE7FEE7FEE750
:10027000FEE7FEE7FEE7FEE7FEE7FEE7B57A0008E9
:10028000890100082DE9F05F0546002092469B4653
:1002900088460646814640241BE02846414647469C
:1002A000224600F091FA53465A46C01A914110D3A3
:1002B00011461846224600F016F82D1A67EB010881
:1002C0004F4622460120002100F00DF817EB0009EF
:1002D0004E41201EA4F10104DFDC484631462A4687
:1002E0004346BDE8F09F202A04DB203A00FA02F1E1
:1002F000002070479140C2F1200320FA03F3194314
:1003000090407047202A06DBCB17203A41FA02F0D2
:1003100043EAE07306E041FA02F3D040C2F1200262
:10032000914008431946704740EA01039B0703D0F8
:1003300009E008C9121F08C0042AFAD203E011F824
:10034000013B00F8013B521EF9D27047D2B201E0E6
:1003500000F8012B491EFBD270470022F6E710B5CA
:1003600013460A4604461946FFF7F0FF204610BD23
:10037000421C10F8011B0029FBD1801A70472DE99F
:10038000FE4F804681EA0300C00F0C46009021F02A
:10039000004123F00045B8EB0200A94105D24046D8
:1003A000214690461C460B46024623F0004010436F
:1003B00047D0270DC7F30A00C3F30A510290401A31
:1003C000019040286BDAC3F3130040F4801B0098BF
:1003D000924620B10023D2EB030A63EB0B0B01988A
:1003E0005946C0F140025046FFF77DFF06460D46D4
:1003F00050465946019AFFF785FF10EB080061410E
:10040000002487EA115284EAE7731A4340D0009A25
:1004100062B3019A012A4FEA075215DC001B61EB17
:1004200002014FF0004202EA0752CDE90042001CEF
:1004300041F5801132462B4600F01CFA03B0BDE8AE
:10044000F08F40462146F9E7001B61EB0201001CDA
:1004500041F5801300185B412018A2F5001747EB07
:10046000030140EAD570B6196D4111E06D084FEAFD
:10047000360645EAC0754FEA0752001B61EB0201E0
:10048000001C41F5801149084FEA30000019514124
:1004900032462B4603B0BDE8F04F00F0DCB90098BF
:1004A000012240000023D0EB020263EBE0730098CE
:1004B00021464FEAE074B8EB000061EB0401E9E784
:1004C00083F000435BE781F0004158E72DE9FE4FE0
:1004D00081EA030404F0004421F0004100944FF04D
:1004E000000B23F0004350EA01045ED052EA0304FB
:1004F0005BD0C3F30A54C1F30A552C44A4F2F3347D
:100500000194A0FB0254C1F3130141F48011C3F321
:10051000130343F4801301FB024400FB034E840ADF
:10052000970A44EA815447EA8357A4FB0768029577
:100530008D0A05FB07854FEA932C04FB0C54270515
:10054000029D4FEA065847EA1637B5EB08056EEBF1
:10055000070C870E920E47EA811742EA8312A7FB27
:100560000201B6EB0B0164EB00042B0D43EA0C33E4
:100570005E1844EB1C50DA465146E7FB0201C5F316
:1005800013044FEA0B3343EA14534FEA0432019C3D
:1005900043EA0603A4F10C040294009CCDE900B4E4
:1005A00000F068F903B0BDE8F08F00200146F9E7DC
:1005B0002DE9F04D81EA030404F0004B21F00045E1
:1005C00014464FF0000A23F0004150EA050220D003
:1005D00054EA01021DD0C5F30A570246C5F31303BE
:1005E000C1F31300C1F30A5640F4801543F480139D
:1005F000A7EB0608101BD64608F2FD3873EB050082
:1006000002D308F1010801E092185B41B8F1000F34
:1006100003DA00200146BDE8F08D00204FF4801180
:10062000064684460EE0171B73EB050705D3121B25
:1006300063EB050306434CEA010C49084FEA30001E
:1006400092185B4150EA0107EDD152EA030012D043
:1006500082EA040083EA0501084305D0101BAB4180
:1006600006D20122002306E000224FF0004302E000
:100670006FF0010253101AEB06004CEB085110EB1F
:100680000A0041EB0B01BDE8F04D00F0E4B80EB5F7
:10069000C10F80EAE0700844CA07002140F23343EA
:1006A0008DE80E000A460B4600F0E4F803B000BDEA
:1006B0000EB540F2334102910021CDE900110A4606
:1006C0000B4600F0D7F803B000BD70B5C1F30A5275
:1006D00001F000450024C1F3130140F2FF3341F45F
:1006E00080119A4201DA002070BD40F233439A42F1
:1006F000A2F2334203DC524200F066F800E0904080
:100700002C43F1D0404270BD00F0004230F0004078
:100710000AD0C10D01F56071C0F3160042EA015123
:10072000C20840071143704700200146704700008F
:1007300030B5041E71F1000404DB4FF00044404268
:1007400064EB0101141E73F1000405DB1C464FF03D
:100750000043524263EB04038B4208BF824230BD28
:1007600030B5041E71F1000404DB4FF00044404238
:1007700064EB0101141E73F1000405DB1C464FF00D
:100780000043524263EB0403994208BF904230BDDC
:1007900001F0004330B421F0004150EA010206D0DC
:1007A0000A0DA2F56072C1F31301002A02DC30BC0D
:1007B00000207047440F44EAC104C100E01830BC77
:1007C00000EBC25000F010B8202A04DB203A21FAD6
:1007D00002F00021704721FA02F3D040C2F120025A
:1007E00091400843194670470029A8BF7047401C34
:1007F000490008BF20F00100704710B4B0FA80FC37
:1008000000FA0CF050EA010404BF10BC704749B173
:10081000CCF1200421FA04F411FA0CF118BF0121E3
:1008200021430843A3EB0C01CB1D4FEA00614FEAC3
:10083000102042BF002010BC704700EBC350104492
:100840000029A4BF10BC7047401C490008BF20F01D
:10085000010010BC704710B5141E73F1000408DAD3
:10086000401C41F1000192185B411A4301D120F074
:10087000010010BD2DE9F04D92469B4611B1B1FA31
:1008800081F202E0B0FA80F220329046FFF72BFDB1
:1008900004460F4640EA0A0041EA0B0153465A4615
:1008A000084313D0114653EA010019D0C8F14002A1
:1008B0005046FFF789FF05460E46504659464246C8
:1008C000FFF711FD084305D0012004E0204639461A
:1008D000BDE8F08D0020054346EAE0762C4337431F
:1008E0000A986305E40AA0EB08000022FD0A44EA26
:1008F00047540A3002D500200146E9E701051019E6
:100900006941DDE9084500196941BDE8F04DA2E7FC
:1009100070B521F0004303430CD0C1F30A55002405
:10092000D5EB040564EB0403D617AD1AB34102DB23
:100930000020014670BD201841EB025170BD2DE929
:10094000F04D00231A461B1A8A4103DB00200146A2
:10095000BDE8F08DC1F30A52C1F3130141F48015D3
:100960004FF0000BD10702D100186D41521E002735
:10097000044640F2FF11384601EB620A3E468046CB
:10098000024600204FF48011FFF71EFFC21971418B
:10099000BB1846EB0100B4EB030C75EB000C04D361
:1009A000E41A65EB000517460E46241908F101000C
:1009B0006D4180463428E3DDF91946EB0600091B3A
:1009C000A84103D24FF0FF32134601E00022134644
:1009D0001BEB070046EB0A51BDE8F04DFFF73BBFAC
:1009E000064C074D06E0E06840F0010394E807007C
:1009F00098471034AC42F6D3FFF7CAFB24DB00085B
:100A000044DB000870B58C1810F8015B15F0070383
:100A100001D110F8013B2A1106D110F8012B03E097
:100A200010F8016B01F8016B5B1EF9D12B0705D49F
:100A30000023521E0DD401F8013BFAE710F8013BE8
:100A4000CB1A921C03E013F8015B01F8015B521E04
:100A5000F9D5A142D8D3002070BD07F021BD07F021
:100A600023BF09F069BEF0EE400AF5EEC00AF1EED0
:100A700010FA02DDB0EE600A7047B1EE600AFBE7E3
:100A8000002803D09FED020A80ED000A70470000A5
:100A900000000000002803D0B3EE060A80ED000A33
:100AA0007047000070B52DED0C8B84B006460C46E7
:100AB00015469FED990AF0EE408A9FED970AB0EE39
:100AC000409A9FED950AF0EE40BA9FED930AF0EE42
:100AD000409A9FED910AB0EE40AA0EB104B11DB943
:100AE00004B0BDEC0C8B70BD8C48FFF7C9FF8C487F
:100AF000FFF7D0FF8A48D0ED000A9FED8A1A60EE1A
:100B0000810AB0EE600A00F025F9F0EE408A28EE86
:100B1000A80AF0EE408A8248D0ED000AB0EE001A32
:100B200060EE810A9FED7F1A60EE810AB0EE600AE6
:100B300000F010F9B0EE409A29EE090AB0EE409AA2
:100B4000DFED790AB7EE000A00EEA80ADFED770ABA
:100B500000EEC90ADFED760A20EE200A754880ED26
:100B6000000A6E4890ED000ADFED730A80EE201A4D
:100B7000B7EE000A31EE000A20EE000A6D48D0ED13
:100B8000000A80EE801A6D4880ED001A94ED000A8C
:100B9000B5EEC00AF1EE10FA0DD194ED010AB5EEF2
:100BA000C00AF1EE10FA06D194ED020AB5EEC00AC1
:100BB000F1EE10FA46D09FED580AB0EE408A0020C0
:100BC000019002900390D4ED000A60EEA00A94ED2B
:100BD000011AD4ED011A41EE210A94ED021AD4ED66
:100BE000021A41EE210AB0EE600A00F0A9F8B0EE58
:100BF000408A94ED000A20EE080A8DED010A94ED7A
:100C0000010A20EE080A8DED020A94ED020A20EE98
:100C1000080A8DED030ADDED010AF1EE600AB0EE7F
:100C2000600AFFF71AFFF0EE409A9DED031AF0EE0E
:100C3000410A9DED021AB0EE410AFFF710FFB0EE37
:100C400040AA07E09FED340AF0EE409A9FED320A89
:100C5000B0EE40AA95ED000AB5EEC00AF1EE10FA2A
:100C60000DD195ED010AB5EEC00AF1EE10FA06D1EC
:100C700095ED020AB5EEC00AF1EE10FA3CD0B0EEE6
:100C8000690A00F067F8B0EE408AB0EE690AFFF733
:100C9000E8FEB0EE40DAB0EE4A0A00F05BF8F0EEA3
:100CA00040AAB0EE4A0AFFF7DCFEB0EE40BA28EEEA
:100CB0002A0AD5ED010A20EE200AD5ED000A0DEE34
:100CC000200A68EE0B0A95ED021A00EE810AB0EEDA
:100CD00040CA95ED010A20EE0B0AD5ED020A0AEE94
:100CE000E00AF0EE40CAF0EE6C0AB0EE4C0AFFF7F4
:100CF000B6FEF0EE40BA03E09FED070AF0EE40BA10
:100D0000B0EE4A1AF0EE690AB0EE6B0A304609F00E
:100D10005DFC00BFE4E600000000000024020020AB
:100D20002802002035FA8E3CC1BFAD3B9DF8C53688
:100D30002F7C1C412C020020506CC24A3002002043
:100D400010B508F005FEB7EE001AC1EE000AB0EECD
:100D5000600A10BD09F034BD2DE9F0412DED028B84
:100D60009AB00546B0EE408A0E46174698460020D7
:100D70001790189019901490159016904DB146B197
:100D80003FB1B8F1000F04D0B5EEC08AF1EE10FA11
:100D900005D100201AB0BDEC028BBDE8F08196EDC4
:100DA000000A8DED170A96ED010A8DED180A96EDF1
:100DB000020A8DED190A97ED000A8DED140A97EDE0
:100DC000010A8DED150A97ED020A8DED160A17AA94
:100DD00014A9284609F04CFA402104A8FFF7BDFAEF
:100DE00000200090019002900390002417A904A80D
:100DF0000BF070FC00BF30E004A800EB041090ED95
:100E0000000AD5ED000A20EE200A04A800EB041029
:100E1000D0ED010A95ED011A00EE810A04A800EB5D
:100E20000410D0ED020A95ED021A00EE810A04A822
:100E300000EB0410D0ED030A95ED031A00EE810AD1
:100E400020EE080AF0EE000A80EE201A684600EB59
:100E5000840080ED001A601CC4B2042CCCDB00249A
:100E600010E005EB840090ED000A684600EB84007A
:100E7000D0ED000A30EE200A05EB840080ED000A78
:100E8000601CC4B2042CECDB28460BF017FA0120DE
:100E900080E7000010B52DED048BF0EE608AB0EE17
:100EA000419A9FED338A3348F0EE480A0BF048FA36
:100EB000F0EE480AB0EE680A2F480BF041FAF0EE67
:100EC000480AB0EE490A2D480BF03AFA2B48DFEDFC
:100ED0002C2A9FED2C2A90ED001A2748DFED2A1AC4
:100EE000D0ED000A234890ED000A284809F0AAFC3A
:100EF00026492748274A91ED030A274CB5EEC00A38
:100F0000F1EE10FA0ED191ED000A80ED000A91ED9C
:100F1000010A00F0B5FA106091ED020A00F0D4FA6F
:100F2000206012E010EE101AB1F17E5F0DD19FED3E
:100F30001B0A80ED000A9FED1A0A00F0A1FA10606A
:100F40009FED180A00F0C0FA206092ED000A02201E
:100F5000B8EEC00A00F07AFE94ED000A0120BDEC64
:100F6000048BB8EEC00ABDE8104000F06FBE000070
:100F70000AD7A33C080200200C0200201002002027
:100F8000CBA18341AC1C8C4114AE80418C4A002023
:100F9000FC010020000200200402002052A40E42A6
:100FA000009B7243603874423E4C02E001200AF01C
:100FB000DBFD94ED000AB5EEC00AF1EE10FAF5D0B3
:100FC000394E3068F0B906F0C3FC00F06DFD00F05A
:100FD00095FD4FF47A700BF0ADFC344D344C01218B
:100FE000344800F0E5FE0221324800F0E1FE012025
:100FF0000AF0BAFD28680028F1D020680028EED059
:10100000012030602C4D2D4E2D4C2E4FDFF8B88036
:10101000DFF8B89039E0002006F07AFC207801284B
:1010200001D106F075FC2078022801D106F070FC91
:101030002078032801D106F06BFC207804280DD11C
:10104000012006F065FC4FF4FA7A50460AF08CFD58
:10105000002006F05DFC50460AF086FD287810B9A5
:10106000002006F037FC2878012801D106F032FC78
:10107000307810B9002006F01DFC3078012801D12D
:1010800006F018FC01200AF06FFD97ED001AD8ED6C
:10109000000A99ED000AFFF7FDFE20780028BDD177
:1010A000B9E70000B000002090000020CC4A0020EA
:1010B000F44A0020B4040020ED010020EE010020DD
:1010C000EC0100201C020020180200201402002065
:1010D00001221021014801F0C1BE000000000240C1
:1010E00000221021014801F0B9BE000000000240BA
:1010F0007047000001221146014801F0AFBE000018
:101100000004024000220121014801F0A7BE0000B6
:101110000004024030B5437804781B021BB223431D
:1011200000EE103A1B4CB8EEC00AD4ED000A20EED7
:10113000200A81ED000AC37885781B021BB22B437D
:1011400000EE103AF8EEC00A94ED000A60EE800A54
:10115000C1ED010A437904791B021BB2234300EE5F
:10116000903AF8EEE00A20EE800A81ED020A017A58
:10117000C3790904807941EA0321014300EE101A82
:10118000DFED050AB8EE400A20EE200A82ED000AE3
:1011900030BD00005801002000401C4270470AF09A
:1011A000E3BC0AF069B9000010B542780378120276
:1011B00012B21A4300EE102A124BB8EEC00AD3ED59
:1011C000010A20EE200A81ED000AC278847812021A
:1011D00012B2224300EE102AF8EEC00A93ED010A83
:1011E00060EE800AC1ED010A42790079120212B262
:1011F000024300EE902AF8EEE00A20EE800A81ED2C
:10120000020A10BD5801002010B5FFF771FFFFF76B
:10121000C5FF09F08DFD08B1802402E009F0FAFC59
:10122000044609F04BFF10B144F0400010BD09F036
:10123000D7FE204310BD00002DE9FC4104460D46B9
:101240001646002000900190FFF74AFF922000F020
:10125000BFF806226946122000F09CF8FFF738FF1D
:101260009DF801009DF80010000200B2084300EE56
:10127000100A474FB8EEC00AD7ED000A20EE200A48
:1012800085ED000A9DF803009DF80210000200B2EF
:10129000084300EE100AF8EEC00A97ED000A60EE6F
:1012A000800AC5ED010A9DF805009DF804100002B2
:1012B00000B2084300EE900AF8EEE00A20EE800A41
:1012C00085ED020AFFF71EFF08226946002000F0A4
:1012D00061F8FFF70FFF9DF800000F2830D19DF84F
:1012E00003009DF80210000200B2084300EE100A4D
:1012F000D7ED010AB8EEC00A20EE200A84ED000AFC
:101300009DF805009DF80410000200B2084300EEAD
:10131000100AF8EEC00A97ED010A60EE800AC4EDEB
:10132000010A9DF807009DF80610000200B208436C
:1013300000EE900AF8EEE00A20EE800A84ED020A40
:10134000FFF7CEFEA22000F043F8022269462220D9
:1013500000F020F8FFF7BCFE9DF800009DF801109A
:10136000C00040EA5110B0F5806F02DBA0F50060CC
:1013700000B200EE100AB4EE001AF8EEC00AB3EEA6
:10138000070A00EE810A86ED000ABDE8FC81000034
:101390005801002070B50D46144640F0800000F062
:1013A00017F806E0552000F013F805F8010B641E4D
:1013B000E4B2002CF6D170BD10B50C4640F08000B0
:1013C00000F006F8552000F003F8207010BD000072
:1013D00001B582B04FF47A700090012301AA02A9EE
:1013E000024802F0EFFD9DF804000EBD4406002007
:1013F00002784078D20042EA5010B0F5806F02DBEC
:10140000A0F5006000B200EE100AB4EE001AF8EE8B
:10141000C00AB3EE070A00EE810A81ED000A7047A8
:1014200010B50C46FFF7D4FF2046BDE81040FFF78B
:10143000CFBFFEE7014800F03BBF00008C04002056
:10144000014800F035BF0000B40400200A4C02E05F
:1014500001200AF089FB94ED000AB5EEC00AF1EE16
:1014600010FAF5D0054809F071FF044809F0B8FEFC
:1014700001200AF079FBF8E7B0000020B445002015
:101480009FED061AC0EE010A9FED050A20EE800AC4
:10149000BDEEC00A10EE100A704700000000B44311
:1014A00000FC7F4600EE100ADFED050A9FED051AED
:1014B000B8EEC00A60EE200A80EE810A7047000094
:1014C0000000B44300FC7F469FED061AC0EE010AFF
:1014D0009FED050A20EE800ABDEEC00A10EE100A4C
:1014E000704700000000B44300FC7F4600EE100A85
:1014F000DFED050A9FED051AB8EEC00A60EE200A7E
:1015000080EE810A704700000000B44300FC7F4673
:10151000014801F019BA000084050020014801F0DB
:1015200013BA0000E405002010B500F007F8BDE88C
:101530001040014801F008BA9C0600202DE9F05F38
:10154000FA48FB4AFA4DC06CFA4EF94F0068DFF8D2
:10155000E4C3DFF8DC83DFF8DC93DFF8D4A3DFF843
:10156000D4B3DFF8CCE3F34C483D60361837D114E0
:101570000CF1180CA8F1300809F178090AF1300AC9
:101580000BF1300BAEF1180E90423ED9E84A543AB6
:101590001368A04201D1202235E0A84201D12022C7
:1015A00031E0B04201D120222DE0B84201D1202209
:1015B00029E0604501D10A4625E0404501D10A46AF
:1015C00021E0484501D10A461DE0504501D10A46B7
:1015D00019E0584502D14FF4001214E0704502D1D1
:1015E0004FF400120FE0D34A9032904202D14FF4F0
:1015F000001208E0CE4A4832904202D14FF4001265
:1016000001E04FF000621340C3E0CA4AA8329042A2
:101610003ED9C74A583A1368A04201D1202235E08A
:10162000A84201D1202231E0B04201D120222DE098
:10163000B84201D1202229E0604501D10A4625E0C7
:10164000404501D10A4621E0484501D10A461DE046
:10165000504501D10A4619E0584502D14FF4001215
:1016600014E0704502D14FF400120FE0B14A9032FD
:10167000904202D14FF4001208E0AD4A4832904245
:1016800002D14FF4001201E04FF00062134080E0FD
:10169000A84A483290423ED9A64A103A5368A0421E
:1016A00001D1202235E0A84201D1202231E0B04210
:1016B00001D120222DE0B84201D1202229E060454D
:1016C00001D10A4625E0404501D10A4621E04845BE
:1016D00001D10A461DE0504501D10A4619E058459E
:1016E00002D14FF4001214E0704502D14FF4001201
:1016F0000FE0904A9032904202D14FF4001208E07D
:101700008B4A4832904202D14FF4001201E04FF070
:10171000006213403DE0874A103A1368A04201D1AD
:10172000202235E0A84201D1202231E0B04201D18F
:1017300020222DE0B84201D1202229E0604501D1CC
:101740000A4625E0404501D10A4621E0484501D13D
:101750000A461DE0504501D10A4619E0584502D11C
:101760004FF4001214E0704502D14FF400120FE064
:10177000704A9032904202D14FF4001208E06C4A55
:101780004832904202D14FF4001201E04FF0006263
:101790001340002B72D0664A904235D9A04201D145
:1017A00020212DE0A84201D1202129E0B04201D121
:1017B000202125E0B84201D1202121E060451FD041
:1017C00040451DD048451BD0504519D0584502D141
:1017D0004FF4001114E0704502D14FF400110FE0F6
:1017E00054499031884202D14FF4001108E0504929
:1017F0004831884202D14FF4001101E04FF00061FE
:101800004B484C380160ADE04A4AA832904236D984
:10181000A04201D120212DE0A84201D1202129E0C0
:10182000B04201D1202125E0B84201D1202121E0A0
:1018300060451FD040451DD048451BD0504519D0AC
:10184000584502D14FF4001114E0704502D14FF415
:1018500000110FE037499031884202D14FF4001156
:1018600008E033494831884202D14FF4001101E0C9
:101870004FF000612E485038016073E0AEE02D4A11
:101880004832904235D9A04201D120212DE0A84212
:1018900001D1202129E0B04201D1202125E0B84228
:1018A00001D1202121E060451FD040451DD0484591
:1018B0001BD0504519D0584502D14FF4001114E007
:1018C000704502D14FF400110FE01A49903188425F
:1018D00002D14FF4001108E015494831884202D185
:1018E0004FF4001101E04FF0006112481038C16060
:1018F00038E0A04201D1202131E0A84201D12021CD
:101900002DE0B04201D1202129E0B84201D12021AF
:1019100025E0604523D0404521D048451FD05045A3
:101920001DD0584508D14FF4001118E0440600209E
:101930005864024010600240704502D14FF400111B
:101940000DE02749884202D14FF4001107E02549F4
:10195000884202D14FF4001101E04FF000612048AD
:10196000A0388160204C207880070CD5207820F0AA
:1019700002002070207840F00400207001221146FF
:101980001A4801F06BFA6078194D80070CD5607821
:1019900020F002006070607840F004006070012266
:1019A0001021284601F05AFAA07880070CD5A078BB
:1019B00020F00200A070A07840F00400A070012286
:1019C0001021284601F04AFA09F08EFE20784007DF
:1019D00004D50848016841F001010160BDE8F09FAD
:1019E000A0600240A0640240A00000200004024069
:1019F00000000240103C0140014800F0A5BF00007B
:101A0000FC0600200168CAB2103A1823B2FBF3F2B8
:101A1000064B9B5CC3656FF30901032A02D9091DBC
:101A2000816500E08165806D70470000B8CF0008D7
:101A300010B5014600208A6A8B694FF0C074002BF4
:101A40000ED0B3F5005F1AD062B3012A2AD0022A61
:101A500028D0032A03D1C96AC90100D5012010BDCD
:101A60001AB1012A06D0022AF9D1C96AC901F6D5EC
:101A7000012010BDC96AA142FBD1012010BD52B1A5
:101A8000012A0AD0022A06D0032AF7D1C96AA14244
:101A9000F4D1012010BD012010BDC96AC901FBD5D8
:101AA000012010BD012010BD1149002008604860D0
:101AB0008860C8609FED0F0A81ED040A81ED050A78
:101AC00081ED060AC86181ED080A81ED090A0A491B
:101AD000086048608860C86081ED040A81ED050AED
:101AE00081ED060AC86181ED080A81ED090A704797
:101AF000F44A002000000000CC4A002010B537480E
:101B000090ED000A364880ED000A364991ED000A52
:101B100080ED010A344991ED000A80ED020A334854
:101B20002F4A0121D0ED000A314890ED000A3148DA
:101B300004F03CF9304890ED000A304880ED000A8E
:101B40002F4991ED000A80ED010A2E4991ED000A1E
:101B500080ED020A2C48294A0121D0ED000A2B48C9
:101B600090ED000A2A4804F021F92A4890ED000A75
:101B7000294880ED000A294991ED000A80ED010A0B
:101B8000274991ED000A80ED020A2648224A0121E8
:101B9000D0ED000A244890ED000A244804F006F92C
:101BA000234890ED000A234880ED000A224991ED78
:101BB000000A80ED010A214991ED000A80ED020A38
:101BC0001F481C4A0121D0ED000A1E4890ED000A72
:101BD000BDE810401C4804F0E9B800009401002062
:101BE0009C4A0020980100209C010020A4010020B4
:101BF000A00100201C4B0020A8010020A84A0020C2
:101C0000AC010020B0010020B8010020B401002088
:101C1000AC4B0020BC010020B44A0020C0010020D1
:101C2000C4010020CC010020C8010020644B00202A
:101C3000D0010020C04A0020D4010020D80100209B
:101C4000E0010020DC010020F44B002010B5B0EED4
:101C5000402A2DED028B01289FED311A9FED318A2C
:101C60002DD0022859D1304CF0EE420A94ED010AF1
:101C7000B8EEC00A03F008FCF0EE420A2B4803F06D
:101C80009DFF2B48F1EE400AC0ED000A94ED050AD5
:101C9000284803F093FF84ED090AB0EE402AB0EE25
:101CA000480ABDEC028BF0EE401ABDE81040B0EEE1
:101CB000401AF0EE400A02211F4803F0FFBB1F4C00
:101CC000F0EE420A94ED010AB8EEC00A03F0DCFB24
:101CD000F0EE420A1A4803F071FF1A4880ED000A3C
:101CE00094ED051AF0EE400A1748B0EE410A03F0F1
:101CF00065FF84ED090AB0EE402AB0EE480ABDEC5B
:101D0000028BF0EE401ABDE81040B0EE401AF0EE43
:101D1000400A0121084803F0D1BBBDEC028B10BD85
:101D200000FC7F4600000000F44A0020F44B002035
:101D3000F8010020644B0020B4040020CC4A0020AD
:101D4000AC4B0020F40100201C4B00207047000029
:101D500000B589B000910020029003900820049003
:101D6000FF208DF81C008DF81D008DF81E008DF8E9
:101D70001F008DF820008DF821008DF82200FD2035
:101D80008DF8230006AB07AA6946024800F00DF95A
:101D900009B000BDB4040020012000F06BBF082092
:101DA00000F068BF102000F065BF202000F062BF87
:101DB00000B589B0009100200290039008200490A3
:101DC000FF208DF81C008DF81D008DF81E008DF889
:101DD0001F008DF820008DF821008DF82200FC20D6
:101DE0008DF8230006AB07AA6946024800F0DDF82B
:101DF00009B000BDB404002072B6FEE710B502467B
:101E00000878C0F30010106088784B7840EA03200F
:101E10005060CB780C791B0143EA141393604B7923
:101E2000097901F00F0143EA0121D16000F6334046
:101E300043F6FF71081A5060002802DA0844506027
:101E400004E090FBF1F301FB130050601021F2EE6F
:101E5000090ABAEE090A50680AF0F4FB82ED040A96
:101E60000C21DFED130A9FED130A90680AF0EAFBDC
:101E700082ED050A0C21F3EE020ABBEE020AD068DD
:101E80000AF0E0FB82ED060A5068D06192ED050A87
:101E900082ED080A0848B7EE001AD0ED000A31EECC
:101EA000601A20EE011A00EE201A82ED051A10BD0C
:101EB00000003442000034C2E801002010B50246A0
:101EC0000878C0F30010106088784B7840EA03204F
:101ED0005060CB780C791B0143EA141393604B7963
:101EE000097901F00F0143EA0121D160A0F6223007
:101EF000506043F6FF71002802DA0844506004E0A5
:101F000090FBF1F301FB130050601021F2EE090A7F
:101F1000BAEE090A50680AF095FB82ED040A0C211A
:101F2000DFED130A9FED130A90680AF08BFB82ED38
:101F3000050A0C21F3EE020ABBEE020AD0680AF091
:101F400081FB82ED060A5068D06192ED050A82EDB0
:101F5000080A0948B7EE001AD0ED000A31EE601AFF
:101F600020EE011A00EE201A82ED051A10BD0000C5
:101F700000003442000034C2E401002010B501200A
:101F800009F0F2FDFBE790F82020012A07D0022A91
:101F900005D0416A41F48021416201207047006808
:101FA00042690A43426100207047F0B590F8205022
:101FB0000468A468012D07D0022D05D0416A41F4C0
:101FC000802141620120F0BD04F0806504F00066CC
:101FD000354301D1E50053D5C4F301640125A54083
:101FE0001D608B684FF4C0759BB1CE6805EB04177C
:101FF00033434E6843EAC6030668F3514FF4C27395
:10200000076803EB04130E69FE50097D012909D00E
:102010000DE00E88CB6805EB041743EA46530668CB
:10202000F351EBE70168CE5846F48076CE50117933
:10203000D379567941EA036193791B0443EA062375
:1020400019434FF4C676036806EB041699511178CC
:10205000D37841EA0361937852781B0443EA022261
:1020600011434FF4C473026803EB0413D1500068AA
:1020700005EB0411425842F0010242500020F0BD2D
:10208000416A41F4001141620120F0BD10B590F8A1
:102090002020012A07D0022A05D0416A41F480217C
:1020A0004162012010BD3C4800F50070026842F01A
:1020B00001020260026822F47C52026002684B6AEC
:1020C00042EA032202600A7D02F01F0301229A40C5
:1020D000C3699343C361A0F50070CB69B3B9D0F86D
:1020E0000C329343C0F80C328C894B6864F31F4365
:1020F0004C6900EBC404C4F840320C890B6864F3EB
:102100001F434C6900EBC404C4F84432CB69012B73
:1021100016D1D0F80C321343C0F80C320C884B683F
:1021200064F31F434C6900EBC404C4F840320C89CB
:10213000CB6864F31F434C6900EBC404C4F8443219
:102140008B697BB1D0F804321343C0F804320B69B9
:1021500073B1D0F814321343C0F81432096A01295C
:102160000CD010E0D0F804329343C0F80432EEE70C
:10217000D0F814329343C0F81432EFE7D0F81C12B1
:102180001143C0F81C12D0F8001221F00101C0F870
:102190000012002010BD000000640040704770B5C0
:1021A00090F82040012C07D0022C05D0416A41F460
:1021B00080214162012070BD21B104682469A40717
:1021C0002AD003E00468E468A4071FD04FF4D87451
:1021D000056804EB01142D5905F0040595600DB355
:1021E00005682D59ED08556005682C5904F0020466
:1021F000D4604FF4DA74056804EB01142E5906F02C
:102200000F06082E13D30825156114E0416A41F426
:1022100000114162012070BD416A41F40011416228
:10222000012070BD05682D596D0D1560DCE72D5935
:1022300005F00F05156105682D59C5F30725956152
:1022400005682C59240C54614FF4DC72046802EBCD
:102250000112A4581C700468A458240A5C70046815
:10226000A458240C9C700468A258120EDA704FF423
:10227000DE72046802EB0112A4581C710468A458B1
:10228000240A5C710468A458240C9C710468A25848
:10229000120EDA7131B10068016941F0200101616B
:1022A000002070BD0068C16841F02001C160F7E7FF
:1022B0002DE9F05F0546002428684669D0F80490AF
:1022C0008768D0F80CA0D0F810B0D0F81880F107CB
:1022D00048D0F90714D001218160B80703D52846FA
:1022E00000F0D2FA0CE0780702D54FF4006407E062
:1022F000380702D54FF4805402E0284600F0C3FAB4
:10230000F80516D529684FF480708860B80503D5A4
:10231000284600F0BBFA0CE0780502D544F40054DE
:1023200007E0380502D544F4804402E0284600F076
:10233000ACFAF80316D529684FF480308860B803EA
:1023400003D5284600F0A4FA0CE0780302D544F443
:10235000004407E0380302D544F4803402E0284604
:1023600000F095FA300707D55FEACA6004D544F457
:10237000007429681020C86070074FF0080707D55F
:102380005FEA0A7004D52868C760284600F0B8F9EB
:10239000B00706D52868C068800702D0284600F03C
:1023A000B1F9700607D55FEACB6004D544F48064C8
:1023B000296810200861B00607D55FEA0B7004D5C4
:1023C00028680761284600F02FFAF00606D528682D
:1023D0000069800702D0284600F027FAB00308D52C
:1023E0005FEAC96005D5296810204860284600F0DA
:1023F0001DFAF00307D55FEA097004D52868476025
:10240000284600F046FA300446D55FEA497040D5C8
:10241000F00504D55FEAC87001D044F00104B005AE
:1024200004D55FEA887001D544F00204700504D534
:102430005FEA487001D544F00404300529D518F04E
:10244000700F26D008F07000402815D006DC102848
:1024500009D020280AD0302816D10AE050280ED002
:10246000602811D10EE044F008040DE044F010049F
:102470000AE044F0200407E044F0400404E044F0A3
:10248000800401E044F480742868816921F07001BF
:102490008161296804204860002C05D0686A2043C7
:1024A00068622846FFF77AFEBDE8F09F70B50446E3
:1024B000002C03D094F8200010B104E0012070BD7E
:1024C000204600F09DF82068016841F0010101609C
:1024D00000F0CCFC054605260CE000F0C7FC401BD4
:1024E0000A2807D9606A40F40030606284F82060EE
:1024F000012070BD20684068C007EED020680168E8
:1025000021F00201016000F0B1FC05460CE000F092
:10251000ADFC401B0A2807D9606A40F400306062B5
:1025200084F82060012070BD206840688007EED4E8
:10253000207E01283FD02068016821F080010160E1
:10254000607E01283DD02068016821F040010160D3
:10255000A07E01283BD02068016821F020010160A5
:10256000E07E012839D02068016841F01001016047
:10257000207F012837D02068016821F00801016020
:10258000607F012835D02068016821F004010160D6
:10259000D4E902010843D4E90412114308436168F5
:1025A000491E08432168C86100206062012084F848
:1025B0002000002070BD2068016841F080010160AA
:1025C000BEE72068016841F040010160C0E7206873
:1025D000016841F020010160C2E72068016821F034
:1025E00010010160C4E72068016841F00801016042
:1025F000C6E72068016841F004010160C8E70000F7
:102600002DE9F04186B00446142101A8FDF7A5FE8E
:10261000364B374ADFF8D08018682168344C0326DF
:102620000227401C103200254FF0090C414527D1EC
:102630001860012807D1106840F000701060106821
:1026400000F000700090206840F0080020602068D2
:1026500000F0080000900196029703950496CDF8CB
:1026600014C001A9234800F011FB00220521142009
:1026700001F002F8142000F0F1FF06B0BDE8F0818F
:10268000DFF874804145F8D1116841F08061116034
:10269000116801F0806100911860012807D110686D
:1026A00040F000701060106800F00070009020682A
:1026B00040F002002060206800F0020000906020DE
:1026C0000190029703950496CDF814C001A90B4818
:1026D00000F0DCFA00220521402000F0CDFF402070
:1026E00000F0BCFFC9E700000064004014000020B7
:1026F00030380240000C02400068004000040240F4
:102700007047000010B58AB0044601AB03AA00214F
:102710002046FFF744FD3D48844256D103990846C0
:10272000A1F50071013905D0012903D0022901D09A
:1027300003294AD1401EC1B235480170354A02EB27
:1027400001110A880A819DF805209DF8043042EAAB
:1027500003220A809DF807209DF8063042EA0322F2
:102760004A809DF809209DF8083042EA03228A80B9
:102770009DF80A208A710A88B1F90830D31A40F608
:10278000F672D34202DA4A89521C4A810A88B1F9A8
:102790000830D21A40F6F6739A4202DD4A89521E78
:1027A0004A810A88B1F90830D21AB1F90A3002EB2D
:1027B0004332CA604268B2F17E5F06D19FED160ACD
:1027C00080ED010A00204881C8601448844210D17D
:1027D000039800280DD19DF8040011280BD0122871
:1027E0000ED001210D48FFF7B3FA02210B48FFF785
:1027F000AFFA0AB010BD01A90948FFF75FFBF8E77F
:1028000001A90848FFF7FAFAF3E700008C0400205A
:1028100084010020344A002000000000B40400209D
:10282000CC4A0020F44A002070477047704770B5CA
:10283000044694F82000012805D0606A40F4002086
:102840006062012070BD022084F8200020680168C9
:1028500021F00101016000F009FB05460DE000F0E8
:1028600005FB401B0A2808D9606A40F4003060620A
:10287000052084F82000012070BD20684068C00752
:10288000EDD1606270BD7047704770477047704708
:10289000704770472DE9F0410446A76D00F0E6FA55
:1028A000054694F835000026022806D08020606591
:1028B00084F834600120BDE8F0812068016821F0CF
:1028C000160101602068416921F080014161206C9E
:1028D00008B9A06C20B12068016821F008010160EE
:1028E0002068016821F0010101600BE000F0BEFAF0
:1028F000401B052806D92020343420620320607054
:102900002670D8E720680068C007EFD134343F2034
:1029100094F828108840B86001206070267000206C
:10292000C9E790F83510022903D0802141650120C4
:102930007047052180F835100068016821F0010119
:1029400001600020704700002DE9F84304464FF075
:102950000009CDF800906F484FF416510068B0FBA5
:10296000F1F7A56D2E6894F85C00082202FA00F1D8
:10297000314210D02068016849070CD5016821F068
:102980000401016094F85C0002FA00F1A960606D36
:1029900040F00100606594F85C104FF0010808FAFF
:1029A00001F0304208D021684969090604D5A860C1
:1029B000606D40F00200606594F85C10042088406F
:1029C000304208D021680968890704D5A860606D85
:1029D00040F00400606594F85C101020884030429C
:1029E00020D02168096809071CD5A8602068016803
:1029F00049030CD50068000304D4216C91B1204632
:102A000088470FE0A16C69B1204688470AE0016859
:102A1000C90503D4016821F008010160216C09B1E6
:102A20002046884794F85C102020884030424CD0E3
:102A300021680968C90648D5A86094F835000528BA
:102A40000BD020680168490330D50068000328D402
:102A5000616C51B32046884737E02068016821F057
:102A6000160101602068416921F080014161206CFC
:102A700008B9A06C20B12068016821F0080101604C
:102A800094F85C103F208840A86084F8358084F872
:102A90003490216D00293BD001B02046BDE8F043C1
:102AA0000847E16B09B1204688470EE00168C90577
:102AB00007D4016821F01001016084F8358084F8A2
:102AC0003490E16B09B120468847606D00281FD023
:102AD000606DC00714D0052084F8350020680168B7
:102AE00021F0010101600098401C0090B84203D819
:102AF00020680068C007F6D184F8358084F83490E7
:102B0000E16C002904D001B02046BDE8F04308473D
:102B1000BDE8F883240000202DE9F041044600F0D0
:102B2000A5F905465CB1022084F83500002684F83A
:102B300034602068016821F0010101600DE001208E
:102B4000BDE8F08100F092F9401B052805D920204E
:102B50006065032084F83500F2E720680068C0074C
:102B6000F0D121680A6820480240D4E901031843E3
:102B7000D4E903352B43184363691843A369184309
:102B8000E3691843236A18431043626A042A03D195
:102B9000D4E90B231A43104308602068406920F0F1
:102BA0000700656A29460543012704290DD1A06A5B
:102BB0000543E06A48B12046FEF73AFF28B14020BD
:102BC000606584F835700120BAE7206845612046C9
:102BD000FEF718FF94F85C203F2191408160666504
:102BE00084F835700020ABE73F8010F010B51F4C23
:102BF00010281BD0202828D0082831D0012814D133
:102C000060710AF0B7F801280FD004F11401A0692F
:102C100009F0B8FE6069002807D015494FF08050D0
:102C20000860BFF34F8FBFF36F8F10BD607840F027
:102C300001006070A07840F00100A07020790028A9
:102C4000F3D0BDE8104008F04FBD207840F00100FF
:102C5000207020790028E8D0BDE8104008F044BD7D
:102C6000E07840F00100E07010BD0000A0000020FE
:102C700004ED00E010B504490A68024202D0086081
:102C8000FFF7B4FF10BD0000143C01402DE9F84FE0
:102C90000022DFF89C914FF0010803274FF00F0C42
:102CA00009F1040AA9F1040B08FA02F50B682B409C
:102CB000AB426ED10C7904F00304012C01D0022C3C
:102CC00015D18668540007FA04FE26EA0E06D1F8EC
:102CD0000CE00EFA04FE4EEA060EC0F808E0446866
:102CE000AC430D79C5F300159540254345600C793B
:102CF000E443A40708D0C568540007FA04F6B543B6
:102D00008E68A6402E43C6600C7904F00304022CA2
:102D100011D1D40800EB8406356A5407E40E0CFA8E
:102D200004FE25EA0E05D1F810E00EFA04FE4EEA84
:102D3000050EC6F820E00568540007FA04F6B5430E
:102D40000E7906F00306A6402E4306604C6814F484
:102D5000403F67D0374C256845F48045256024689E
:102D600004F480440094344C22F003052E19D6F864
:102D7000085894074FEA147E0CFA0EF4A5432F4C22
:102D8000A04201D1002424E02D4CA04202D1012414
:102D90001FE047E02B4CA04201D1022419E02A4C4D
:102DA000A04201D1032414E0284CA04201D1042404
:102DB0000FE0274CA04201D105240AE0254CA04297
:102DC00001D1062405E0244CA04201D1072400E0F3
:102DD000082404FA0EF42C43C6F80848D9F8004039
:102DE0009C434D68ED0200D51C43C9F80040DAF859
:102DF00000409C434D68AD0200D51C43CAF800401A
:102E0000DBF800409C434D68AD0300D51C43CBF874
:102E10000040074D083D2C689C434E68F60300D5E2
:102E20001C432C60521C102AFFF43EAFBDE8F88F03
:102E3000083C01404438024000300140000002409C
:102E40000004024000080240000C02400010024052
:102E50000014024000180240001C0240002A01D069
:102E600081617047090481617047000001488068F2
:102E7000704700001800002070B50446002C04D0F4
:102E800094F83D00002510B106E0012070BD84F8E3
:102E90003C50204600F0ACFA242084F83D00206825
:102EA000016821F0010101602068016841F40041DE
:102EB00001602068016821F40041016000F0D8FC45
:102EC0004F4B6168994203D84E49884203D304E0CE
:102ED0004D49884201D2012070BD4C49B0FBF1F14F
:102EE0002268566826F03F060E43566062689A4292
:102EF00001D8491C07E04FF4967251434FF47A729F
:102F0000B1FBF2F1491C2268166A26F03F063143F4
:102F100011626168994210D84900401EB0FBF1F27D
:102F2000521CC2F30B02042A01D2042022E0B0FB9F
:102F3000F1F0401CC0F30B001CE0A268F2B301EBFF
:102F4000C10303EB0116431EB3FBF6F35B1C43F412
:102F500080431B0549D092B301EBC10202EB011182
:102F6000401EB0FBF1F0401CC0F30B0040F4804069
:102F700040F400402168CA694CF6FF739A4310433D
:102F8000C861D4E9071001432068026822F0C0023A
:102F900011430160D4E9030101432068826848F2CB
:102FA000FF339A4311438160D4E90510014320683F
:102FB000C26822F0FF021143C16001E00EE016E09A
:102FC0002068016841F0010101602564202084F837
:102FD0003D00256384F83E50002070BD01EB4106A2
:102FE000431EB3FBF6F35B1CB3E70120C2E701EB22
:102FF0004101401EB0FBF1F0401CC0F30B00B7E7ED
:10300000A086010080841E0000093D0040420F00A0
:103010002DE9FF4F83B00446DDE911988A469346B7
:10302000109FFFF723FF054694F83D00202803D0AA
:10303000022007B0BDE8F08F1923012298492046ED
:10304000009501F095FF08B10220F2E794F83C00EA
:10305000012807D0012084F83C0020680168C907D6
:1030600002D005E00220E4E7016841F001010160BF
:103070002068016821F400610160222084F83D008D
:10308000402084F83E00002626646762A4F82A9057
:10309000608D20858348E062CDE900855A4651461F
:1030A0002046069B01F036FE08B10120C1E7208DC5
:1030B00048B1012810D002281CD0206841698069DD
:1030C0000290794FE1E020684169816902910168CD
:1030D00041F400710160F4E72068016821F4806127
:1030E00001602068416981690291016841F40071C1
:1030F0000160E6E72068016821F4806101602068D2
:10310000016841F4006101602068416980690290B2
:10311000D7E703287ED801280BD002281FD04346CA
:10312000002239462046009501F022FFF0B301202D
:103130007FE72A464146204601F0D4FF08B101202E
:1031400077E720680069616A0870606A401C606205
:10315000208D401E2085608D401E608595E0434691
:10316000002239462046009501F002FF08B10120F7
:103170005FE72068016841F4007101602068006920
:10318000616A0870606A401C6062218D491E218559
:10319000618D491E6185216809690170606A401C62
:1031A0006062208D401E2085608D00E002E0401EA0
:1031B00060856AE02068016821F480610160206810
:1031C0000069616A0870606A401C6062208D401E60
:1031D0002085608D401E608543460022394620468A
:1031E000009501F0C5FE08B1012022E720680168C2
:1031F00041F40071016020680069616A0870606ACA
:10320000401C6062218D491E2185618D491E6185AA
:10321000216800E00BE009690170606A401C60628F
:10322000208D401E2085608D401E60852DE02A4641
:103230004146204601F056FF08B10120F9E620681A
:103240000069616A0870606A401C6062208D401EDF
:1032500081B22185608D401E608520684269D2431D
:10326000520712D4032903D1016821F4806101605F
:1032700020680069616A0870606A401C6062208D85
:10328000401E2085608D401E6085208D00287FF4C3
:1032900040AF20203C346070A67026700020C8E645
:1032A000020010000000FFFF040001002DE9FF4FA5
:1032B00083B00446DDE911988A469346109DFFF7D6
:1032C000D5FD064694F83D00202803D0022007B023
:1032D000BDE8F08F1923012243492046009601F0F2
:1032E00047FE08B10220F2E794F83C00012807D01D
:1032F000012084F83C0020680168C90702D005E07D
:103300000220E4E7016841F00101016020680168E2
:1033100021F400610160212084F83D00402084F800
:103320003E00002727646562A4F82A90608D2085FE
:103330002E48E062CDE900865A4651462046069B5B
:1033400001F088FD80B30120C1E7324641462046A6
:1033500001F003FF48B1206C042804D12068016803
:1033600041F4007101600120B1E7606A21680078D2
:103370000861656A6D1C6562208D401E80B22085E3
:10338000618D491E618523685969C94349070BD47A
:1033900050B128781861606A401C6062208D401E20
:1033A0002085608D401E6085208D0028CDD132465D
:1033B0004146204601F0B0FD48B1206C042804D1FC
:1033C0002068016841F40071016001207FE71F342B
:1033D00054F81F0C016841F4007101602020A077AF
:1033E000E7776777002072E7020010000000FFFF18
:1033F0002DE9F04387B00546142102A8FCF7ADFF84
:103400004A4C494A296849480327103400264FF09E
:1034100012084FF00409914251D1016841F0200196
:103420000160006800F0200001900297CDF80C8048
:1034300004960597CDF8189002A93D48FFF726FCA1
:10344000206840F480002060206800F48000019033
:10345000394C384820604FF06069C4F80490A66089
:10346000E660071527616661A661E6614FF44038A2
:10347000C4F8208066622046FFF74EFB08B1FEF7D5
:10348000BBFCAC63A5632B482B4C783060342060C8
:10349000C4F804904020A060E66027616661A661E0
:1034A000E661C4F8208066622046FFF735FB08B16C
:1034B000FEF7A2FC6C63A56307B0BDE8F0831F4A6A
:1034C0009142F9D1016841F004010160016801F005
:1034D00004010191016841F001010160006800F000
:1034E0000100019050150290CDF80C800125049543
:1034F0000597CDF8189002A91148FFF7C7FB2802DD
:103500000290CDF80C8004950597CDF8189002A98B
:103510000C48FFF7BBFB206840F4000020602068E7
:1035200000F400000190C7E7005800403038024026
:10353000001402404060024084050020005C00400E
:1035400000080240000002400248816802781144ED
:10355000816070471800002010B50B48016841F4E5
:1035600000710160016841F480610160016841F40B
:1035700080710160032000F09FF80F2000F006F832
:1035800000F050F8002010BD003C024030B587B07C
:10359000054600241E48016841F0200101600068D2
:1035A00000F02000009001A902A800F03DF9059864
:1035B000A8B100F05DF940001649B0FBF1F1491ED9
:1035C0001648154A026040F2E732C2604160046169
:1035D0008460846100F068FE04461CB115E000F0D0
:1035E00047F9E9E70D4800F0F5FE04466CB93720CD
:1035F00000F034F8102D07D200222946372000F0C1
:103600003BF80748056000E0012407B0204630BDC4
:103610004038024040420F00001400407C08002067
:103620001C00002082B00C48016841F48041016018
:10363000006800F4804001900748001F016841F0D5
:1036400080510160006800F08050019000220F213D
:10365000901E02B000F010B844380240002809DB88
:1036600000F01F02012191404009800000F1E0209C
:10367000C0F8001170470000F0B40D460D4B1B68F8
:10368000C3F30223C3F10704042C00D90424191D39
:10369000072901D2002300E0DB1E012606FA04F10F
:1036A000491E294099409E40761E16403143F0BC89
:1036B00004F038BD0CED00E000F00701054A106889
:1036C0004FF6FF03184040EA012003490843106009
:1036D000704700000CED00E00000FA052DE9F0470E
:1036E00004460D46002C13D0DFF82891D9F80000CD
:1036F000EFB200F00700A8420CD289F80070D9F8A8
:10370000000000F00700A84204D00120BDE8F087C7
:103710000120FBE72068404E810712D5400703D502
:10372000306840F4E05030602078000703D53068FE
:1037300040F4604030603068A16820F0F000084339
:1037400030602078C00731D03349606808390128DB
:1037500008D002280BD0032809D0096889070BD4A8
:103760000120D3E70968890306D40120CEE7096860
:10377000890101D40120C9E7316821F00301014327
:103780003160FFF773FB804641F2883A07E0FFF7AC
:103790006DFBA0EB0800504501D90320B6E7306867
:1037A000616800F00C00B0EB810FF0D1D9F8000097
:1037B00000F00700A84209D989F80070D9F8000084
:1037C00000F00700A84201D001209FE720784007C1
:1037D00005D53068E16820F4E05008433060207877
:1037E000000706D53068216920F4604040EAC10036
:1037F000306000F05DF83168084AC1F30311515C94
:10380000C8400749086007480068FFF7BFFE00206E
:103810007CE70000003C024008380240C0CF0008AE
:10382000240000201C0000200F2202600B4A1368B5
:1038300003F003034360136803F0F003836013682D
:1038400003F4E053C360126802F46042D2080261DC
:103850000348006800F0070008607047083802401D
:10386000003C02400148006870470000240000202E
:1038700000B5FFF7F7FF04490968044AC1F3822144
:10388000515CC84000BD000008380240D0CF00089D
:1038900000B5FFF7E7FF04490968044AC1F3423164
:1038A000515CC84000BD000008380240D0CF00087D
:1038B00010B51748006810F00C01164816D0164BCA
:1038C000042912D0082911D1114C241F216801F0BC
:1038D0003F02216849020AD52068C0F38810A0FB86
:1038E00003010023FCF7CEFC09E0184610BD216857
:1038F0000023C1F38811A1FB0001FCF7C3FC216880
:10390000C1F30141491C4900B0FBF1F010BD0000BA
:10391000083802400024F400001BB7002DE9F84FDE
:103920000446002C13D02078DFF8A083C007A8F14C
:10393000040556D008F104000168C1F38101012992
:103940000CD00068C0F38100022803D00DE00120F4
:10395000BDE8F88FD8F80000400206D5286880033B
:103960003FD5606870BB0120F2E76068B0F5803F2A
:1039700010D0B0F5A02F12D0286820F48030286035
:10398000286820F4802028606068E0B1FFF76EFAB4
:10399000064614E0286840F480302860F4E7286880
:1039A00040F480202860286840F480302860EBE7ED
:1039B000FFF75CFA801B642801D90320C8E7286858
:1039C0008003F5D50DE0FFF751FA064606E0FFF754
:1039D0004DFA801B642801D90320B9E728688003C9
:1039E000F5D42078BA4F80074FF0000948D5B74882
:1039F000001D016811F00C0F08D00068C0F38100B1
:103A0000022813D1D8F8000040020FD4286880079C
:103A100004D5E068012801D0012099E728682169D0
:103A200020F0F80040EAC100286029E0E068B8B161
:103A300001203860FFF71AFA064606E0FFF716FA8B
:103A4000801B022801D9032082E728688007F5D56A
:103A50002868216920F0F80040EAC10028600FE0E2
:103A6000C7F80090FFF702FA064606E0FFF7FEF9F6
:103A7000801B022801D903206AE728688007F5D453
:103A80002078000729D5DFF844A2924861690AF13D
:103A9000700A89B101210160FFF7E8F9064606E0E6
:103AA000FFF7E4F9801B022801D9032050E7DAF878
:103AB00000008007F4D510E0C0F80090FFF7D6F9B9
:103AC000064606E0FFF7D2F9801B022801D9032041
:103AD0003EE7DAF800008007F4D42078400778D574
:103AE0004FF0000A79483C300068C0000BD477489A
:103AF0003C30016841F080510160006800F0805066
:103B000000904FF0010ADFF8D0B1DBF80000C005EB
:103B100014D4DBF8000040F48070CBF80000FFF70D
:103B2000A5F9064606E0FFF7A1F9801B022801D996
:103B300003200DE7DBF80000C005F4D5634EA06854
:103B40006C3601280FD0052812D0306820F0010013
:103B50003060306820F004003060A068F8B1FFF7F2
:103B600085F9834617E0306840F001003060F4E7E3
:103B7000306840F004003060306840F00100306090
:103B8000EBE7FFF773F9A0EB0B0141F288308142BC
:103B900001D90320DCE630688007F2D510E0FFF79A
:103BA00065F9834609E0FFF761F9A0EB0B0141F2EB
:103BB0008830814201D90320CAE630688007F2D4F8
:103BC000BAF1010F05D141483C30016821F0805124
:103BD0000160A069C0B33D49091D09684FF0FF3677
:103BE000C1F38101022946D0022805D0C7F86090B0
:103BF000FFF73CF904463AE0C7F86090FFF736F962
:103C0000814607E0FFF732F9A0EB0900022801D94D
:103C100003209DE628688001F4D4D4E90701084315
:103C2000616AA26A890106EB520241EA0241084335
:103C300094F82C1040EA0160C8F8000001203866B2
:103C4000FFF714F9044607E03DE0FFF70FF9001B0A
:103C5000022801D903207BE628688001F5D532E0EF
:103C6000FFF704F9001B022801D9032070E6286839
:103C70008001F5D427E0012823D0D8F80000E269BC
:103C800000F4800191421AD1226A00F03F01914272
:103C900015D147F6C071626A0140B1EB821F0ED1A7
:103CA000A26A00F4403106EB5202B1EB024F06D19A
:103CB00094F82C1000F07060B0EB016F03D001207D
:103CC00046E6012044E6002042E6000004380240B7
:103CD00000004742800E47420070004070470000DD
:103CE00038B50446206842688168C9434B060AD546
:103CF000CB0708D1D3435B0605D4216C01B0204625
:103D0000BDE8304008478B0708D4D3431B0605D4D1
:103D1000616C01B02046BDE8304008478B0603D5F2
:103D20004B0601D5CB0551D4D3439B064ED44B064D
:103D30000AD494F85130032B49D0636D43F0040347
:103D40006365C368836800938B0609D4636D43F091
:103D50000103636583680093036823F040030360F5
:103D6000C80506D4606D40F0080060652068806872
:103D70000090606D002829D02068416821F0E001A2
:103D80004160012084F85100900701D4D00722D06F
:103D90002068416821F003014160114DE06C40B1A1
:103DA0000565E06CFEF7BDFD18B1606D40F04000A8
:103DB0006065A06C002809D00565A06CFEF7B1FD18
:103DC000002803D0606D40F04000606538BDC168D8
:103DD0008068009038BD2046FFF780FF38BD0000A6
:103DE0006D77000870B50446002C09D0606A002584
:103DF00040B125616561A56294F8510040B10CE0C5
:103E0000012070BD6068B0F5827FF4D0E561F2E713
:103E100084F85050204600F045F8022084F8510004
:103E20002068016821F040010160A088218900F428
:103E3000827001F404410843A18901F40061084340
:103E4000217C01F002010843217D01F001010843BA
:103E5000218B01F400710843217F01F038010843F0
:103E600094F8201001F080010843218D01F40051E5
:103E7000084321680860A069042101EA104094F811
:103E8000241001F010010843216848602068C169CE
:103E900021F40061C1616565012084F851000020B2
:103EA00070BD00002DE9F04387B00546142102A83B
:103EB000FCF753FA3D492868884274D100263C48F3
:103EC000016841F480510160006800F48050019065
:103ED00037481438016841F002010160016801F0BF
:103EE00002010191016841F001010160006800F0E8
:103EF00001000190182002904FF00208CDF80C80CC
:103F00004FF00109CDF8109003240594052706977A
:103F100002A92848FEF7BAFE80200290CDF80C8056
:103F2000CDF810900594069702A92348FEF7AEFE3F
:103F3000234C224820604FF0C068C4F80480A6607B
:103F4000E660071527616661A661E6614FF44030BF
:103F5000206266622046FEF7DFFD08B1FDF74CFFE8
:103F6000EC64A5631548164C183060342060C4F822
:103F700004804020A060E66027616661A661E6617A
:103F8000C002206266622046FEF7C6FD08B1FDF75A
:103F900033FFAC64A563002205212320FFF76CFBEF
:103FA0002320FFF75BFB07B0BDE8F0830030014042
:103FB00044380240000402400000024040640240D5
:103FC0009C0600202DE9FF4F81B004460E9E9346CB
:103FD0001F460125FEF74AFF804694F851006168AC
:103FE00001280AD0B1F5827F03D1A16809B904285C
:103FF00003D0022005B0BDE8F08F0298A0B3BBF15A
:10400000000F32D0380030D094F8500001282ED064
:104010004FF0010A84F850A094F85100042802D00F
:10402000052084F851004FF00009C4F85490C4F8FA
:1040300038B0E787A78702982063E786A786C4F889
:104040004090C4F8449020680168490603D4016890
:1040500041F040010160E068B0F5006F09D0606890
:10406000F0B3012F4DD082E0FFE70120C2E702202C
:10407000C0E7606808B1012F3CD1206B216800883F
:10408000C860206B801C2063E08E401EE08631E01B
:104090002068816889070DD5E18E59B1012D09D1BC
:1040A000216B0988C160206B801C2063E08E401E5C
:1040B000E086002520688168C9070BD0E18F49B1EF
:1040C000C068A16B0880A06B801CA063E08F401EBD
:1040D000E0870125FEF7CAFEA0EB0800B04200E031
:1040E0000FE007D3701C05D084F851A084F85090DD
:1040F00003207FE7E08E0028CAD1E08F0028C7D1D7
:104100003BE0206B216800780873206B401C206323
:10411000E08E401EE0862AE02068816889070DD580
:10412000E18E59B1012D09D1216B09780173206B02
:10413000401C2063E08E401EE086002520688168D8
:10414000C9070BD0E18F49B1C068A16B0870A06BA3
:10415000401CA063E08F401EE0870125FEF786FE2D
:10416000A0EB0800B04201D3701C12D18EB1E08EDA
:104170000028D1D1E08F0028CED1424631462046DA
:1041800003F0FCFA58B12020606584F850900120BB
:1041900030E784F851A084F8509003202AE7A06803
:1041A00018B92068C1688068009084F851A084F82C
:1041B0005090606D08B101201CE700201AE770479D
:1041C000704710B590F83C20012A22D0012280F8D7
:1041D0003C20CA6800238C6822F4407222434C6859
:1041E00022F4806222430C6822F4006222430C69AC
:1041F00022F4805222434C6922F400522243C969BE
:1042000022F480420A4301684A6480F83C3000206E
:1042100010BD022010BD000070B590F83C20012AAE
:1042200031D0012680F83C60022280F83D200268EF
:104230005468936824F070050C682C435460134C48
:104240000268A24214D0B2F1804F11D0104CA242A9
:104250000ED0104CA2420BD00F4CA24208D00F4CF3
:10426000A24205D00E4CA24202D00E4CA24204D172
:1042700023F080034968194391603C304670002167
:104280000170002070BD022070BD000000000140E0
:104290000004004000080040000C00400004014001
:1042A000004001400018004010B50446002C03D027
:1042B00094F83D0010B107E0012010BD002084F803
:1042C0003C00204600F016F8022084F83D00211D35
:1042D000206803F0FDFB01203D3460726070A07027
:1042E000E07020716071A071E07120722070002078
:1042F00010BD000008B50068124A1349904208D169
:10430000086840F001000860086800F001000090B3
:1043100008BD0E4A904208D1086840F002000860CB
:10432000086800F00200009008BD094A9042FBD1E5
:10433000086840F400300860086800F4003000901D
:1043400008BD000000000140443802400004014064
:104350000044014090F83D10012901D00120704730
:10436000022180F83D1000681349884214D0B0F152
:10437000804F11D0114988420ED0114988420BD08C
:104380001049884208D01049884205D00F49884218
:1043900002D00F49884209D1816801F0070106293E
:1043A00008D0016841F00101016003E0016841F0BB
:1043B000010101600020704700000140000400403E
:1043C00000080040000C0040000401400040014093
:1043D0000018004090F83D10012901D001207047DD
:1043E000022180F83D100168CA6842F00102CA60EB
:1043F00000681449884214D0B0F1804F11D012499E
:1044000088420ED0114988420BD01149884208D009
:104410001049884205D01049884202D00F4988428D
:1044200009D1816801F00701062908D0016841F02F
:104430000101016003E0016841F001010160002019
:1044400070470000000001400004004000080040E8
:10445000000C0040000401400040014000180040F2
:1044600070B50446002594F83C00012817D00126B9
:1044700084F83C60022084F83D002068826822F0C5
:10448000770222F47F4282600868502838D00DDC21
:10449000202853D005DC90B3102811D14EE0022023
:1044A00070BD30284AD040280AD13DE0602831D084
:1044B00070280CD0B0F5805F03D0B0F5005F12D04B
:1044C00001253C34667000202070284670BDCB6802
:1044D000D1E90121206803F076FB2068816841F072
:1044E00077018160EDE7CB68D1E90121206803F015
:1044F0006AFB2068816841F480418160E1E71DE04A
:10450000CA684968206803F041FC5021206803F024
:1045100064FBD6E7CA684968206803F048FC60215C
:10452000206803F05AFBCCE7CA684968206803F0AA
:104530002DFC4021206803F050FBC2E722680146B1
:10454000104603F04AFBBCE770472DE9F0410446F2
:104550002068C56806694FF00007B10714D5A907A0
:1045600012D5F91E0161012020772068806980073B
:1045700003D02046FFF7E8FF05E0204600F0F6F8FC
:10458000204600F086F92777700717D5680715D5FC
:1045900021686FF00400086102202077206880699C
:1045A00010F4407F03D02046FFF7CEFF05E0204601
:1045B00000F0DCF8204600F06CF92777300716D5BC
:1045C000280714D521686FF00800086104202077BF
:1045D0002068C069800703D02046FFF7B5FF05E0DB
:1045E000204600F0C3F8204600F053F92777F00684
:1045F00017D5E80615D521686FF01000086108206E
:1046000020772068C06910F4407F03D02046FFF770
:104610009BFF05E0204600F0A9F8204600F039F99C
:104620002777F00708D0E80706D021686FF001006F
:104630000861204600F09CF9300608D5280606D50A
:1046400021686FF0800008612046FFF7B8FD700612
:1046500008D5680606D521686FF04000086120463D
:1046600000F090F9B0060AD5A80608D521686FF0C9
:10467000200008612046BDE8F041FFF7A1BDBDE87C
:10468000F081000070B586B00446142101A8FBF744
:1046900064FE2E4A216800242D48022501269142FD
:1046A00027D1016841F001010160016801F00101B9
:1046B0000091016841F010010160006800F01000F5
:1046C00000904FF440600190029503940494059685
:1046D00001A92048FEF7DAFA4FF420600190029514
:1046E00003940494059601A91B48FEF7CFFA06B07F
:1046F00070BD1A4B0322994212D1016841F48071B6
:104700000160006800F480700090602001900295C4
:1047100003940494059201A91148FEF7B7FAE6E75D
:10472000104B9942E3D1016841F02001016000681B
:1047300000F0200000904020019002950396049222
:10474000059201A90848FEF7A1FAD0E70000014050
:1047500030380240000002400010024000040140D6
:10476000002002400044014000140240704770B530
:1047700004460D46002694F83C0001280FD0012085
:1047800084F83C006AB1042A1FD0082A32D00C2ACF
:1047900044D00126002084F83C00304670BD022041
:1047A00070BD2946206803F021FA2068816941F034
:1047B000080181612068816921F00401816120681C
:1047C00081692A6911438161E4E72946206803F081
:1047D00041FA2068816941F4006181612068816942
:1047E00021F480618161206881692A6941EA02219E
:1047F0008161CFE72946206803F066FA2068C16925
:1048000041F00801C1612068C16921F00401C16162
:104810002068C1692A691143C161BBE72946206844
:1048200003F08AFA2068C16941F40061C16120681F
:10483000C16921F48061C1612068C1692A6941EAC6
:104840000221C161A6E710B50446002C03D094F8FC
:104850003D0010B107E0012010BD002084F83C00AD
:10486000204600F015F8022084F83D00211D206844
:1048700003F02EF901203D3460726070A070E0708A
:1048800020716071A071E07120722070002010BD55
:104890007047704710B50446002909D004290AD092
:1048A00008290BD094F8410001280AD0012010BD3E
:1048B00094F83E00F8E794F83F00F5E794F84000DC
:1048C000F2E70220A9B3042937D0082938D084F8A8
:1048D00041000122206803F069F91E4920681E4A40
:1048E000884201D0904203D1436C43F400434364B7
:1048F0002068884213D0B0F1804F10D01749884209
:104900000DD0174988420AD01649884207D09042F4
:1049100005D01549884202D01449884213D18168D4
:1049200001F00701062912D0016841F00101016080
:104930000DE0FFE784F83E00CBE784F83F00C8E7CE
:1049400084F84000C5E7016841F0010101600020E2
:1049500010BD0000000001400004014000040040C0
:1049600000080040000C00400040014000180040DA
:1049700000680349884201D1FEF7E6BD7047000098
:10498000001400407047704770470000F8B50446B7
:1049900022681068D168536900F00F06002E08D114
:1049A000850606D58D0604D52046BDE8F84003F0FF
:1049B0004CBA0025002E66D003F0010601F4907772
:1049C000374360D0C20705D0CA0503D5626C42F0F8
:1049D00001026264420705D5DA0703D0626C42F037
:1049E00002026264820705D5DA0703D0626C42F0E6
:1049F00004026264020707D501F02002324303D0AB
:104A0000626C42F008026264626C002A31D0800657
:104A100004D5880602D5204603F017FA20684069BD
:104A2000C0F38010616C090700D438B3204603F04E
:104A3000D8F92068406940061CD52068143050E839
:104A4000001F21F0400140E80012002AF5D1E06B80
:104A500060B159490165E06BFDF763FF002808D09C
:104A6000E06B016D01B0BDE8F04008472046FFF75C
:104A70008BFFF8BD2046FFF787FFF8BD2046FFF704
:104A800083FF6564F8BD236B012B7DD1C3067BD505
:104A9000CB067FD510685068009050694FF0200316
:104AA00040064FF0020644D5E16B0868406880B2CA
:104AB0000028E7D0A28D8242E4D9E085C869B0F52C
:104AC000807F2DD020680C3050E8001F21F48071C9
:104AD00040E80012002AF5D12068143050E8001F89
:104AE00021F0010140E80012002AF5D120681430BD
:104AF00050E8001F21F0400140E80012002AF5D1E3
:104B000084F84230256320680C3050E8001F21F003
:104B1000100140E80012002AF5D1E06BFDF7BAFE63
:104B20006663A08DE18D401A81B22046FFF72BFF0E
:104B3000F8BDA08DE18D401A81B2E08D0028F7D03C
:104B40000029F5D020680C3050E8002F22F4907234
:104B500040E80027002FF5D12068143050E8002FDE
:104B600022F0010240E80027002FF5D184F84230FE
:104B7000256320680C3050E8002F22F0100240E836
:104B80000023002BF5D100E004E066632046FFF728
:104B9000FAFEF8BD020606D50A0604D52046BDE891
:104BA000F84003F05DBA4006F3D54806F1D520463B
:104BB000BDE8F84003F03CB9D37D000870B5044669
:104BC000002C04D094F84100002510B106E001202B
:104BD00070BD84F84050204600F024F8242084F86A
:104BE00041002068C16821F40051C160204603F0F3
:104BF00091F92068016921F49041016120684169BF
:104C000021F02A0141612068C16841F40051C1606E
:104C10006564202084F8410084F842006563002028
:104C200070BD0000F0B587B00446142102A8FBF760
:104C300094FB2049206888423AD100271E48016829
:104C400041F010010160006800F0100001901A4866
:104C50001438016841F002010160016801F00201AD
:104C60000191016841F001010160006800F001005C
:104C70000190802002900226039604970325059553
:104C80000724069402A90D48FEF700F830020290AE
:104C9000039604970595069402A90948FDF7F6FFC7
:104CA000002205212520FEF7E7FC2520FEF7D6FC93
:104CB00007B0F0BD0010014044380240000402403B
:104CC0000000024090F84230202B01D002207047B3
:104CD00021B11AB10023036303F0A6B90120704784
:104CE00070477047FEE701684A69D24352050FD406
:104CF0006FF480624A61002140F8301F2022427325
:104D00008173026942F0040202610173012070475D
:104D1000002070472DE9F84F04460B9E0F46904641
:104D20001D462068016841F48061016020680168C7
:104D300041F48071016000964FF0011A0022514643
:104D400020460A9B00F014F94FF4007940B1206826
:104D50000068C00501D5C4F840900320BDE8F88F75
:104D6000216807F0FE000861DFF8E4B033465946D9
:104D700020460A9A00F052F908B10120EEE72068B7
:104D8000416980690090324620460A9900F0E5F9B1
:104D900048B1206C042804D12068016841F40071F6
:104DA00001600120DAE7284608F0FF0501280DD050
:104DB00021684FEA18200861324620460A9900F01F
:104DC000CCF968B1206C042803D007E020680561A5
:104DD00008E02068016841F4007101600120BDE72E
:104DE00020680561324620460A9900F0B6F948B1BC
:104DF000206C042804D12068016841F4007101602E
:104E00000120ABE72068016841F4807101600096E1
:104E10000022514620460A9B00F0AAF838B12068CB
:104E20000068C00501D5C4F84090032096E72168CA
:104E3000F8B240F0010008613346594620460A9A0C
:104E400000F0ECF808B1012088E7002086E70000B8
:104E5000020001002DE9F8430446DDE908970D46FC
:104E6000164698462068016841F4807101604B46FF
:104E700000224FF001112046009700F079F848B168
:104E800020680068C00502D54FF40070206403203C
:104E9000BDE8F883216805F0FE0008613B464A46FC
:104EA0001C49204600F0BAF808B10120F0E720685C
:104EB0004169806900903A464946204600F04DF924
:104EC00048B1206C042804D12068016841F40071C5
:104ED00001600120DCE7F5B2B8F1010F0CD02168C8
:104EE000300A08613A464946204600F036F968B172
:104EF000206C042803D007E02068056108E02068E2
:104F0000016841F4007101600120C1E7206805617A
:104F10000020BDE70200010070B504460D461646AC
:104F20001FE02046FFF7DFFE08B1012070BD681CBE
:104F300017D0FDF79BFF801BA84200D88DB92068D1
:104F40004069C04340070CD5002044F8300F2021B1
:104F50006173A073216941F0200121612073012058
:104F600070BD20684069C0434007DAD4002070BD9E
:104F70002DE9F0470446DDF820900D4690461E4688
:104F8000C5F307472FE0701C2DD0FDF76FFFA0EB96
:104F90000900B04200D836BB012F17D020688069C5
:104FA00025EA00000004000C1BD0002040451AD167
:104FB000002044F8300F20216173A073216941F073
:104FC0002001216120730120BDE8F087206840693D
:104FD00025EA00000004000C01D00020E6E70120D3
:104FE000E4E70120E2E7012F0BD02068806925EA81
:104FF00000000004000C0FD000204045C3D000206A
:10500000E2E72068406925EA00000004000C01D0B6
:105010000020F2E70120F0E70120EEE72DE9F0475C
:1050200004460D46164698464FF000094FF0200AF8
:10503000C5F3074743E020684069C043400517D4E3
:105040002068016841F40071016021686FF480609C
:105050004861C4F8309084F83DA084F83E90206CFC
:1050600040F00400206484F83C900120BDE8F08703
:10507000701C24D0FDF7FAFEA0EB0800B04200D867
:10508000EEB9012F14D02068806925EA00000004E1
:10509000000C14D0C4F8309084F83DA084F83E9001
:1050A000206C40F02000206484F83C900120DDE773
:1050B0002068406925EA00000004000CEAD1012FB5
:1050C00008D02068806925EA00000004000CB2D1F5
:1050D0000020CBE72068406925EA00000004000CAE
:1050E000F6D0A8E72DE9F04104460D461646002704
:1050F0004FF020082AE04069C043C0060FD4216861
:105100006FF010004861276384F83D8084F83E709A
:10511000206C206484F83C700120BDE8F081FDF72C
:10512000A5FE801BA84200D885B920684069C0430D
:1051300040060BD544F8307F84F80D80A7732069B2
:1051400040F02000206127730120E6E720684169D4
:10515000C9434906CFD40020DFE770B504460D46A9
:1051600016461FE02046FFF7BEFD08B1012070BDC6
:10517000681C17D0FDF77AFE801BA84200D88DB9B5
:1051800020684069C04300060CD5002044F8300F69
:1051900020216173A073216941F0200121612073F6
:1051A000012070BD20684069C0430006DAD40020A9
:1051B00070BD000008B5072006F0D6FC02E06420B0
:1051C00006F0D2FCFCF720F80028F8D102E06420B9
:1051D00006F0CAFC06F090FB0028F8D19B4AA2F129
:1051E0001005101D9246291D8346FCF725F82B4615
:1051F000A3F14C0205F16C08A2F10C01A1F10C0025
:10520000CDF8008006F002FADFED910A9FED910AD9
:10521000914A002105F1880000F0C8FDA5F14C027B
:10522000A2F10C0101F11800FBF73CFC002006F094
:10523000D5FC07F05BFD894EB06189491020C8613B
:105240000846FEF7CFFD08B1FCF7D6FD83490822DA
:105250002831A1F1080002F0FDF9012030719FED25
:10526000810A7A4F143787ED050A9FED7F0A87ED93
:10527000060A9FED7E0A87ED070A06F0CDFB4FF088
:10528000FF394946012007F0F1F90128F9D13078BA
:10529000400720D5307820F0040030706F48594620
:1052A0002930FBF781FF95ED050AD7ED050A30EEB1
:1052B000600A85ED050A95ED060AD7ED060A30EE7F
:1052C000600A85ED060A95ED070AD7ED070A30EE6C
:1052D000600A85ED070A707840070AD5707820F0DB
:1052E00004007070594A291D1032A2F12A00FBF700
:1052F00011FFB07840070CD5B07820F00400B070F2
:10530000564851461E30FCF773F895ED040A06F036
:1053100075FA4E4BCDF80080103BA3F14C02A2F180
:105320000C01A1F10C0006F071F948488C38A0F18D
:105330000C0290ED000A82ED000A00F10C01D1EDA3
:10534000000AC0ED000ADFED4A1A60EEA10A9FEDE7
:10535000491A00F1240340EE010A93ED000A9FED83
:10536000462A40EE020AC1ED000A90ED010A82EDE4
:10537000010AD1ED010AC0ED010A60EEA10A40EE7A
:10538000010A93ED010A40EE020AC1ED010A90ED17
:10539000020A82ED020AD1ED020AC0ED020A60EEB5
:1053A000A10A40EE010A93ED020A40EE020AC1EDA5
:1053B000020A0A460C330C319FED300A3C30FBF7F1
:1053C000CBFC224C403C231D21461A1DA1F11000AC
:1053D00006F0A0F8D4ED000A9FED290A04F10C00B4
:1053E00020EE801ADFED270AC1EE201AC0ED001A68
:1053F00094ED011A21EE001AC1EE201AC0ED011A37
:1054000094ED021A21EE001AC1EE201AC0ED021A24
:1054100095ED051A0C3021EE001AC1EE201AC0EDF0
:10542000001A95ED061A21EE001AC1EE201AC0ED01
:10543000011A95ED071A21EE000A80EE201A80ED80
:10544000021AB7EE000A86ED040A1AE77449002032
:105450000080894500A08C45D8CF0008A00000201E
:105460004406002073DD96BB5CD7DCBA4400113BD8
:105470005AF8F63F5D896EBFD5A9183B6F12833A83
:1054800000003443DB0F4940F6EE001A70EE600A6C
:1054900061EE211AF4EEE10AF1EE10FA02DD30EECF
:1054A000410A7047FEEE001A61EE211AF4EEE10A9D
:1054B000F1EE10FAF5D230EE010A704770B58AB0FD
:1054C0000646F0EE602AB0EE413A019100200390CA
:1054D0000490082005901020B2EE091AFAEE090A8D
:1054E00006F000F802460C209FED241ADFED240A96
:1054F000B0EE620A05F0F6FF0346DFED232A0C202A
:105500009FED201AF0EE620AB0EE430A05F0EAFFC2
:1055100004460C20B1EE041AF0EE620AB0EE610A05
:1055200005F0E0FF05460C20B3EE021AFBEE020A7E
:10553000B0EE420A05F0D6FF110A8DF820108DF862
:10554000212019098DF82210190141EA14218DF842
:1055500023108DF8244029098DF82510290141EAEE
:1055600010218DF826108DF8270007AB08AA01A995
:105570003046FCF71AFD0AB070BD0000000034424E
:10558000000034C20000FA430000000010B50F48CC
:105590000D4901600321416000218160C1604FF429
:1055A000102202614FF40012426101764176817649
:1055B000C17601774177FCF779FF002803D0BDE879
:1055C0001040FCF719BC10BD006400408C040020A2
:1055D00010B50F480D490160032141600021816031
:1055E000C1604FF4102202614FF400124261017653
:1055F00041768176C17601774177FCF757FF002825
:1056000003D0BDE81040FCF7F7BB10BD00680040B8
:10561000B404002008B51948016841F48001016014
:10562000016801F480010091016841F400110160FA
:10563000006800F400100090002205210D20FEF704
:105640001BF80D20FEF70AF8002205212F20FEF797
:1056500013F82F20FEF702F8002205213A20FEF76A
:105660000BF83A20FDF7FAFF002205213B20FEF758
:1056700003F8BDE808403B20FDF7F0BF303802409A
:1056800010B5A4B01C221C491DA8FAF74DFE00213C
:105690001DA806F076FA194C20601C2216491C3110
:1056A00016A8FAF741FE002116A806F06AFA606013
:1056B0001C22114938310FA8FAF736FE00210FA835
:1056C00006F05FFAA0601C220B49543108A8FAF7D3
:1056D0002BFE002108A806F054FAE0601C220649BF
:1056E000703101A8FAF720FE002101A806F049FA5E
:1056F000206124B010BD00002CCF00080000002065
:105700002DE9F04387B0142102A8FAF726FE574886
:10571000016841F002010160016801F0020101919C
:10572000016841F001010160016801F0010101918E
:10573000016841F008010160016801F00801019170
:10574000016841F480710160016801F48071019188
:10575000016841F004010160016801F00401019158
:10576000016841F020010160016801F02001019110
:10577000016841F080010160016801F08001019140
:10578000016841F040010160016801F040010191B0
:10579000016841F010010160006800F01000019004
:1057A000DFF8CC90012240214846FDF757FB314FEE
:1057B000012210213846FDF751FBDFF8BC800122A1
:1057C00011464046FDF74AFB402002900124039415
:1057D00004940225059502A94846FDF757FA0920C9
:1057E00002904FF404160396049402A94846FDF76C
:1057F0004DFA1020029003940494059502A93846AE
:10580000FDF744FA302002900396049402A91B4845
:10581000FDF73CFA029403940494059502A94046CE
:10582000FDF734FA062100220846FDF725FF062081
:10583000FDF714FF002205210920FDF71DFF0920B7
:10584000FDF70CFF002205210A20FDF715FF0A20B5
:10585000FDF704FF002205211720FDF70DFF17209B
:10586000FDF7FCFE07B0BDE8F083000030380240D1
:1058700000180240000002400004024000080240FC
:1058800010B50D480B4901600C4941600021816051
:10589000C1604FF48042026141618161C161016276
:1058A000FDF7EAFA002803D0BDE81040FCF7A4BADF
:1058B00010BD000000580040DC040020801A0600E3
:1058C00010B50D480B4901600C4941600021816011
:1058D000C1604FF48042026141618161C161016236
:1058E000FDF7CAFA002803D0BDE81040FCF784BADF
:1058F00010BD0000005C004030050020801A06004A
:1059000010B510480E4901604FF4827141600021CA
:105910008160C16002220261012242615202826101
:105920003822C2610162416281620A21C162FEF7CE
:1059300059FA002803D0BDE81040FCF75DBA10BD4D
:10594000003001404406002010B588B01C2101A899
:10595000FAF703FD1548144901600024446084608F
:1059600041F28731C160046180218161FEF79CFCB6
:1059700008B1FCF741FA0D48FEF765FF08B1FCF7E6
:105980003BFA60200190029403940594002201A93F
:105990000648FEF7ECFE08B1FCF72EFA0348FEF7C6
:1059A00071FE08B010BD000000440140EC0700206B
:1059B00010B596B000241294139414941594109476
:1059C00011941C2109A8FAF7C8FC202101A8FAF7B4
:1059D000C4FC344832490160A7214160846044F628
:1059E0001F61C160046144618461FEF75DFC08B120
:1059F000FCF702FA4FF48050129012A92948FEF7E2
:105A00002FFD08B1FCF7F8F92648FEF71CFF08B196
:105A1000FCF7F2F91094119410A92248FEF7FCFB50
:105A200008B1FCF7E9F9602009900A940B940C94F2
:105A30000D940E940F94002209A91A48FEF797FEC0
:105A400008B1FCF7D9F9042209A91648FEF78FFE20
:105A500008B1FCF7D1F9082209A91248FEF787FE20
:105A600008B1FCF7C9F90C2209A90E48FEF77FFE20
:105A700008B1FCF7C1F901940294039404940594CD
:105A80004FF400500690089401A90648FEF799FBD0
:105A900008B1FCF7B1F90348FEF7F4FD16B010BDEC
:105AA000000001405C07002010B596B0002412945D
:105AB000139414941594109411941C2109A8FAF7C6
:105AC0004CFC202101A8FAF748FC2C482A49016027
:105AD000A7214160846044F61F61C1600461446194
